{
	"contracts/Pawn.sol": {
		"Pawn": {
			"abi": [
				{
					"inputs": [],
					"stateMutability": "nonpayable",
					"type": "constructor"
				},
				{
					"anonymous": false,
					"inputs": [
						{
							"indexed": false,
							"internalType": "uint256",
							"name": "amount",
							"type": "uint256"
						}
					],
					"name": "LoanReceived",
					"type": "event"
				},
				{
					"anonymous": false,
					"inputs": [
						{
							"indexed": false,
							"internalType": "uint256",
							"name": "amount",
							"type": "uint256"
						}
					],
					"name": "LoanRepaid",
					"type": "event"
				},
				{
					"inputs": [],
					"name": "borrower",
					"outputs": [
						{
							"internalType": "address",
							"name": "",
							"type": "address"
						}
					],
					"stateMutability": "view",
					"type": "function"
				},
				{
					"inputs": [],
					"name": "checkStatus",
					"outputs": [
						{
							"internalType": "address",
							"name": "",
							"type": "address"
						},
						{
							"internalType": "uint256",
							"name": "",
							"type": "uint256"
						},
						{
							"internalType": "uint256",
							"name": "",
							"type": "uint256"
						},
						{
							"internalType": "uint256",
							"name": "",
							"type": "uint256"
						},
						{
							"internalType": "bool",
							"name": "",
							"type": "bool"
						}
					],
					"stateMutability": "view",
					"type": "function"
				},
				{
					"inputs": [],
					"name": "collateralAmount",
					"outputs": [
						{
							"internalType": "uint256",
							"name": "",
							"type": "uint256"
						}
					],
					"stateMutability": "view",
					"type": "function"
				},
				{
					"inputs": [],
					"name": "loanAmount",
					"outputs": [
						{
							"internalType": "uint256",
							"name": "",
							"type": "uint256"
						}
					],
					"stateMutability": "view",
					"type": "function"
				},
				{
					"inputs": [],
					"name": "loanRepaid",
					"outputs": [
						{
							"internalType": "bool",
							"name": "",
							"type": "bool"
						}
					],
					"stateMutability": "view",
					"type": "function"
				},
				{
					"inputs": [],
					"name": "remainingRepayment",
					"outputs": [
						{
							"internalType": "uint256",
							"name": "",
							"type": "uint256"
						}
					],
					"stateMutability": "view",
					"type": "function"
				},
				{
					"inputs": [
						{
							"internalType": "uint256",
							"name": "amount",
							"type": "uint256"
						}
					],
					"name": "repayLoan",
					"outputs": [],
					"stateMutability": "payable",
					"type": "function"
				},
				{
					"stateMutability": "payable",
					"type": "receive"
				}
			],
			"devdoc": {
				"kind": "dev",
				"methods": {},
				"version": 1
			},
			"evm": {
				"assembly": "    /* \"contracts/Pawn.sol\":58:1461  contract Pawn {... */\n  mstore(0x40, 0x80)\n    /* \"contracts/Pawn.sol\":307:490  constructor() {... */\n  callvalue\n  dup1\n  iszero\n  tag_1\n  jumpi\n  0x00\n  dup1\n  revert\ntag_1:\n  pop\n    /* \"contracts/Pawn.sol\":342:352  msg.sender */\n  caller\n    /* \"contracts/Pawn.sol\":331:339  borrower */\n  0x00\n  dup1\n    /* \"contracts/Pawn.sol\":331:352  borrower = msg.sender */\n  0x0100\n  exp\n  dup2\n  sload\n  dup2\n  0xffffffffffffffffffffffffffffffffffffffff\n  mul\n  not\n  and\n  swap1\n  dup4\n  0xffffffffffffffffffffffffffffffffffffffff\n  and\n  mul\n  or\n  swap1\n  sstore\n  pop\n    /* \"contracts/Pawn.sol\":381:388  4 ether */\n  0x3782dace9d900000\n    /* \"contracts/Pawn.sol\":362:378  collateralAmount */\n  0x01\n    /* \"contracts/Pawn.sol\":362:388  collateralAmount = 4 ether */\n  dup2\n  swap1\n  sstore\n  pop\n    /* \"contracts/Pawn.sol\":411:414  200 */\n  0xc8\n    /* \"contracts/Pawn.sol\":398:408  loanAmount */\n  0x02\n    /* \"contracts/Pawn.sol\":398:414  loanAmount = 200 */\n  dup2\n  swap1\n  sstore\n  pop\n    /* \"contracts/Pawn.sol\":445:455  loanAmount */\n  sload(0x02)\n    /* \"contracts/Pawn.sol\":424:442  remainingRepayment */\n  0x03\n    /* \"contracts/Pawn.sol\":424:455  remainingRepayment = loanAmount */\n  dup2\n  swap1\n  sstore\n  pop\n    /* \"contracts/Pawn.sol\":478:483  false */\n  0x00\n    /* \"contracts/Pawn.sol\":465:475  loanRepaid */\n  0x04\n  0x00\n    /* \"contracts/Pawn.sol\":465:483  loanRepaid = false */\n  0x0100\n  exp\n  dup2\n  sload\n  dup2\n  0xff\n  mul\n  not\n  and\n  swap1\n  dup4\n  iszero\n  iszero\n  mul\n  or\n  swap1\n  sstore\n  pop\n    /* \"contracts/Pawn.sol\":58:1461  contract Pawn {... */\n  dataSize(sub_0)\n  dup1\n  dataOffset(sub_0)\n  0x00\n  codecopy\n  0x00\n  return\nstop\n\nsub_0: assembly {\n        /* \"contracts/Pawn.sol\":58:1461  contract Pawn {... */\n      mstore(0x40, 0x80)\n      jumpi(tag_1, lt(calldatasize, 0x04))\n      shr(0xe0, calldataload(0x00))\n      dup1\n      0x92d09ceb\n      gt\n      tag_10\n      jumpi\n      dup1\n      0x92d09ceb\n      eq\n      tag_6\n      jumpi\n      dup1\n      0x9d585f7f\n      eq\n      tag_7\n      jumpi\n      dup1\n      0xab7b1c89\n      eq\n      tag_8\n      jumpi\n      dup1\n      0xbff1d2e3\n      eq\n      tag_9\n      jumpi\n      jump(tag_2)\n    tag_10:\n      dup1\n      0x0202aa2c\n      eq\n      tag_3\n      jumpi\n      dup1\n      0x3b7104f2\n      eq\n      tag_4\n      jumpi\n      dup1\n      0x7df1f1b9\n      eq\n      tag_5\n      jumpi\n      jump(tag_2)\n    tag_1:\n      jumpi(tag_2, calldatasize)\n        /* \"contracts/Pawn.sol\":782:805  LoanReceived(msg.value) */\n      0xb8f6415486af1418f9963a58250d573c41bc7b087e7f76fdeaff13c83525e407\n        /* \"contracts/Pawn.sol\":795:804  msg.value */\n      callvalue\n        /* \"contracts/Pawn.sol\":782:805  LoanReceived(msg.value) */\n      mload(0x40)\n      tag_13\n      swap2\n      swap1\n      tag_14\n      jump\t// in\n    tag_13:\n      mload(0x40)\n      dup1\n      swap2\n      sub\n      swap1\n      log1\n        /* \"contracts/Pawn.sol\":58:1461  contract Pawn {... */\n      stop\n    tag_2:\n      0x00\n      dup1\n      revert\n        /* \"contracts/Pawn.sol\":169:199  uint public remainingRepayment */\n    tag_3:\n      callvalue\n      dup1\n      iszero\n      tag_15\n      jumpi\n      0x00\n      dup1\n      revert\n    tag_15:\n      pop\n      tag_16\n      tag_17\n      jump\t// in\n    tag_16:\n      mload(0x40)\n      tag_18\n      swap2\n      swap1\n      tag_14\n      jump\t// in\n    tag_18:\n      mload(0x40)\n      dup1\n      swap2\n      sub\n      swap1\n      return\n        /* \"contracts/Pawn.sol\":1284:1459  function checkStatus() external view returns (address, uint, uint, uint, bool) {... */\n    tag_4:\n      callvalue\n      dup1\n      iszero\n      tag_19\n      jumpi\n      0x00\n      dup1\n      revert\n    tag_19:\n      pop\n      tag_20\n      tag_21\n      jump\t// in\n    tag_20:\n      mload(0x40)\n      tag_22\n      swap6\n      swap5\n      swap4\n      swap3\n      swap2\n      swap1\n      tag_23\n      jump\t// in\n    tag_22:\n      mload(0x40)\n      dup1\n      swap2\n      sub\n      swap1\n      return\n        /* \"contracts/Pawn.sol\":78:101  address public borrower */\n    tag_5:\n      callvalue\n      dup1\n      iszero\n      tag_24\n      jumpi\n      0x00\n      dup1\n      revert\n    tag_24:\n      pop\n      tag_25\n      tag_26\n      jump\t// in\n    tag_25:\n      mload(0x40)\n      tag_27\n      swap2\n      swap1\n      tag_28\n      jump\t// in\n    tag_27:\n      mload(0x40)\n      dup1\n      swap2\n      sub\n      swap1\n      return\n        /* \"contracts/Pawn.sol\":107:135  uint public collateralAmount */\n    tag_6:\n      callvalue\n      dup1\n      iszero\n      tag_29\n      jumpi\n      0x00\n      dup1\n      revert\n    tag_29:\n      pop\n      tag_30\n      tag_31\n      jump\t// in\n    tag_30:\n      mload(0x40)\n      tag_32\n      swap2\n      swap1\n      tag_14\n      jump\t// in\n    tag_32:\n      mload(0x40)\n      dup1\n      swap2\n      sub\n      swap1\n      return\n        /* \"contracts/Pawn.sol\":141:163  uint public loanAmount */\n    tag_7:\n      callvalue\n      dup1\n      iszero\n      tag_33\n      jumpi\n      0x00\n      dup1\n      revert\n    tag_33:\n      pop\n      tag_34\n      tag_35\n      jump\t// in\n    tag_34:\n      mload(0x40)\n      tag_36\n      swap2\n      swap1\n      tag_14\n      jump\t// in\n    tag_36:\n      mload(0x40)\n      dup1\n      swap2\n      sub\n      swap1\n      return\n        /* \"contracts/Pawn.sol\":818:1278  function repayLoan(uint amount) external payable onlyBorrower loanNotRepaid {... */\n    tag_8:\n      tag_37\n      0x04\n      dup1\n      calldatasize\n      sub\n      dup2\n      add\n      swap1\n      tag_38\n      swap2\n      swap1\n      tag_39\n      jump\t// in\n    tag_38:\n      tag_40\n      jump\t// in\n    tag_37:\n      stop\n        /* \"contracts/Pawn.sol\":205:227  bool public loanRepaid */\n    tag_9:\n      callvalue\n      dup1\n      iszero\n      tag_41\n      jumpi\n      0x00\n      dup1\n      revert\n    tag_41:\n      pop\n      tag_42\n      tag_43\n      jump\t// in\n    tag_42:\n      mload(0x40)\n      tag_44\n      swap2\n      swap1\n      tag_45\n      jump\t// in\n    tag_44:\n      mload(0x40)\n      dup1\n      swap2\n      sub\n      swap1\n      return\n        /* \"contracts/Pawn.sol\":169:199  uint public remainingRepayment */\n    tag_17:\n      sload(0x03)\n      dup2\n      jump\t// out\n        /* \"contracts/Pawn.sol\":1284:1459  function checkStatus() external view returns (address, uint, uint, uint, bool) {... */\n    tag_21:\n        /* \"contracts/Pawn.sol\":1330:1337  address */\n      0x00\n        /* \"contracts/Pawn.sol\":1339:1343  uint */\n      dup1\n        /* \"contracts/Pawn.sol\":1345:1349  uint */\n      0x00\n        /* \"contracts/Pawn.sol\":1351:1355  uint */\n      dup1\n        /* \"contracts/Pawn.sol\":1357:1361  bool */\n      0x00\n        /* \"contracts/Pawn.sol\":1381:1389  borrower */\n      dup1\n      0x00\n      swap1\n      sload\n      swap1\n      0x0100\n      exp\n      swap1\n      div\n      0xffffffffffffffffffffffffffffffffffffffff\n      and\n        /* \"contracts/Pawn.sol\":1391:1407  collateralAmount */\n      sload(0x01)\n        /* \"contracts/Pawn.sol\":1409:1419  loanAmount */\n      sload(0x02)\n        /* \"contracts/Pawn.sol\":1421:1439  remainingRepayment */\n      sload(0x03)\n        /* \"contracts/Pawn.sol\":1441:1451  loanRepaid */\n      0x04\n      0x00\n      swap1\n      sload\n      swap1\n      0x0100\n      exp\n      swap1\n      div\n      0xff\n      and\n        /* \"contracts/Pawn.sol\":1373:1452  return (borrower, collateralAmount, loanAmount, remainingRepayment, loanRepaid) */\n      swap5\n      pop\n      swap5\n      pop\n      swap5\n      pop\n      swap5\n      pop\n      swap5\n      pop\n        /* \"contracts/Pawn.sol\":1284:1459  function checkStatus() external view returns (address, uint, uint, uint, bool) {... */\n      swap1\n      swap2\n      swap3\n      swap4\n      swap5\n      jump\t// out\n        /* \"contracts/Pawn.sol\":78:101  address public borrower */\n    tag_26:\n      0x00\n      dup1\n      sload\n      swap1\n      0x0100\n      exp\n      swap1\n      div\n      0xffffffffffffffffffffffffffffffffffffffff\n      and\n      dup2\n      jump\t// out\n        /* \"contracts/Pawn.sol\":107:135  uint public collateralAmount */\n    tag_31:\n      sload(0x01)\n      dup2\n      jump\t// out\n        /* \"contracts/Pawn.sol\":141:163  uint public loanAmount */\n    tag_35:\n      sload(0x02)\n      dup2\n      jump\t// out\n        /* \"contracts/Pawn.sol\":818:1278  function repayLoan(uint amount) external payable onlyBorrower loanNotRepaid {... */\n    tag_40:\n        /* \"contracts/Pawn.sol\":552:560  borrower */\n      0x00\n      dup1\n      sload\n      swap1\n      0x0100\n      exp\n      swap1\n      div\n      0xffffffffffffffffffffffffffffffffffffffff\n      and\n        /* \"contracts/Pawn.sol\":538:560  msg.sender == borrower */\n      0xffffffffffffffffffffffffffffffffffffffff\n      and\n        /* \"contracts/Pawn.sol\":538:548  msg.sender */\n      caller\n        /* \"contracts/Pawn.sol\":538:560  msg.sender == borrower */\n      0xffffffffffffffffffffffffffffffffffffffff\n      and\n      eq\n        /* \"contracts/Pawn.sol\":530:605  require(msg.sender == borrower, \"Only the borrower can call this function\") */\n      tag_48\n      jumpi\n      mload(0x40)\n      0x08c379a000000000000000000000000000000000000000000000000000000000\n      dup2\n      mstore\n      0x04\n      add\n      tag_49\n      swap1\n      tag_50\n      jump\t// in\n    tag_49:\n      mload(0x40)\n      dup1\n      swap2\n      sub\n      swap1\n      revert\n    tag_48:\n        /* \"contracts/Pawn.sol\":673:683  loanRepaid */\n      0x04\n      0x00\n      swap1\n      sload\n      swap1\n      0x0100\n      exp\n      swap1\n      div\n      0xff\n      and\n        /* \"contracts/Pawn.sol\":672:683  !loanRepaid */\n      iszero\n        /* \"contracts/Pawn.sol\":664:716  require(!loanRepaid, \"Loan has already been repaid\") */\n      tag_52\n      jumpi\n      mload(0x40)\n      0x08c379a000000000000000000000000000000000000000000000000000000000\n      dup2\n      mstore\n      0x04\n      add\n      tag_53\n      swap1\n      tag_54\n      jump\t// in\n    tag_53:\n      mload(0x40)\n      dup1\n      swap2\n      sub\n      swap1\n      revert\n    tag_52:\n        /* \"contracts/Pawn.sol\":921:922  0 */\n      0x00\n        /* \"contracts/Pawn.sol\":912:918  amount */\n      dup2\n        /* \"contracts/Pawn.sol\":912:922  amount > 0 */\n      gt\n        /* \"contracts/Pawn.sol\":904:966  require(amount > 0, \"Repayment amount must be greater than 0\") */\n      tag_56\n      jumpi\n      mload(0x40)\n      0x08c379a000000000000000000000000000000000000000000000000000000000\n      dup2\n      mstore\n      0x04\n      add\n      tag_57\n      swap1\n      tag_58\n      jump\t// in\n    tag_57:\n      mload(0x40)\n      dup1\n      swap2\n      sub\n      swap1\n      revert\n    tag_56:\n        /* \"contracts/Pawn.sol\":994:1012  remainingRepayment */\n      sload(0x03)\n        /* \"contracts/Pawn.sol\":984:990  amount */\n      dup2\n        /* \"contracts/Pawn.sol\":984:1012  amount <= remainingRepayment */\n      gt\n      iszero\n        /* \"contracts/Pawn.sol\":976:1051  require(amount <= remainingRepayment, \"Amount exceeds remaining repayment\") */\n      tag_59\n      jumpi\n      mload(0x40)\n      0x08c379a000000000000000000000000000000000000000000000000000000000\n      dup2\n      mstore\n      0x04\n      add\n      tag_60\n      swap1\n      tag_61\n      jump\t// in\n    tag_60:\n      mload(0x40)\n      dup1\n      swap2\n      sub\n      swap1\n      revert\n    tag_59:\n        /* \"contracts/Pawn.sol\":1092:1098  amount */\n      dup1\n        /* \"contracts/Pawn.sol\":1070:1088  remainingRepayment */\n      0x03\n      0x00\n        /* \"contracts/Pawn.sol\":1070:1098  remainingRepayment -= amount */\n      dup3\n      dup3\n      sload\n      tag_62\n      swap2\n      swap1\n      tag_63\n      jump\t// in\n    tag_62:\n      swap3\n      pop\n      pop\n      dup2\n      swap1\n      sstore\n      pop\n        /* \"contracts/Pawn.sol\":1135:1136  0 */\n      0x00\n        /* \"contracts/Pawn.sol\":1113:1131  remainingRepayment */\n      sload(0x03)\n        /* \"contracts/Pawn.sol\":1113:1136  remainingRepayment == 0 */\n      sub\n        /* \"contracts/Pawn.sol\":1109:1238  if (remainingRepayment == 0) {... */\n      tag_64\n      jumpi\n        /* \"contracts/Pawn.sol\":1165:1169  true */\n      0x01\n        /* \"contracts/Pawn.sol\":1152:1162  loanRepaid */\n      0x04\n      0x00\n        /* \"contracts/Pawn.sol\":1152:1169  loanRepaid = true */\n      0x0100\n      exp\n      dup2\n      sload\n      dup2\n      0xff\n      mul\n      not\n      and\n      swap1\n      dup4\n      iszero\n      iszero\n      mul\n      or\n      swap1\n      sstore\n      pop\n        /* \"contracts/Pawn.sol\":1191:1199  borrower */\n      0x00\n      dup1\n      sload\n      swap1\n      0x0100\n      exp\n      swap1\n      div\n      0xffffffffffffffffffffffffffffffffffffffff\n      and\n        /* \"contracts/Pawn.sol\":1183:1209  payable(borrower).transfer */\n      0xffffffffffffffffffffffffffffffffffffffff\n      and\n        /* \"contracts/Pawn.sol\":1183:1227  payable(borrower).transfer(collateralAmount) */\n      0x08fc\n        /* \"contracts/Pawn.sol\":1210:1226  collateralAmount */\n      sload(0x01)\n        /* \"contracts/Pawn.sol\":1183:1227  payable(borrower).transfer(collateralAmount) */\n      swap1\n      dup2\n      iszero\n      mul\n      swap1\n      mload(0x40)\n      0x00\n      mload(0x40)\n      dup1\n      dup4\n      sub\n      dup2\n      dup6\n      dup9\n      dup9\n      call\n      swap4\n      pop\n      pop\n      pop\n      pop\n      iszero\n      dup1\n      iszero\n      tag_66\n      jumpi\n      returndatasize\n      0x00\n      dup1\n      returndatacopy\n      revert(0x00, returndatasize)\n    tag_66:\n      pop\n        /* \"contracts/Pawn.sol\":1109:1238  if (remainingRepayment == 0) {... */\n    tag_64:\n        /* \"contracts/Pawn.sol\":1253:1271  LoanRepaid(amount) */\n      0x9a7851747cd7ffb3fe0a32caf3da48b31f27cebe131267051640f8b72fc47186\n        /* \"contracts/Pawn.sol\":1264:1270  amount */\n      dup2\n        /* \"contracts/Pawn.sol\":1253:1271  LoanRepaid(amount) */\n      mload(0x40)\n      tag_67\n      swap2\n      swap1\n      tag_14\n      jump\t// in\n    tag_67:\n      mload(0x40)\n      dup1\n      swap2\n      sub\n      swap1\n      log1\n        /* \"contracts/Pawn.sol\":818:1278  function repayLoan(uint amount) external payable onlyBorrower loanNotRepaid {... */\n      pop\n      jump\t// out\n        /* \"contracts/Pawn.sol\":205:227  bool public loanRepaid */\n    tag_43:\n      0x04\n      0x00\n      swap1\n      sload\n      swap1\n      0x0100\n      exp\n      swap1\n      div\n      0xff\n      and\n      dup2\n      jump\t// out\n        /* \"#utility.yul\":7:84   */\n    tag_68:\n        /* \"#utility.yul\":44:51   */\n      0x00\n        /* \"#utility.yul\":73:78   */\n      dup2\n        /* \"#utility.yul\":62:78   */\n      swap1\n      pop\n        /* \"#utility.yul\":7:84   */\n      swap2\n      swap1\n      pop\n      jump\t// out\n        /* \"#utility.yul\":90:208   */\n    tag_69:\n        /* \"#utility.yul\":177:201   */\n      tag_93\n        /* \"#utility.yul\":195:200   */\n      dup2\n        /* \"#utility.yul\":177:201   */\n      tag_68\n      jump\t// in\n    tag_93:\n        /* \"#utility.yul\":172:175   */\n      dup3\n        /* \"#utility.yul\":165:202   */\n      mstore\n        /* \"#utility.yul\":90:208   */\n      pop\n      pop\n      jump\t// out\n        /* \"#utility.yul\":214:436   */\n    tag_14:\n        /* \"#utility.yul\":307:311   */\n      0x00\n        /* \"#utility.yul\":345:347   */\n      0x20\n        /* \"#utility.yul\":334:343   */\n      dup3\n        /* \"#utility.yul\":330:348   */\n      add\n        /* \"#utility.yul\":322:348   */\n      swap1\n      pop\n        /* \"#utility.yul\":358:429   */\n      tag_95\n        /* \"#utility.yul\":426:427   */\n      0x00\n        /* \"#utility.yul\":415:424   */\n      dup4\n        /* \"#utility.yul\":411:428   */\n      add\n        /* \"#utility.yul\":402:408   */\n      dup5\n        /* \"#utility.yul\":358:429   */\n      tag_69\n      jump\t// in\n    tag_95:\n        /* \"#utility.yul\":214:436   */\n      swap3\n      swap2\n      pop\n      pop\n      jump\t// out\n        /* \"#utility.yul\":442:568   */\n    tag_70:\n        /* \"#utility.yul\":479:486   */\n      0x00\n        /* \"#utility.yul\":519:561   */\n      0xffffffffffffffffffffffffffffffffffffffff\n        /* \"#utility.yul\":512:517   */\n      dup3\n        /* \"#utility.yul\":508:562   */\n      and\n        /* \"#utility.yul\":497:562   */\n      swap1\n      pop\n        /* \"#utility.yul\":442:568   */\n      swap2\n      swap1\n      pop\n      jump\t// out\n        /* \"#utility.yul\":574:670   */\n    tag_71:\n        /* \"#utility.yul\":611:618   */\n      0x00\n        /* \"#utility.yul\":640:664   */\n      tag_98\n        /* \"#utility.yul\":658:663   */\n      dup3\n        /* \"#utility.yul\":640:664   */\n      tag_70\n      jump\t// in\n    tag_98:\n        /* \"#utility.yul\":629:664   */\n      swap1\n      pop\n        /* \"#utility.yul\":574:670   */\n      swap2\n      swap1\n      pop\n      jump\t// out\n        /* \"#utility.yul\":676:794   */\n    tag_72:\n        /* \"#utility.yul\":763:787   */\n      tag_100\n        /* \"#utility.yul\":781:786   */\n      dup2\n        /* \"#utility.yul\":763:787   */\n      tag_71\n      jump\t// in\n    tag_100:\n        /* \"#utility.yul\":758:761   */\n      dup3\n        /* \"#utility.yul\":751:788   */\n      mstore\n        /* \"#utility.yul\":676:794   */\n      pop\n      pop\n      jump\t// out\n        /* \"#utility.yul\":800:890   */\n    tag_73:\n        /* \"#utility.yul\":834:841   */\n      0x00\n        /* \"#utility.yul\":877:882   */\n      dup2\n        /* \"#utility.yul\":870:883   */\n      iszero\n        /* \"#utility.yul\":863:884   */\n      iszero\n        /* \"#utility.yul\":852:884   */\n      swap1\n      pop\n        /* \"#utility.yul\":800:890   */\n      swap2\n      swap1\n      pop\n      jump\t// out\n        /* \"#utility.yul\":896:1005   */\n    tag_74:\n        /* \"#utility.yul\":977:998   */\n      tag_103\n        /* \"#utility.yul\":992:997   */\n      dup2\n        /* \"#utility.yul\":977:998   */\n      tag_73\n      jump\t// in\n    tag_103:\n        /* \"#utility.yul\":972:975   */\n      dup3\n        /* \"#utility.yul\":965:999   */\n      mstore\n        /* \"#utility.yul\":896:1005   */\n      pop\n      pop\n      jump\t// out\n        /* \"#utility.yul\":1011:1663   */\n    tag_23:\n        /* \"#utility.yul\":1210:1214   */\n      0x00\n        /* \"#utility.yul\":1248:1251   */\n      0xa0\n        /* \"#utility.yul\":1237:1246   */\n      dup3\n        /* \"#utility.yul\":1233:1252   */\n      add\n        /* \"#utility.yul\":1225:1252   */\n      swap1\n      pop\n        /* \"#utility.yul\":1262:1333   */\n      tag_105\n        /* \"#utility.yul\":1330:1331   */\n      0x00\n        /* \"#utility.yul\":1319:1328   */\n      dup4\n        /* \"#utility.yul\":1315:1332   */\n      add\n        /* \"#utility.yul\":1306:1312   */\n      dup9\n        /* \"#utility.yul\":1262:1333   */\n      tag_72\n      jump\t// in\n    tag_105:\n        /* \"#utility.yul\":1343:1415   */\n      tag_106\n        /* \"#utility.yul\":1411:1413   */\n      0x20\n        /* \"#utility.yul\":1400:1409   */\n      dup4\n        /* \"#utility.yul\":1396:1414   */\n      add\n        /* \"#utility.yul\":1387:1393   */\n      dup8\n        /* \"#utility.yul\":1343:1415   */\n      tag_69\n      jump\t// in\n    tag_106:\n        /* \"#utility.yul\":1425:1497   */\n      tag_107\n        /* \"#utility.yul\":1493:1495   */\n      0x40\n        /* \"#utility.yul\":1482:1491   */\n      dup4\n        /* \"#utility.yul\":1478:1496   */\n      add\n        /* \"#utility.yul\":1469:1475   */\n      dup7\n        /* \"#utility.yul\":1425:1497   */\n      tag_69\n      jump\t// in\n    tag_107:\n        /* \"#utility.yul\":1507:1579   */\n      tag_108\n        /* \"#utility.yul\":1575:1577   */\n      0x60\n        /* \"#utility.yul\":1564:1573   */\n      dup4\n        /* \"#utility.yul\":1560:1578   */\n      add\n        /* \"#utility.yul\":1551:1557   */\n      dup6\n        /* \"#utility.yul\":1507:1579   */\n      tag_69\n      jump\t// in\n    tag_108:\n        /* \"#utility.yul\":1589:1656   */\n      tag_109\n        /* \"#utility.yul\":1651:1654   */\n      0x80\n        /* \"#utility.yul\":1640:1649   */\n      dup4\n        /* \"#utility.yul\":1636:1655   */\n      add\n        /* \"#utility.yul\":1627:1633   */\n      dup5\n        /* \"#utility.yul\":1589:1656   */\n      tag_74\n      jump\t// in\n    tag_109:\n        /* \"#utility.yul\":1011:1663   */\n      swap7\n      swap6\n      pop\n      pop\n      pop\n      pop\n      pop\n      pop\n      jump\t// out\n        /* \"#utility.yul\":1669:1891   */\n    tag_28:\n        /* \"#utility.yul\":1762:1766   */\n      0x00\n        /* \"#utility.yul\":1800:1802   */\n      0x20\n        /* \"#utility.yul\":1789:1798   */\n      dup3\n        /* \"#utility.yul\":1785:1803   */\n      add\n        /* \"#utility.yul\":1777:1803   */\n      swap1\n      pop\n        /* \"#utility.yul\":1813:1884   */\n      tag_111\n        /* \"#utility.yul\":1881:1882   */\n      0x00\n        /* \"#utility.yul\":1870:1879   */\n      dup4\n        /* \"#utility.yul\":1866:1883   */\n      add\n        /* \"#utility.yul\":1857:1863   */\n      dup5\n        /* \"#utility.yul\":1813:1884   */\n      tag_72\n      jump\t// in\n    tag_111:\n        /* \"#utility.yul\":1669:1891   */\n      swap3\n      swap2\n      pop\n      pop\n      jump\t// out\n        /* \"#utility.yul\":1978:2095   */\n    tag_76:\n        /* \"#utility.yul\":2087:2088   */\n      0x00\n        /* \"#utility.yul\":2084:2085   */\n      dup1\n        /* \"#utility.yul\":2077:2089   */\n      revert\n        /* \"#utility.yul\":2224:2346   */\n    tag_78:\n        /* \"#utility.yul\":2297:2321   */\n      tag_116\n        /* \"#utility.yul\":2315:2320   */\n      dup2\n        /* \"#utility.yul\":2297:2321   */\n      tag_68\n      jump\t// in\n    tag_116:\n        /* \"#utility.yul\":2290:2295   */\n      dup2\n        /* \"#utility.yul\":2287:2322   */\n      eq\n        /* \"#utility.yul\":2277:2340   */\n      tag_117\n      jumpi\n        /* \"#utility.yul\":2336:2337   */\n      0x00\n        /* \"#utility.yul\":2333:2334   */\n      dup1\n        /* \"#utility.yul\":2326:2338   */\n      revert\n        /* \"#utility.yul\":2277:2340   */\n    tag_117:\n        /* \"#utility.yul\":2224:2346   */\n      pop\n      jump\t// out\n        /* \"#utility.yul\":2352:2491   */\n    tag_79:\n        /* \"#utility.yul\":2398:2403   */\n      0x00\n        /* \"#utility.yul\":2436:2442   */\n      dup2\n        /* \"#utility.yul\":2423:2443   */\n      calldataload\n        /* \"#utility.yul\":2414:2443   */\n      swap1\n      pop\n        /* \"#utility.yul\":2452:2485   */\n      tag_119\n        /* \"#utility.yul\":2479:2484   */\n      dup2\n        /* \"#utility.yul\":2452:2485   */\n      tag_78\n      jump\t// in\n    tag_119:\n        /* \"#utility.yul\":2352:2491   */\n      swap3\n      swap2\n      pop\n      pop\n      jump\t// out\n        /* \"#utility.yul\":2497:2826   */\n    tag_39:\n        /* \"#utility.yul\":2556:2562   */\n      0x00\n        /* \"#utility.yul\":2605:2607   */\n      0x20\n        /* \"#utility.yul\":2593:2602   */\n      dup3\n        /* \"#utility.yul\":2584:2591   */\n      dup5\n        /* \"#utility.yul\":2580:2603   */\n      sub\n        /* \"#utility.yul\":2576:2608   */\n      slt\n        /* \"#utility.yul\":2573:2692   */\n      iszero\n      tag_121\n      jumpi\n        /* \"#utility.yul\":2611:2690   */\n      tag_122\n      tag_76\n      jump\t// in\n    tag_122:\n        /* \"#utility.yul\":2573:2692   */\n    tag_121:\n        /* \"#utility.yul\":2731:2732   */\n      0x00\n        /* \"#utility.yul\":2756:2809   */\n      tag_123\n        /* \"#utility.yul\":2801:2808   */\n      dup5\n        /* \"#utility.yul\":2792:2798   */\n      dup3\n        /* \"#utility.yul\":2781:2790   */\n      dup6\n        /* \"#utility.yul\":2777:2799   */\n      add\n        /* \"#utility.yul\":2756:2809   */\n      tag_79\n      jump\t// in\n    tag_123:\n        /* \"#utility.yul\":2746:2809   */\n      swap2\n      pop\n        /* \"#utility.yul\":2702:2819   */\n      pop\n        /* \"#utility.yul\":2497:2826   */\n      swap3\n      swap2\n      pop\n      pop\n      jump\t// out\n        /* \"#utility.yul\":2832:3042   */\n    tag_45:\n        /* \"#utility.yul\":2919:2923   */\n      0x00\n        /* \"#utility.yul\":2957:2959   */\n      0x20\n        /* \"#utility.yul\":2946:2955   */\n      dup3\n        /* \"#utility.yul\":2942:2960   */\n      add\n        /* \"#utility.yul\":2934:2960   */\n      swap1\n      pop\n        /* \"#utility.yul\":2970:3035   */\n      tag_125\n        /* \"#utility.yul\":3032:3033   */\n      0x00\n        /* \"#utility.yul\":3021:3030   */\n      dup4\n        /* \"#utility.yul\":3017:3034   */\n      add\n        /* \"#utility.yul\":3008:3014   */\n      dup5\n        /* \"#utility.yul\":2970:3035   */\n      tag_74\n      jump\t// in\n    tag_125:\n        /* \"#utility.yul\":2832:3042   */\n      swap3\n      swap2\n      pop\n      pop\n      jump\t// out\n        /* \"#utility.yul\":3048:3217   */\n    tag_80:\n        /* \"#utility.yul\":3132:3143   */\n      0x00\n        /* \"#utility.yul\":3166:3172   */\n      dup3\n        /* \"#utility.yul\":3161:3164   */\n      dup3\n        /* \"#utility.yul\":3154:3173   */\n      mstore\n        /* \"#utility.yul\":3206:3210   */\n      0x20\n        /* \"#utility.yul\":3201:3204   */\n      dup3\n        /* \"#utility.yul\":3197:3211   */\n      add\n        /* \"#utility.yul\":3182:3211   */\n      swap1\n      pop\n        /* \"#utility.yul\":3048:3217   */\n      swap3\n      swap2\n      pop\n      pop\n      jump\t// out\n        /* \"#utility.yul\":3223:3450   */\n    tag_81:\n        /* \"#utility.yul\":3363:3397   */\n      0x4f6e6c792074686520626f72726f7765722063616e2063616c6c207468697320\n        /* \"#utility.yul\":3359:3360   */\n      0x00\n        /* \"#utility.yul\":3351:3357   */\n      dup3\n        /* \"#utility.yul\":3347:3361   */\n      add\n        /* \"#utility.yul\":3340:3398   */\n      mstore\n        /* \"#utility.yul\":3432:3442   */\n      0x66756e6374696f6e000000000000000000000000000000000000000000000000\n        /* \"#utility.yul\":3427:3429   */\n      0x20\n        /* \"#utility.yul\":3419:3425   */\n      dup3\n        /* \"#utility.yul\":3415:3430   */\n      add\n        /* \"#utility.yul\":3408:3443   */\n      mstore\n        /* \"#utility.yul\":3223:3450   */\n      pop\n      jump\t// out\n        /* \"#utility.yul\":3456:3822   */\n    tag_82:\n        /* \"#utility.yul\":3598:3601   */\n      0x00\n        /* \"#utility.yul\":3619:3686   */\n      tag_129\n        /* \"#utility.yul\":3683:3685   */\n      0x28\n        /* \"#utility.yul\":3678:3681   */\n      dup4\n        /* \"#utility.yul\":3619:3686   */\n      tag_80\n      jump\t// in\n    tag_129:\n        /* \"#utility.yul\":3612:3686   */\n      swap2\n      pop\n        /* \"#utility.yul\":3695:3788   */\n      tag_130\n        /* \"#utility.yul\":3784:3787   */\n      dup3\n        /* \"#utility.yul\":3695:3788   */\n      tag_81\n      jump\t// in\n    tag_130:\n        /* \"#utility.yul\":3813:3815   */\n      0x40\n        /* \"#utility.yul\":3808:3811   */\n      dup3\n        /* \"#utility.yul\":3804:3816   */\n      add\n        /* \"#utility.yul\":3797:3816   */\n      swap1\n      pop\n        /* \"#utility.yul\":3456:3822   */\n      swap2\n      swap1\n      pop\n      jump\t// out\n        /* \"#utility.yul\":3828:4247   */\n    tag_50:\n        /* \"#utility.yul\":3994:3998   */\n      0x00\n        /* \"#utility.yul\":4032:4034   */\n      0x20\n        /* \"#utility.yul\":4021:4030   */\n      dup3\n        /* \"#utility.yul\":4017:4035   */\n      add\n        /* \"#utility.yul\":4009:4035   */\n      swap1\n      pop\n        /* \"#utility.yul\":4081:4090   */\n      dup2\n        /* \"#utility.yul\":4075:4079   */\n      dup2\n        /* \"#utility.yul\":4071:4091   */\n      sub\n        /* \"#utility.yul\":4067:4068   */\n      0x00\n        /* \"#utility.yul\":4056:4065   */\n      dup4\n        /* \"#utility.yul\":4052:4069   */\n      add\n        /* \"#utility.yul\":4045:4092   */\n      mstore\n        /* \"#utility.yul\":4109:4240   */\n      tag_132\n        /* \"#utility.yul\":4235:4239   */\n      dup2\n        /* \"#utility.yul\":4109:4240   */\n      tag_82\n      jump\t// in\n    tag_132:\n        /* \"#utility.yul\":4101:4240   */\n      swap1\n      pop\n        /* \"#utility.yul\":3828:4247   */\n      swap2\n      swap1\n      pop\n      jump\t// out\n        /* \"#utility.yul\":4253:4431   */\n    tag_83:\n        /* \"#utility.yul\":4393:4423   */\n      0x4c6f616e2068617320616c7265616479206265656e2072657061696400000000\n        /* \"#utility.yul\":4389:4390   */\n      0x00\n        /* \"#utility.yul\":4381:4387   */\n      dup3\n        /* \"#utility.yul\":4377:4391   */\n      add\n        /* \"#utility.yul\":4370:4424   */\n      mstore\n        /* \"#utility.yul\":4253:4431   */\n      pop\n      jump\t// out\n        /* \"#utility.yul\":4437:4803   */\n    tag_84:\n        /* \"#utility.yul\":4579:4582   */\n      0x00\n        /* \"#utility.yul\":4600:4667   */\n      tag_135\n        /* \"#utility.yul\":4664:4666   */\n      0x1c\n        /* \"#utility.yul\":4659:4662   */\n      dup4\n        /* \"#utility.yul\":4600:4667   */\n      tag_80\n      jump\t// in\n    tag_135:\n        /* \"#utility.yul\":4593:4667   */\n      swap2\n      pop\n        /* \"#utility.yul\":4676:4769   */\n      tag_136\n        /* \"#utility.yul\":4765:4768   */\n      dup3\n        /* \"#utility.yul\":4676:4769   */\n      tag_83\n      jump\t// in\n    tag_136:\n        /* \"#utility.yul\":4794:4796   */\n      0x20\n        /* \"#utility.yul\":4789:4792   */\n      dup3\n        /* \"#utility.yul\":4785:4797   */\n      add\n        /* \"#utility.yul\":4778:4797   */\n      swap1\n      pop\n        /* \"#utility.yul\":4437:4803   */\n      swap2\n      swap1\n      pop\n      jump\t// out\n        /* \"#utility.yul\":4809:5228   */\n    tag_54:\n        /* \"#utility.yul\":4975:4979   */\n      0x00\n        /* \"#utility.yul\":5013:5015   */\n      0x20\n        /* \"#utility.yul\":5002:5011   */\n      dup3\n        /* \"#utility.yul\":4998:5016   */\n      add\n        /* \"#utility.yul\":4990:5016   */\n      swap1\n      pop\n        /* \"#utility.yul\":5062:5071   */\n      dup2\n        /* \"#utility.yul\":5056:5060   */\n      dup2\n        /* \"#utility.yul\":5052:5072   */\n      sub\n        /* \"#utility.yul\":5048:5049   */\n      0x00\n        /* \"#utility.yul\":5037:5046   */\n      dup4\n        /* \"#utility.yul\":5033:5050   */\n      add\n        /* \"#utility.yul\":5026:5073   */\n      mstore\n        /* \"#utility.yul\":5090:5221   */\n      tag_138\n        /* \"#utility.yul\":5216:5220   */\n      dup2\n        /* \"#utility.yul\":5090:5221   */\n      tag_84\n      jump\t// in\n    tag_138:\n        /* \"#utility.yul\":5082:5221   */\n      swap1\n      pop\n        /* \"#utility.yul\":4809:5228   */\n      swap2\n      swap1\n      pop\n      jump\t// out\n        /* \"#utility.yul\":5234:5460   */\n    tag_85:\n        /* \"#utility.yul\":5374:5408   */\n      0x52657061796d656e7420616d6f756e74206d7573742062652067726561746572\n        /* \"#utility.yul\":5370:5371   */\n      0x00\n        /* \"#utility.yul\":5362:5368   */\n      dup3\n        /* \"#utility.yul\":5358:5372   */\n      add\n        /* \"#utility.yul\":5351:5409   */\n      mstore\n        /* \"#utility.yul\":5443:5452   */\n      0x207468616e203000000000000000000000000000000000000000000000000000\n        /* \"#utility.yul\":5438:5440   */\n      0x20\n        /* \"#utility.yul\":5430:5436   */\n      dup3\n        /* \"#utility.yul\":5426:5441   */\n      add\n        /* \"#utility.yul\":5419:5453   */\n      mstore\n        /* \"#utility.yul\":5234:5460   */\n      pop\n      jump\t// out\n        /* \"#utility.yul\":5466:5832   */\n    tag_86:\n        /* \"#utility.yul\":5608:5611   */\n      0x00\n        /* \"#utility.yul\":5629:5696   */\n      tag_141\n        /* \"#utility.yul\":5693:5695   */\n      0x27\n        /* \"#utility.yul\":5688:5691   */\n      dup4\n        /* \"#utility.yul\":5629:5696   */\n      tag_80\n      jump\t// in\n    tag_141:\n        /* \"#utility.yul\":5622:5696   */\n      swap2\n      pop\n        /* \"#utility.yul\":5705:5798   */\n      tag_142\n        /* \"#utility.yul\":5794:5797   */\n      dup3\n        /* \"#utility.yul\":5705:5798   */\n      tag_85\n      jump\t// in\n    tag_142:\n        /* \"#utility.yul\":5823:5825   */\n      0x40\n        /* \"#utility.yul\":5818:5821   */\n      dup3\n        /* \"#utility.yul\":5814:5826   */\n      add\n        /* \"#utility.yul\":5807:5826   */\n      swap1\n      pop\n        /* \"#utility.yul\":5466:5832   */\n      swap2\n      swap1\n      pop\n      jump\t// out\n        /* \"#utility.yul\":5838:6257   */\n    tag_58:\n        /* \"#utility.yul\":6004:6008   */\n      0x00\n        /* \"#utility.yul\":6042:6044   */\n      0x20\n        /* \"#utility.yul\":6031:6040   */\n      dup3\n        /* \"#utility.yul\":6027:6045   */\n      add\n        /* \"#utility.yul\":6019:6045   */\n      swap1\n      pop\n        /* \"#utility.yul\":6091:6100   */\n      dup2\n        /* \"#utility.yul\":6085:6089   */\n      dup2\n        /* \"#utility.yul\":6081:6101   */\n      sub\n        /* \"#utility.yul\":6077:6078   */\n      0x00\n        /* \"#utility.yul\":6066:6075   */\n      dup4\n        /* \"#utility.yul\":6062:6079   */\n      add\n        /* \"#utility.yul\":6055:6102   */\n      mstore\n        /* \"#utility.yul\":6119:6250   */\n      tag_144\n        /* \"#utility.yul\":6245:6249   */\n      dup2\n        /* \"#utility.yul\":6119:6250   */\n      tag_86\n      jump\t// in\n    tag_144:\n        /* \"#utility.yul\":6111:6250   */\n      swap1\n      pop\n        /* \"#utility.yul\":5838:6257   */\n      swap2\n      swap1\n      pop\n      jump\t// out\n        /* \"#utility.yul\":6263:6484   */\n    tag_87:\n        /* \"#utility.yul\":6403:6437   */\n      0x416d6f756e7420657863656564732072656d61696e696e672072657061796d65\n        /* \"#utility.yul\":6399:6400   */\n      0x00\n        /* \"#utility.yul\":6391:6397   */\n      dup3\n        /* \"#utility.yul\":6387:6401   */\n      add\n        /* \"#utility.yul\":6380:6438   */\n      mstore\n        /* \"#utility.yul\":6472:6476   */\n      0x6e74000000000000000000000000000000000000000000000000000000000000\n        /* \"#utility.yul\":6467:6469   */\n      0x20\n        /* \"#utility.yul\":6459:6465   */\n      dup3\n        /* \"#utility.yul\":6455:6470   */\n      add\n        /* \"#utility.yul\":6448:6477   */\n      mstore\n        /* \"#utility.yul\":6263:6484   */\n      pop\n      jump\t// out\n        /* \"#utility.yul\":6490:6856   */\n    tag_88:\n        /* \"#utility.yul\":6632:6635   */\n      0x00\n        /* \"#utility.yul\":6653:6720   */\n      tag_147\n        /* \"#utility.yul\":6717:6719   */\n      0x22\n        /* \"#utility.yul\":6712:6715   */\n      dup4\n        /* \"#utility.yul\":6653:6720   */\n      tag_80\n      jump\t// in\n    tag_147:\n        /* \"#utility.yul\":6646:6720   */\n      swap2\n      pop\n        /* \"#utility.yul\":6729:6822   */\n      tag_148\n        /* \"#utility.yul\":6818:6821   */\n      dup3\n        /* \"#utility.yul\":6729:6822   */\n      tag_87\n      jump\t// in\n    tag_148:\n        /* \"#utility.yul\":6847:6849   */\n      0x40\n        /* \"#utility.yul\":6842:6845   */\n      dup3\n        /* \"#utility.yul\":6838:6850   */\n      add\n        /* \"#utility.yul\":6831:6850   */\n      swap1\n      pop\n        /* \"#utility.yul\":6490:6856   */\n      swap2\n      swap1\n      pop\n      jump\t// out\n        /* \"#utility.yul\":6862:7281   */\n    tag_61:\n        /* \"#utility.yul\":7028:7032   */\n      0x00\n        /* \"#utility.yul\":7066:7068   */\n      0x20\n        /* \"#utility.yul\":7055:7064   */\n      dup3\n        /* \"#utility.yul\":7051:7069   */\n      add\n        /* \"#utility.yul\":7043:7069   */\n      swap1\n      pop\n        /* \"#utility.yul\":7115:7124   */\n      dup2\n        /* \"#utility.yul\":7109:7113   */\n      dup2\n        /* \"#utility.yul\":7105:7125   */\n      sub\n        /* \"#utility.yul\":7101:7102   */\n      0x00\n        /* \"#utility.yul\":7090:7099   */\n      dup4\n        /* \"#utility.yul\":7086:7103   */\n      add\n        /* \"#utility.yul\":7079:7126   */\n      mstore\n        /* \"#utility.yul\":7143:7274   */\n      tag_150\n        /* \"#utility.yul\":7269:7273   */\n      dup2\n        /* \"#utility.yul\":7143:7274   */\n      tag_88\n      jump\t// in\n    tag_150:\n        /* \"#utility.yul\":7135:7274   */\n      swap1\n      pop\n        /* \"#utility.yul\":6862:7281   */\n      swap2\n      swap1\n      pop\n      jump\t// out\n        /* \"#utility.yul\":7287:7467   */\n    tag_89:\n        /* \"#utility.yul\":7335:7412   */\n      0x4e487b7100000000000000000000000000000000000000000000000000000000\n        /* \"#utility.yul\":7332:7333   */\n      0x00\n        /* \"#utility.yul\":7325:7413   */\n      mstore\n        /* \"#utility.yul\":7432:7436   */\n      0x11\n        /* \"#utility.yul\":7429:7430   */\n      0x04\n        /* \"#utility.yul\":7422:7437   */\n      mstore\n        /* \"#utility.yul\":7456:7460   */\n      0x24\n        /* \"#utility.yul\":7453:7454   */\n      0x00\n        /* \"#utility.yul\":7446:7461   */\n      revert\n        /* \"#utility.yul\":7473:7667   */\n    tag_63:\n        /* \"#utility.yul\":7513:7517   */\n      0x00\n        /* \"#utility.yul\":7533:7553   */\n      tag_153\n        /* \"#utility.yul\":7551:7552   */\n      dup3\n        /* \"#utility.yul\":7533:7553   */\n      tag_68\n      jump\t// in\n    tag_153:\n        /* \"#utility.yul\":7528:7553   */\n      swap2\n      pop\n        /* \"#utility.yul\":7567:7587   */\n      tag_154\n        /* \"#utility.yul\":7585:7586   */\n      dup4\n        /* \"#utility.yul\":7567:7587   */\n      tag_68\n      jump\t// in\n    tag_154:\n        /* \"#utility.yul\":7562:7587   */\n      swap3\n      pop\n        /* \"#utility.yul\":7611:7612   */\n      dup3\n        /* \"#utility.yul\":7608:7609   */\n      dup3\n        /* \"#utility.yul\":7604:7613   */\n      sub\n        /* \"#utility.yul\":7596:7613   */\n      swap1\n      pop\n        /* \"#utility.yul\":7635:7636   */\n      dup2\n        /* \"#utility.yul\":7629:7633   */\n      dup2\n        /* \"#utility.yul\":7626:7637   */\n      gt\n        /* \"#utility.yul\":7623:7660   */\n      iszero\n      tag_155\n      jumpi\n        /* \"#utility.yul\":7640:7658   */\n      tag_156\n      tag_89\n      jump\t// in\n    tag_156:\n        /* \"#utility.yul\":7623:7660   */\n    tag_155:\n        /* \"#utility.yul\":7473:7667   */\n      swap3\n      swap2\n      pop\n      pop\n      jump\t// out\n\n    auxdata: 0xa2646970667358221220f76897a52c33edb7e4778644524432a906fa34de181cd4d16d2ce00ab46ad40164736f6c63430008160033\n}\n",
				"bytecode": {
					"linkReferences": {},
					"object": "608060405234801561000f575f80fd5b50335f806101000a81548173ffffffffffffffffffffffffffffffffffffffff021916908373ffffffffffffffffffffffffffffffffffffffff160217905550673782dace9d90000060018190555060c86002819055506002546003819055505f60045f6101000a81548160ff0219169083151502179055506108c3806100955f395ff3fe608060405260043610610073575f3560e01c806392d09ceb1161004d57806392d09ceb146101375780639d585f7f14610161578063ab7b1c891461018b578063bff1d2e3146101a7576100b1565b80630202aa2c146100b55780633b7104f2146100df5780637df1f1b91461010d576100b1565b366100b1577fb8f6415486af1418f9963a58250d573c41bc7b087e7f76fdeaff13c83525e407346040516100a791906104bd565b60405180910390a1005b5f80fd5b3480156100c0575f80fd5b506100c96101d1565b6040516100d691906104bd565b60405180910390f35b3480156100ea575f80fd5b506100f36101d7565b60405161010495949392919061052f565b60405180910390f35b348015610118575f80fd5b50610121610226565b60405161012e9190610580565b60405180910390f35b348015610142575f80fd5b5061014b610249565b60405161015891906104bd565b60405180910390f35b34801561016c575f80fd5b5061017561024f565b60405161018291906104bd565b60405180910390f35b6101a560048036038101906101a091906105c7565b610255565b005b3480156101b2575f80fd5b506101bb610493565b6040516101c891906105f2565b60405180910390f35b60035481565b5f805f805f805f9054906101000a900473ffffffffffffffffffffffffffffffffffffffff1660015460025460035460045f9054906101000a900460ff16945094509450945094509091929394565b5f8054906101000a900473ffffffffffffffffffffffffffffffffffffffff1681565b60015481565b60025481565b5f8054906101000a900473ffffffffffffffffffffffffffffffffffffffff1673ffffffffffffffffffffffffffffffffffffffff163373ffffffffffffffffffffffffffffffffffffffff16146102e2576040517f08c379a00000000000000000000000000000000000000000000000000000000081526004016102d99061068b565b60405180910390fd5b60045f9054906101000a900460ff1615610331576040517f08c379a0000000000000000000000000000000000000000000000000000000008152600401610328906106f3565b60405180910390fd5b5f8111610373576040517f08c379a000000000000000000000000000000000000000000000000000000000815260040161036a90610781565b60405180910390fd5b6003548111156103b8576040517f08c379a00000000000000000000000000000000000000000000000000000000081526004016103af9061080f565b60405180910390fd5b8060035f8282546103c9919061085a565b925050819055505f6003540361045957600160045f6101000a81548160ff0219169083151502179055505f8054906101000a900473ffffffffffffffffffffffffffffffffffffffff1673ffffffffffffffffffffffffffffffffffffffff166108fc60015490811502906040515f60405180830381858888f19350505050158015610457573d5f803e3d5ffd5b505b7f9a7851747cd7ffb3fe0a32caf3da48b31f27cebe131267051640f8b72fc471868160405161048891906104bd565b60405180910390a150565b60045f9054906101000a900460ff1681565b5f819050919050565b6104b7816104a5565b82525050565b5f6020820190506104d05f8301846104ae565b92915050565b5f73ffffffffffffffffffffffffffffffffffffffff82169050919050565b5f6104ff826104d6565b9050919050565b61050f816104f5565b82525050565b5f8115159050919050565b61052981610515565b82525050565b5f60a0820190506105425f830188610506565b61054f60208301876104ae565b61055c60408301866104ae565b61056960608301856104ae565b6105766080830184610520565b9695505050505050565b5f6020820190506105935f830184610506565b92915050565b5f80fd5b6105a6816104a5565b81146105b0575f80fd5b50565b5f813590506105c18161059d565b92915050565b5f602082840312156105dc576105db610599565b5b5f6105e9848285016105b3565b91505092915050565b5f6020820190506106055f830184610520565b92915050565b5f82825260208201905092915050565b7f4f6e6c792074686520626f72726f7765722063616e2063616c6c2074686973205f8201527f66756e6374696f6e000000000000000000000000000000000000000000000000602082015250565b5f61067560288361060b565b91506106808261061b565b604082019050919050565b5f6020820190508181035f8301526106a281610669565b9050919050565b7f4c6f616e2068617320616c7265616479206265656e20726570616964000000005f82015250565b5f6106dd601c8361060b565b91506106e8826106a9565b602082019050919050565b5f6020820190508181035f83015261070a816106d1565b9050919050565b7f52657061796d656e7420616d6f756e74206d75737420626520677265617465725f8201527f207468616e203000000000000000000000000000000000000000000000000000602082015250565b5f61076b60278361060b565b915061077682610711565b604082019050919050565b5f6020820190508181035f8301526107988161075f565b9050919050565b7f416d6f756e7420657863656564732072656d61696e696e672072657061796d655f8201527f6e74000000000000000000000000000000000000000000000000000000000000602082015250565b5f6107f960228361060b565b91506108048261079f565b604082019050919050565b5f6020820190508181035f830152610826816107ed565b9050919050565b7f4e487b71000000000000000000000000000000000000000000000000000000005f52601160045260245ffd5b5f610864826104a5565b915061086f836104a5565b92508282039050818111156108875761088661082d565b5b9291505056fea2646970667358221220f76897a52c33edb7e4778644524432a906fa34de181cd4d16d2ce00ab46ad40164736f6c63430008160033",
					"opcodes": "PUSH1 0x80 PUSH1 0x40 MSTORE CALLVALUE DUP1 ISZERO PUSH2 0xF JUMPI PUSH0 DUP1 REVERT JUMPDEST POP CALLER PUSH0 DUP1 PUSH2 0x100 EXP DUP2 SLOAD DUP2 PUSH20 0xFFFFFFFFFFFFFFFFFFFFFFFFFFFFFFFFFFFFFFFF MUL NOT AND SWAP1 DUP4 PUSH20 0xFFFFFFFFFFFFFFFFFFFFFFFFFFFFFFFFFFFFFFFF AND MUL OR SWAP1 SSTORE POP PUSH8 0x3782DACE9D900000 PUSH1 0x1 DUP2 SWAP1 SSTORE POP PUSH1 0xC8 PUSH1 0x2 DUP2 SWAP1 SSTORE POP PUSH1 0x2 SLOAD PUSH1 0x3 DUP2 SWAP1 SSTORE POP PUSH0 PUSH1 0x4 PUSH0 PUSH2 0x100 EXP DUP2 SLOAD DUP2 PUSH1 0xFF MUL NOT AND SWAP1 DUP4 ISZERO ISZERO MUL OR SWAP1 SSTORE POP PUSH2 0x8C3 DUP1 PUSH2 0x95 PUSH0 CODECOPY PUSH0 RETURN INVALID PUSH1 0x80 PUSH1 0x40 MSTORE PUSH1 0x4 CALLDATASIZE LT PUSH2 0x73 JUMPI PUSH0 CALLDATALOAD PUSH1 0xE0 SHR DUP1 PUSH4 0x92D09CEB GT PUSH2 0x4D JUMPI DUP1 PUSH4 0x92D09CEB EQ PUSH2 0x137 JUMPI DUP1 PUSH4 0x9D585F7F EQ PUSH2 0x161 JUMPI DUP1 PUSH4 0xAB7B1C89 EQ PUSH2 0x18B JUMPI DUP1 PUSH4 0xBFF1D2E3 EQ PUSH2 0x1A7 JUMPI PUSH2 0xB1 JUMP JUMPDEST DUP1 PUSH4 0x202AA2C EQ PUSH2 0xB5 JUMPI DUP1 PUSH4 0x3B7104F2 EQ PUSH2 0xDF JUMPI DUP1 PUSH4 0x7DF1F1B9 EQ PUSH2 0x10D JUMPI PUSH2 0xB1 JUMP JUMPDEST CALLDATASIZE PUSH2 0xB1 JUMPI PUSH32 0xB8F6415486AF1418F9963A58250D573C41BC7B087E7F76FDEAFF13C83525E407 CALLVALUE PUSH1 0x40 MLOAD PUSH2 0xA7 SWAP2 SWAP1 PUSH2 0x4BD JUMP JUMPDEST PUSH1 0x40 MLOAD DUP1 SWAP2 SUB SWAP1 LOG1 STOP JUMPDEST PUSH0 DUP1 REVERT JUMPDEST CALLVALUE DUP1 ISZERO PUSH2 0xC0 JUMPI PUSH0 DUP1 REVERT JUMPDEST POP PUSH2 0xC9 PUSH2 0x1D1 JUMP JUMPDEST PUSH1 0x40 MLOAD PUSH2 0xD6 SWAP2 SWAP1 PUSH2 0x4BD JUMP JUMPDEST PUSH1 0x40 MLOAD DUP1 SWAP2 SUB SWAP1 RETURN JUMPDEST CALLVALUE DUP1 ISZERO PUSH2 0xEA JUMPI PUSH0 DUP1 REVERT JUMPDEST POP PUSH2 0xF3 PUSH2 0x1D7 JUMP JUMPDEST PUSH1 0x40 MLOAD PUSH2 0x104 SWAP6 SWAP5 SWAP4 SWAP3 SWAP2 SWAP1 PUSH2 0x52F JUMP JUMPDEST PUSH1 0x40 MLOAD DUP1 SWAP2 SUB SWAP1 RETURN JUMPDEST CALLVALUE DUP1 ISZERO PUSH2 0x118 JUMPI PUSH0 DUP1 REVERT JUMPDEST POP PUSH2 0x121 PUSH2 0x226 JUMP JUMPDEST PUSH1 0x40 MLOAD PUSH2 0x12E SWAP2 SWAP1 PUSH2 0x580 JUMP JUMPDEST PUSH1 0x40 MLOAD DUP1 SWAP2 SUB SWAP1 RETURN JUMPDEST CALLVALUE DUP1 ISZERO PUSH2 0x142 JUMPI PUSH0 DUP1 REVERT JUMPDEST POP PUSH2 0x14B PUSH2 0x249 JUMP JUMPDEST PUSH1 0x40 MLOAD PUSH2 0x158 SWAP2 SWAP1 PUSH2 0x4BD JUMP JUMPDEST PUSH1 0x40 MLOAD DUP1 SWAP2 SUB SWAP1 RETURN JUMPDEST CALLVALUE DUP1 ISZERO PUSH2 0x16C JUMPI PUSH0 DUP1 REVERT JUMPDEST POP PUSH2 0x175 PUSH2 0x24F JUMP JUMPDEST PUSH1 0x40 MLOAD PUSH2 0x182 SWAP2 SWAP1 PUSH2 0x4BD JUMP JUMPDEST PUSH1 0x40 MLOAD DUP1 SWAP2 SUB SWAP1 RETURN JUMPDEST PUSH2 0x1A5 PUSH1 0x4 DUP1 CALLDATASIZE SUB DUP2 ADD SWAP1 PUSH2 0x1A0 SWAP2 SWAP1 PUSH2 0x5C7 JUMP JUMPDEST PUSH2 0x255 JUMP JUMPDEST STOP JUMPDEST CALLVALUE DUP1 ISZERO PUSH2 0x1B2 JUMPI PUSH0 DUP1 REVERT JUMPDEST POP PUSH2 0x1BB PUSH2 0x493 JUMP JUMPDEST PUSH1 0x40 MLOAD PUSH2 0x1C8 SWAP2 SWAP1 PUSH2 0x5F2 JUMP JUMPDEST PUSH1 0x40 MLOAD DUP1 SWAP2 SUB SWAP1 RETURN JUMPDEST PUSH1 0x3 SLOAD DUP2 JUMP JUMPDEST PUSH0 DUP1 PUSH0 DUP1 PUSH0 DUP1 PUSH0 SWAP1 SLOAD SWAP1 PUSH2 0x100 EXP SWAP1 DIV PUSH20 0xFFFFFFFFFFFFFFFFFFFFFFFFFFFFFFFFFFFFFFFF AND PUSH1 0x1 SLOAD PUSH1 0x2 SLOAD PUSH1 0x3 SLOAD PUSH1 0x4 PUSH0 SWAP1 SLOAD SWAP1 PUSH2 0x100 EXP SWAP1 DIV PUSH1 0xFF AND SWAP5 POP SWAP5 POP SWAP5 POP SWAP5 POP SWAP5 POP SWAP1 SWAP2 SWAP3 SWAP4 SWAP5 JUMP JUMPDEST PUSH0 DUP1 SLOAD SWAP1 PUSH2 0x100 EXP SWAP1 DIV PUSH20 0xFFFFFFFFFFFFFFFFFFFFFFFFFFFFFFFFFFFFFFFF AND DUP2 JUMP JUMPDEST PUSH1 0x1 SLOAD DUP2 JUMP JUMPDEST PUSH1 0x2 SLOAD DUP2 JUMP JUMPDEST PUSH0 DUP1 SLOAD SWAP1 PUSH2 0x100 EXP SWAP1 DIV PUSH20 0xFFFFFFFFFFFFFFFFFFFFFFFFFFFFFFFFFFFFFFFF AND PUSH20 0xFFFFFFFFFFFFFFFFFFFFFFFFFFFFFFFFFFFFFFFF AND CALLER PUSH20 0xFFFFFFFFFFFFFFFFFFFFFFFFFFFFFFFFFFFFFFFF AND EQ PUSH2 0x2E2 JUMPI PUSH1 0x40 MLOAD PUSH32 0x8C379A000000000000000000000000000000000000000000000000000000000 DUP2 MSTORE PUSH1 0x4 ADD PUSH2 0x2D9 SWAP1 PUSH2 0x68B JUMP JUMPDEST PUSH1 0x40 MLOAD DUP1 SWAP2 SUB SWAP1 REVERT JUMPDEST PUSH1 0x4 PUSH0 SWAP1 SLOAD SWAP1 PUSH2 0x100 EXP SWAP1 DIV PUSH1 0xFF AND ISZERO PUSH2 0x331 JUMPI PUSH1 0x40 MLOAD PUSH32 0x8C379A000000000000000000000000000000000000000000000000000000000 DUP2 MSTORE PUSH1 0x4 ADD PUSH2 0x328 SWAP1 PUSH2 0x6F3 JUMP JUMPDEST PUSH1 0x40 MLOAD DUP1 SWAP2 SUB SWAP1 REVERT JUMPDEST PUSH0 DUP2 GT PUSH2 0x373 JUMPI PUSH1 0x40 MLOAD PUSH32 0x8C379A000000000000000000000000000000000000000000000000000000000 DUP2 MSTORE PUSH1 0x4 ADD PUSH2 0x36A SWAP1 PUSH2 0x781 JUMP JUMPDEST PUSH1 0x40 MLOAD DUP1 SWAP2 SUB SWAP1 REVERT JUMPDEST PUSH1 0x3 SLOAD DUP2 GT ISZERO PUSH2 0x3B8 JUMPI PUSH1 0x40 MLOAD PUSH32 0x8C379A000000000000000000000000000000000000000000000000000000000 DUP2 MSTORE PUSH1 0x4 ADD PUSH2 0x3AF SWAP1 PUSH2 0x80F JUMP JUMPDEST PUSH1 0x40 MLOAD DUP1 SWAP2 SUB SWAP1 REVERT JUMPDEST DUP1 PUSH1 0x3 PUSH0 DUP3 DUP3 SLOAD PUSH2 0x3C9 SWAP2 SWAP1 PUSH2 0x85A JUMP JUMPDEST SWAP3 POP POP DUP2 SWAP1 SSTORE POP PUSH0 PUSH1 0x3 SLOAD SUB PUSH2 0x459 JUMPI PUSH1 0x1 PUSH1 0x4 PUSH0 PUSH2 0x100 EXP DUP2 SLOAD DUP2 PUSH1 0xFF MUL NOT AND SWAP1 DUP4 ISZERO ISZERO MUL OR SWAP1 SSTORE POP PUSH0 DUP1 SLOAD SWAP1 PUSH2 0x100 EXP SWAP1 DIV PUSH20 0xFFFFFFFFFFFFFFFFFFFFFFFFFFFFFFFFFFFFFFFF AND PUSH20 0xFFFFFFFFFFFFFFFFFFFFFFFFFFFFFFFFFFFFFFFF AND PUSH2 0x8FC PUSH1 0x1 SLOAD SWAP1 DUP2 ISZERO MUL SWAP1 PUSH1 0x40 MLOAD PUSH0 PUSH1 0x40 MLOAD DUP1 DUP4 SUB DUP2 DUP6 DUP9 DUP9 CALL SWAP4 POP POP POP POP ISZERO DUP1 ISZERO PUSH2 0x457 JUMPI RETURNDATASIZE PUSH0 DUP1 RETURNDATACOPY RETURNDATASIZE PUSH0 REVERT JUMPDEST POP JUMPDEST PUSH32 0x9A7851747CD7FFB3FE0A32CAF3DA48B31F27CEBE131267051640F8B72FC47186 DUP2 PUSH1 0x40 MLOAD PUSH2 0x488 SWAP2 SWAP1 PUSH2 0x4BD JUMP JUMPDEST PUSH1 0x40 MLOAD DUP1 SWAP2 SUB SWAP1 LOG1 POP JUMP JUMPDEST PUSH1 0x4 PUSH0 SWAP1 SLOAD SWAP1 PUSH2 0x100 EXP SWAP1 DIV PUSH1 0xFF AND DUP2 JUMP JUMPDEST PUSH0 DUP2 SWAP1 POP SWAP2 SWAP1 POP JUMP JUMPDEST PUSH2 0x4B7 DUP2 PUSH2 0x4A5 JUMP JUMPDEST DUP3 MSTORE POP POP JUMP JUMPDEST PUSH0 PUSH1 0x20 DUP3 ADD SWAP1 POP PUSH2 0x4D0 PUSH0 DUP4 ADD DUP5 PUSH2 0x4AE JUMP JUMPDEST SWAP3 SWAP2 POP POP JUMP JUMPDEST PUSH0 PUSH20 0xFFFFFFFFFFFFFFFFFFFFFFFFFFFFFFFFFFFFFFFF DUP3 AND SWAP1 POP SWAP2 SWAP1 POP JUMP JUMPDEST PUSH0 PUSH2 0x4FF DUP3 PUSH2 0x4D6 JUMP JUMPDEST SWAP1 POP SWAP2 SWAP1 POP JUMP JUMPDEST PUSH2 0x50F DUP2 PUSH2 0x4F5 JUMP JUMPDEST DUP3 MSTORE POP POP JUMP JUMPDEST PUSH0 DUP2 ISZERO ISZERO SWAP1 POP SWAP2 SWAP1 POP JUMP JUMPDEST PUSH2 0x529 DUP2 PUSH2 0x515 JUMP JUMPDEST DUP3 MSTORE POP POP JUMP JUMPDEST PUSH0 PUSH1 0xA0 DUP3 ADD SWAP1 POP PUSH2 0x542 PUSH0 DUP4 ADD DUP9 PUSH2 0x506 JUMP JUMPDEST PUSH2 0x54F PUSH1 0x20 DUP4 ADD DUP8 PUSH2 0x4AE JUMP JUMPDEST PUSH2 0x55C PUSH1 0x40 DUP4 ADD DUP7 PUSH2 0x4AE JUMP JUMPDEST PUSH2 0x569 PUSH1 0x60 DUP4 ADD DUP6 PUSH2 0x4AE JUMP JUMPDEST PUSH2 0x576 PUSH1 0x80 DUP4 ADD DUP5 PUSH2 0x520 JUMP JUMPDEST SWAP7 SWAP6 POP POP POP POP POP POP JUMP JUMPDEST PUSH0 PUSH1 0x20 DUP3 ADD SWAP1 POP PUSH2 0x593 PUSH0 DUP4 ADD DUP5 PUSH2 0x506 JUMP JUMPDEST SWAP3 SWAP2 POP POP JUMP JUMPDEST PUSH0 DUP1 REVERT JUMPDEST PUSH2 0x5A6 DUP2 PUSH2 0x4A5 JUMP JUMPDEST DUP2 EQ PUSH2 0x5B0 JUMPI PUSH0 DUP1 REVERT JUMPDEST POP JUMP JUMPDEST PUSH0 DUP2 CALLDATALOAD SWAP1 POP PUSH2 0x5C1 DUP2 PUSH2 0x59D JUMP JUMPDEST SWAP3 SWAP2 POP POP JUMP JUMPDEST PUSH0 PUSH1 0x20 DUP3 DUP5 SUB SLT ISZERO PUSH2 0x5DC JUMPI PUSH2 0x5DB PUSH2 0x599 JUMP JUMPDEST JUMPDEST PUSH0 PUSH2 0x5E9 DUP5 DUP3 DUP6 ADD PUSH2 0x5B3 JUMP JUMPDEST SWAP2 POP POP SWAP3 SWAP2 POP POP JUMP JUMPDEST PUSH0 PUSH1 0x20 DUP3 ADD SWAP1 POP PUSH2 0x605 PUSH0 DUP4 ADD DUP5 PUSH2 0x520 JUMP JUMPDEST SWAP3 SWAP2 POP POP JUMP JUMPDEST PUSH0 DUP3 DUP3 MSTORE PUSH1 0x20 DUP3 ADD SWAP1 POP SWAP3 SWAP2 POP POP JUMP JUMPDEST PUSH32 0x4F6E6C792074686520626F72726F7765722063616E2063616C6C207468697320 PUSH0 DUP3 ADD MSTORE PUSH32 0x66756E6374696F6E000000000000000000000000000000000000000000000000 PUSH1 0x20 DUP3 ADD MSTORE POP JUMP JUMPDEST PUSH0 PUSH2 0x675 PUSH1 0x28 DUP4 PUSH2 0x60B JUMP JUMPDEST SWAP2 POP PUSH2 0x680 DUP3 PUSH2 0x61B JUMP JUMPDEST PUSH1 0x40 DUP3 ADD SWAP1 POP SWAP2 SWAP1 POP JUMP JUMPDEST PUSH0 PUSH1 0x20 DUP3 ADD SWAP1 POP DUP2 DUP2 SUB PUSH0 DUP4 ADD MSTORE PUSH2 0x6A2 DUP2 PUSH2 0x669 JUMP JUMPDEST SWAP1 POP SWAP2 SWAP1 POP JUMP JUMPDEST PUSH32 0x4C6F616E2068617320616C7265616479206265656E2072657061696400000000 PUSH0 DUP3 ADD MSTORE POP JUMP JUMPDEST PUSH0 PUSH2 0x6DD PUSH1 0x1C DUP4 PUSH2 0x60B JUMP JUMPDEST SWAP2 POP PUSH2 0x6E8 DUP3 PUSH2 0x6A9 JUMP JUMPDEST PUSH1 0x20 DUP3 ADD SWAP1 POP SWAP2 SWAP1 POP JUMP JUMPDEST PUSH0 PUSH1 0x20 DUP3 ADD SWAP1 POP DUP2 DUP2 SUB PUSH0 DUP4 ADD MSTORE PUSH2 0x70A DUP2 PUSH2 0x6D1 JUMP JUMPDEST SWAP1 POP SWAP2 SWAP1 POP JUMP JUMPDEST PUSH32 0x52657061796D656E7420616D6F756E74206D7573742062652067726561746572 PUSH0 DUP3 ADD MSTORE PUSH32 0x207468616E203000000000000000000000000000000000000000000000000000 PUSH1 0x20 DUP3 ADD MSTORE POP JUMP JUMPDEST PUSH0 PUSH2 0x76B PUSH1 0x27 DUP4 PUSH2 0x60B JUMP JUMPDEST SWAP2 POP PUSH2 0x776 DUP3 PUSH2 0x711 JUMP JUMPDEST PUSH1 0x40 DUP3 ADD SWAP1 POP SWAP2 SWAP1 POP JUMP JUMPDEST PUSH0 PUSH1 0x20 DUP3 ADD SWAP1 POP DUP2 DUP2 SUB PUSH0 DUP4 ADD MSTORE PUSH2 0x798 DUP2 PUSH2 0x75F JUMP JUMPDEST SWAP1 POP SWAP2 SWAP1 POP JUMP JUMPDEST PUSH32 0x416D6F756E7420657863656564732072656D61696E696E672072657061796D65 PUSH0 DUP3 ADD MSTORE PUSH32 0x6E74000000000000000000000000000000000000000000000000000000000000 PUSH1 0x20 DUP3 ADD MSTORE POP JUMP JUMPDEST PUSH0 PUSH2 0x7F9 PUSH1 0x22 DUP4 PUSH2 0x60B JUMP JUMPDEST SWAP2 POP PUSH2 0x804 DUP3 PUSH2 0x79F JUMP JUMPDEST PUSH1 0x40 DUP3 ADD SWAP1 POP SWAP2 SWAP1 POP JUMP JUMPDEST PUSH0 PUSH1 0x20 DUP3 ADD SWAP1 POP DUP2 DUP2 SUB PUSH0 DUP4 ADD MSTORE PUSH2 0x826 DUP2 PUSH2 0x7ED JUMP JUMPDEST SWAP1 POP SWAP2 SWAP1 POP JUMP JUMPDEST PUSH32 0x4E487B7100000000000000000000000000000000000000000000000000000000 PUSH0 MSTORE PUSH1 0x11 PUSH1 0x4 MSTORE PUSH1 0x24 PUSH0 REVERT JUMPDEST PUSH0 PUSH2 0x864 DUP3 PUSH2 0x4A5 JUMP JUMPDEST SWAP2 POP PUSH2 0x86F DUP4 PUSH2 0x4A5 JUMP JUMPDEST SWAP3 POP DUP3 DUP3 SUB SWAP1 POP DUP2 DUP2 GT ISZERO PUSH2 0x887 JUMPI PUSH2 0x886 PUSH2 0x82D JUMP JUMPDEST JUMPDEST SWAP3 SWAP2 POP POP JUMP INVALID LOG2 PUSH5 0x6970667358 0x22 SLT KECCAK256 0xF7 PUSH9 0x97A52C33EDB7E47786 PREVRANDAO MSTORE PREVRANDAO ORIGIN 0xA9 MOD STATICCALL CALLVALUE 0xDE XOR SHR 0xD4 0xD1 PUSH14 0x2CE00AB46AD40164736F6C634300 ADDMOD AND STOP CALLER "
				},
				"gasEstimates": {
					"creation": {
						"codeDepositCost": "448600",
						"executionCost": "117456",
						"totalCost": "566056"
					},
					"external": {
						"borrower()": "2550",
						"checkStatus()": "infinite",
						"collateralAmount()": "2425",
						"loanAmount()": "2447",
						"loanRepaid()": "2532",
						"remainingRepayment()": "2426",
						"repayLoan(uint256)": "infinite"
					}
				},
				"methodIdentifiers": {
					"borrower()": "7df1f1b9",
					"checkStatus()": "3b7104f2",
					"collateralAmount()": "92d09ceb",
					"loanAmount()": "9d585f7f",
					"loanRepaid()": "bff1d2e3",
					"remainingRepayment()": "0202aa2c",
					"repayLoan(uint256)": "ab7b1c89"
				}
			},
			"storageLayout": {
				"storage": [
					{
						"astId": 3,
						"contract": "contracts/Pawn.sol:Pawn",
						"label": "borrower",
						"offset": 0,
						"slot": "0",
						"type": "t_address"
					},
					{
						"astId": 5,
						"contract": "contracts/Pawn.sol:Pawn",
						"label": "collateralAmount",
						"offset": 0,
						"slot": "1",
						"type": "t_uint256"
					},
					{
						"astId": 7,
						"contract": "contracts/Pawn.sol:Pawn",
						"label": "loanAmount",
						"offset": 0,
						"slot": "2",
						"type": "t_uint256"
					},
					{
						"astId": 9,
						"contract": "contracts/Pawn.sol:Pawn",
						"label": "remainingRepayment",
						"offset": 0,
						"slot": "3",
						"type": "t_uint256"
					},
					{
						"astId": 11,
						"contract": "contracts/Pawn.sol:Pawn",
						"label": "loanRepaid",
						"offset": 0,
						"slot": "4",
						"type": "t_bool"
					}
				],
				"types": {
					"t_address": {
						"encoding": "inplace",
						"label": "address",
						"numberOfBytes": "20"
					},
					"t_bool": {
						"encoding": "inplace",
						"label": "bool",
						"numberOfBytes": "1"
					},
					"t_uint256": {
						"encoding": "inplace",
						"label": "uint256",
						"numberOfBytes": "32"
					}
				}
			},
			"userdoc": {
				"kind": "user",
				"methods": {},
				"version": 1
			}
		}
	}
}