{
	"contracts/Twiiter.sol": {
		"Twitter": {
			"abi": [
				{
					"inputs": [
						{
							"internalType": "string",
							"name": "text",
							"type": "string"
						}
					],
					"name": "createTweet",
					"outputs": [],
					"stateMutability": "nonpayable",
					"type": "function"
				},
				{
					"inputs": [
						{
							"internalType": "address",
							"name": "_owner",
							"type": "address"
						}
					],
					"name": "getAllTweets",
					"outputs": [
						{
							"components": [
								{
									"internalType": "address",
									"name": "author",
									"type": "address"
								},
								{
									"internalType": "string",
									"name": "content",
									"type": "string"
								},
								{
									"internalType": "uint256",
									"name": "timestamp",
									"type": "uint256"
								},
								{
									"internalType": "uint256",
									"name": "likes",
									"type": "uint256"
								}
							],
							"internalType": "struct Twitter.tweet[]",
							"name": "",
							"type": "tuple[]"
						}
					],
					"stateMutability": "view",
					"type": "function"
				},
				{
					"inputs": [
						{
							"internalType": "string",
							"name": "str",
							"type": "string"
						}
					],
					"name": "getLength",
					"outputs": [
						{
							"internalType": "uint256",
							"name": "",
							"type": "uint256"
						}
					],
					"stateMutability": "pure",
					"type": "function"
				},
				{
					"inputs": [
						{
							"internalType": "address",
							"name": "",
							"type": "address"
						},
						{
							"internalType": "uint256",
							"name": "",
							"type": "uint256"
						}
					],
					"name": "tweets",
					"outputs": [
						{
							"internalType": "address",
							"name": "author",
							"type": "address"
						},
						{
							"internalType": "string",
							"name": "content",
							"type": "string"
						},
						{
							"internalType": "uint256",
							"name": "timestamp",
							"type": "uint256"
						},
						{
							"internalType": "uint256",
							"name": "likes",
							"type": "uint256"
						}
					],
					"stateMutability": "view",
					"type": "function"
				}
			],
			"devdoc": {
				"kind": "dev",
				"methods": {},
				"version": 1
			},
			"evm": {
				"assembly": "    /* \"contracts/Twiiter.sol\":58:878  contract Twitter {... */\n  mstore(0x40, 0x80)\n  callvalue\n  dup1\n  iszero\n  tag_1\n  jumpi\n  0x00\n  dup1\n  revert\ntag_1:\n  pop\n  dataSize(sub_0)\n  dup1\n  dataOffset(sub_0)\n  0x00\n  codecopy\n  0x00\n  return\nstop\n\nsub_0: assembly {\n        /* \"contracts/Twiiter.sol\":58:878  contract Twitter {... */\n      mstore(0x40, 0x80)\n      callvalue\n      dup1\n      iszero\n      tag_1\n      jumpi\n      0x00\n      dup1\n      revert\n    tag_1:\n      pop\n      jumpi(tag_2, lt(calldatasize, 0x04))\n      shr(0xe0, calldataload(0x00))\n      dup1\n      0x05a1b4a9\n      eq\n      tag_3\n      jumpi\n      dup1\n      0x12e7ee1c\n      eq\n      tag_4\n      jumpi\n      dup1\n      0x6981b5f4\n      eq\n      tag_5\n      jumpi\n      dup1\n      0x7c9cd2bc\n      eq\n      tag_6\n      jumpi\n    tag_2:\n      0x00\n      dup1\n      revert\n        /* \"contracts/Twiiter.sol\":247:288  mapping(address => tweet[]) public tweets */\n    tag_3:\n      tag_7\n      0x04\n      dup1\n      calldatasize\n      sub\n      dup2\n      add\n      swap1\n      tag_8\n      swap2\n      swap1\n      tag_9\n      jump\t// in\n    tag_8:\n      tag_10\n      jump\t// in\n    tag_7:\n      mload(0x40)\n      tag_11\n      swap5\n      swap4\n      swap3\n      swap2\n      swap1\n      tag_12\n      jump\t// in\n    tag_11:\n      mload(0x40)\n      dup1\n      swap2\n      sub\n      swap1\n      return\n        /* \"contracts/Twiiter.sol\":763:876  function getAllTweets(address _owner) public view returns (tweet[] memory) {... */\n    tag_4:\n      tag_13\n      0x04\n      dup1\n      calldatasize\n      sub\n      dup2\n      add\n      swap1\n      tag_14\n      swap2\n      swap1\n      tag_15\n      jump\t// in\n    tag_14:\n      tag_16\n      jump\t// in\n    tag_13:\n      mload(0x40)\n      tag_17\n      swap2\n      swap1\n      tag_18\n      jump\t// in\n    tag_17:\n      mload(0x40)\n      dup1\n      swap2\n      sub\n      swap1\n      return\n        /* \"contracts/Twiiter.sol\":295:405  function getLength(string memory str) public  pure returns (uint256){... */\n    tag_5:\n      tag_19\n      0x04\n      dup1\n      calldatasize\n      sub\n      dup2\n      add\n      swap1\n      tag_20\n      swap2\n      swap1\n      tag_21\n      jump\t// in\n    tag_20:\n      tag_22\n      jump\t// in\n    tag_19:\n      mload(0x40)\n      tag_23\n      swap2\n      swap1\n      tag_24\n      jump\t// in\n    tag_23:\n      mload(0x40)\n      dup1\n      swap2\n      sub\n      swap1\n      return\n        /* \"contracts/Twiiter.sol\":410:757  function createTweet(string memory text) public {... */\n    tag_6:\n      tag_25\n      0x04\n      dup1\n      calldatasize\n      sub\n      dup2\n      add\n      swap1\n      tag_26\n      swap2\n      swap1\n      tag_21\n      jump\t// in\n    tag_26:\n      tag_27\n      jump\t// in\n    tag_25:\n      stop\n        /* \"contracts/Twiiter.sol\":247:288  mapping(address => tweet[]) public tweets */\n    tag_10:\n      mstore(0x20, 0x00)\n      dup2\n      0x00\n      mstore\n      keccak256(0x00, 0x40)\n      dup2\n      dup2\n      sload\n      dup2\n      lt\n      tag_28\n      jumpi\n      0x00\n      dup1\n      revert\n    tag_28:\n      swap1\n      0x00\n      mstore\n      keccak256(0x00, 0x20)\n      swap1\n      0x04\n      mul\n      add\n      0x00\n      swap2\n      pop\n      swap2\n      pop\n      pop\n      dup1\n      0x00\n      add\n      0x00\n      swap1\n      sload\n      swap1\n      0x0100\n      exp\n      swap1\n      div\n      0xffffffffffffffffffffffffffffffffffffffff\n      and\n      swap1\n      dup1\n      0x01\n      add\n      dup1\n      sload\n      tag_30\n      swap1\n      tag_31\n      jump\t// in\n    tag_30:\n      dup1\n      0x1f\n      add\n      0x20\n      dup1\n      swap2\n      div\n      mul\n      0x20\n      add\n      mload(0x40)\n      swap1\n      dup2\n      add\n      0x40\n      mstore\n      dup1\n      swap3\n      swap2\n      swap1\n      dup2\n      dup2\n      mstore\n      0x20\n      add\n      dup3\n      dup1\n      sload\n      tag_32\n      swap1\n      tag_31\n      jump\t// in\n    tag_32:\n      dup1\n      iszero\n      tag_33\n      jumpi\n      dup1\n      0x1f\n      lt\n      tag_34\n      jumpi\n      0x0100\n      dup1\n      dup4\n      sload\n      div\n      mul\n      dup4\n      mstore\n      swap2\n      0x20\n      add\n      swap2\n      jump(tag_33)\n    tag_34:\n      dup3\n      add\n      swap2\n      swap1\n      0x00\n      mstore\n      keccak256(0x00, 0x20)\n      swap1\n    tag_35:\n      dup2\n      sload\n      dup2\n      mstore\n      swap1\n      0x01\n      add\n      swap1\n      0x20\n      add\n      dup1\n      dup4\n      gt\n      tag_35\n      jumpi\n      dup3\n      swap1\n      sub\n      0x1f\n      and\n      dup3\n      add\n      swap2\n    tag_33:\n      pop\n      pop\n      pop\n      pop\n      pop\n      swap1\n      dup1\n      0x02\n      add\n      sload\n      swap1\n      dup1\n      0x03\n      add\n      sload\n      swap1\n      pop\n      dup5\n      jump\t// out\n        /* \"contracts/Twiiter.sol\":763:876  function getAllTweets(address _owner) public view returns (tweet[] memory) {... */\n    tag_16:\n        /* \"contracts/Twiiter.sol\":822:836  tweet[] memory */\n      0x60\n        /* \"contracts/Twiiter.sol\":855:861  tweets */\n      0x00\n        /* \"contracts/Twiiter.sol\":855:869  tweets[_owner] */\n      dup1\n        /* \"contracts/Twiiter.sol\":862:868  _owner */\n      dup4\n        /* \"contracts/Twiiter.sol\":855:869  tweets[_owner] */\n      0xffffffffffffffffffffffffffffffffffffffff\n      and\n      0xffffffffffffffffffffffffffffffffffffffff\n      and\n      dup2\n      mstore\n      0x20\n      add\n      swap1\n      dup2\n      mstore\n      0x20\n      add\n      0x00\n      keccak256\n        /* \"contracts/Twiiter.sol\":848:869  return tweets[_owner] */\n      dup1\n      sload\n      dup1\n      0x20\n      mul\n      0x20\n      add\n      mload(0x40)\n      swap1\n      dup2\n      add\n      0x40\n      mstore\n      dup1\n      swap3\n      swap2\n      swap1\n      dup2\n      dup2\n      mstore\n      0x20\n      add\n      0x00\n      swap1\n    tag_37:\n      dup3\n      dup3\n      lt\n      iszero\n      tag_38\n      jumpi\n      dup4\n      dup3\n      swap1\n      0x00\n      mstore\n      keccak256(0x00, 0x20)\n      swap1\n      0x04\n      mul\n      add\n      mload(0x40)\n      dup1\n      0x80\n      add\n      0x40\n      mstore\n      swap1\n      dup2\n      0x00\n      dup3\n      add\n      0x00\n      swap1\n      sload\n      swap1\n      0x0100\n      exp\n      swap1\n      div\n      0xffffffffffffffffffffffffffffffffffffffff\n      and\n      0xffffffffffffffffffffffffffffffffffffffff\n      and\n      0xffffffffffffffffffffffffffffffffffffffff\n      and\n      dup2\n      mstore\n      0x20\n      add\n      0x01\n      dup3\n      add\n      dup1\n      sload\n      tag_40\n      swap1\n      tag_31\n      jump\t// in\n    tag_40:\n      dup1\n      0x1f\n      add\n      0x20\n      dup1\n      swap2\n      div\n      mul\n      0x20\n      add\n      mload(0x40)\n      swap1\n      dup2\n      add\n      0x40\n      mstore\n      dup1\n      swap3\n      swap2\n      swap1\n      dup2\n      dup2\n      mstore\n      0x20\n      add\n      dup3\n      dup1\n      sload\n      tag_41\n      swap1\n      tag_31\n      jump\t// in\n    tag_41:\n      dup1\n      iszero\n      tag_42\n      jumpi\n      dup1\n      0x1f\n      lt\n      tag_43\n      jumpi\n      0x0100\n      dup1\n      dup4\n      sload\n      div\n      mul\n      dup4\n      mstore\n      swap2\n      0x20\n      add\n      swap2\n      jump(tag_42)\n    tag_43:\n      dup3\n      add\n      swap2\n      swap1\n      0x00\n      mstore\n      keccak256(0x00, 0x20)\n      swap1\n    tag_44:\n      dup2\n      sload\n      dup2\n      mstore\n      swap1\n      0x01\n      add\n      swap1\n      0x20\n      add\n      dup1\n      dup4\n      gt\n      tag_44\n      jumpi\n      dup3\n      swap1\n      sub\n      0x1f\n      and\n      dup3\n      add\n      swap2\n    tag_42:\n      pop\n      pop\n      pop\n      pop\n      pop\n      dup2\n      mstore\n      0x20\n      add\n      0x02\n      dup3\n      add\n      sload\n      dup2\n      mstore\n      0x20\n      add\n      0x03\n      dup3\n      add\n      sload\n      dup2\n      mstore\n      pop\n      pop\n      dup2\n      mstore\n      0x20\n      add\n      swap1\n      0x01\n      add\n      swap1\n      jump(tag_37)\n    tag_38:\n      pop\n      pop\n      pop\n      pop\n      swap1\n      pop\n        /* \"contracts/Twiiter.sol\":763:876  function getAllTweets(address _owner) public view returns (tweet[] memory) {... */\n      swap2\n      swap1\n      pop\n      jump\t// out\n        /* \"contracts/Twiiter.sol\":295:405  function getLength(string memory str) public  pure returns (uint256){... */\n    tag_22:\n        /* \"contracts/Twiiter.sol\":355:362  uint256 */\n      0x00\n        /* \"contracts/Twiiter.sol\":387:390  str */\n      dup2\n        /* \"contracts/Twiiter.sol\":381:398  bytes(str).length */\n      mload\n        /* \"contracts/Twiiter.sol\":373:398  return  bytes(str).length */\n      swap1\n      pop\n        /* \"contracts/Twiiter.sol\":295:405  function getLength(string memory str) public  pure returns (uint256){... */\n      swap2\n      swap1\n      pop\n      jump\t// out\n        /* \"contracts/Twiiter.sol\":410:757  function createTweet(string memory text) public {... */\n    tag_27:\n        /* \"contracts/Twiiter.sol\":114:117  280 */\n      0x0118\n        /* \"contracts/Twiiter.sol\":476:491  getLength(text) */\n      tag_47\n        /* \"contracts/Twiiter.sol\":486:490  text */\n      dup3\n        /* \"contracts/Twiiter.sol\":476:485  getLength */\n      tag_22\n        /* \"contracts/Twiiter.sol\":476:491  getLength(text) */\n      jump\t// in\n    tag_47:\n        /* \"contracts/Twiiter.sol\":476:511  getLength(text) <= MAX_TWEET_LENGTH */\n      gt\n      iszero\n        /* \"contracts/Twiiter.sol\":468:534  require(getLength(text) <= MAX_TWEET_LENGTH,\"Your tweet too long\") */\n      tag_48\n      jumpi\n      mload(0x40)\n      0x08c379a000000000000000000000000000000000000000000000000000000000\n      dup2\n      mstore\n      0x04\n      add\n      tag_49\n      swap1\n      tag_50\n      jump\t// in\n    tag_49:\n      mload(0x40)\n      dup1\n      swap2\n      sub\n      swap1\n      revert\n    tag_48:\n        /* \"contracts/Twiiter.sol\":544:565  tweet memory newTweet */\n      0x00\n        /* \"contracts/Twiiter.sol\":568:707  tweet({... */\n      mload(0x40)\n      dup1\n      0x80\n      add\n      0x40\n      mstore\n      dup1\n        /* \"contracts/Twiiter.sol\":596:606  msg.sender */\n      caller\n        /* \"contracts/Twiiter.sol\":568:707  tweet({... */\n      0xffffffffffffffffffffffffffffffffffffffff\n      and\n      dup2\n      mstore\n      0x20\n      add\n        /* \"contracts/Twiiter.sol\":629:633  text */\n      dup4\n        /* \"contracts/Twiiter.sol\":568:707  tweet({... */\n      dup2\n      mstore\n      0x20\n      add\n        /* \"contracts/Twiiter.sol\":658:673  block.timestamp */\n      timestamp\n        /* \"contracts/Twiiter.sol\":568:707  tweet({... */\n      dup2\n      mstore\n      0x20\n      add\n        /* \"contracts/Twiiter.sol\":694:695  0 */\n      0x00\n        /* \"contracts/Twiiter.sol\":568:707  tweet({... */\n      dup2\n      mstore\n      pop\n        /* \"contracts/Twiiter.sol\":544:707  tweet memory newTweet = tweet({... */\n      swap1\n      pop\n        /* \"contracts/Twiiter.sol\":717:723  tweets */\n      0x00\n        /* \"contracts/Twiiter.sol\":717:735  tweets[msg.sender] */\n      dup1\n        /* \"contracts/Twiiter.sol\":724:734  msg.sender */\n      caller\n        /* \"contracts/Twiiter.sol\":717:735  tweets[msg.sender] */\n      0xffffffffffffffffffffffffffffffffffffffff\n      and\n      0xffffffffffffffffffffffffffffffffffffffff\n      and\n      dup2\n      mstore\n      0x20\n      add\n      swap1\n      dup2\n      mstore\n      0x20\n      add\n      0x00\n      keccak256\n        /* \"contracts/Twiiter.sol\":741:749  newTweet */\n      dup2\n        /* \"contracts/Twiiter.sol\":717:750  tweets[msg.sender].push(newTweet) */\n      swap1\n      dup1\n      0x01\n      dup2\n      sload\n      add\n      dup1\n      dup3\n      sstore\n      dup1\n      swap2\n      pop\n      pop\n      0x01\n      swap1\n      sub\n      swap1\n      0x00\n      mstore\n      keccak256(0x00, 0x20)\n      swap1\n      0x04\n      mul\n      add\n      0x00\n      swap1\n      swap2\n      swap1\n      swap2\n      swap1\n      swap2\n      pop\n      0x00\n      dup3\n      add\n      mload\n      dup2\n      0x00\n      add\n      exp(0x0100, 0x00)\n      dup2\n      sload\n      dup2\n      0xffffffffffffffffffffffffffffffffffffffff\n      mul\n      not\n      and\n      swap1\n      dup4\n      0xffffffffffffffffffffffffffffffffffffffff\n      and\n      mul\n      or\n      swap1\n      sstore\n      pop\n      0x20\n      dup3\n      add\n      mload\n      dup2\n      0x01\n      add\n      swap1\n      dup2\n      tag_52\n      swap2\n      swap1\n      tag_53\n      jump\t// in\n    tag_52:\n      pop\n      0x40\n      dup3\n      add\n      mload\n      dup2\n      0x02\n      add\n      sstore\n      0x60\n      dup3\n      add\n      mload\n      dup2\n      0x03\n      add\n      sstore\n      pop\n      pop\n        /* \"contracts/Twiiter.sol\":458:757  {... */\n      pop\n        /* \"contracts/Twiiter.sol\":410:757  function createTweet(string memory text) public {... */\n      pop\n      jump\t// out\n        /* \"#utility.yul\":7:82   */\n    tag_54:\n        /* \"#utility.yul\":40:46   */\n      0x00\n        /* \"#utility.yul\":73:75   */\n      0x40\n        /* \"#utility.yul\":67:76   */\n      mload\n        /* \"#utility.yul\":57:76   */\n      swap1\n      pop\n        /* \"#utility.yul\":7:82   */\n      swap1\n      jump\t// out\n        /* \"#utility.yul\":88:205   */\n    tag_55:\n        /* \"#utility.yul\":197:198   */\n      0x00\n        /* \"#utility.yul\":194:195   */\n      dup1\n        /* \"#utility.yul\":187:199   */\n      revert\n        /* \"#utility.yul\":211:328   */\n    tag_56:\n        /* \"#utility.yul\":320:321   */\n      0x00\n        /* \"#utility.yul\":317:318   */\n      dup1\n        /* \"#utility.yul\":310:322   */\n      revert\n        /* \"#utility.yul\":334:460   */\n    tag_57:\n        /* \"#utility.yul\":371:378   */\n      0x00\n        /* \"#utility.yul\":411:453   */\n      0xffffffffffffffffffffffffffffffffffffffff\n        /* \"#utility.yul\":404:409   */\n      dup3\n        /* \"#utility.yul\":400:454   */\n      and\n        /* \"#utility.yul\":389:454   */\n      swap1\n      pop\n        /* \"#utility.yul\":334:460   */\n      swap2\n      swap1\n      pop\n      jump\t// out\n        /* \"#utility.yul\":466:562   */\n    tag_58:\n        /* \"#utility.yul\":503:510   */\n      0x00\n        /* \"#utility.yul\":532:556   */\n      tag_115\n        /* \"#utility.yul\":550:555   */\n      dup3\n        /* \"#utility.yul\":532:556   */\n      tag_57\n      jump\t// in\n    tag_115:\n        /* \"#utility.yul\":521:556   */\n      swap1\n      pop\n        /* \"#utility.yul\":466:562   */\n      swap2\n      swap1\n      pop\n      jump\t// out\n        /* \"#utility.yul\":568:690   */\n    tag_59:\n        /* \"#utility.yul\":641:665   */\n      tag_117\n        /* \"#utility.yul\":659:664   */\n      dup2\n        /* \"#utility.yul\":641:665   */\n      tag_58\n      jump\t// in\n    tag_117:\n        /* \"#utility.yul\":634:639   */\n      dup2\n        /* \"#utility.yul\":631:666   */\n      eq\n        /* \"#utility.yul\":621:684   */\n      tag_118\n      jumpi\n        /* \"#utility.yul\":680:681   */\n      0x00\n        /* \"#utility.yul\":677:678   */\n      dup1\n        /* \"#utility.yul\":670:682   */\n      revert\n        /* \"#utility.yul\":621:684   */\n    tag_118:\n        /* \"#utility.yul\":568:690   */\n      pop\n      jump\t// out\n        /* \"#utility.yul\":696:835   */\n    tag_60:\n        /* \"#utility.yul\":742:747   */\n      0x00\n        /* \"#utility.yul\":780:786   */\n      dup2\n        /* \"#utility.yul\":767:787   */\n      calldataload\n        /* \"#utility.yul\":758:787   */\n      swap1\n      pop\n        /* \"#utility.yul\":796:829   */\n      tag_120\n        /* \"#utility.yul\":823:828   */\n      dup2\n        /* \"#utility.yul\":796:829   */\n      tag_59\n      jump\t// in\n    tag_120:\n        /* \"#utility.yul\":696:835   */\n      swap3\n      swap2\n      pop\n      pop\n      jump\t// out\n        /* \"#utility.yul\":841:918   */\n    tag_61:\n        /* \"#utility.yul\":878:885   */\n      0x00\n        /* \"#utility.yul\":907:912   */\n      dup2\n        /* \"#utility.yul\":896:912   */\n      swap1\n      pop\n        /* \"#utility.yul\":841:918   */\n      swap2\n      swap1\n      pop\n      jump\t// out\n        /* \"#utility.yul\":924:1046   */\n    tag_62:\n        /* \"#utility.yul\":997:1021   */\n      tag_123\n        /* \"#utility.yul\":1015:1020   */\n      dup2\n        /* \"#utility.yul\":997:1021   */\n      tag_61\n      jump\t// in\n    tag_123:\n        /* \"#utility.yul\":990:995   */\n      dup2\n        /* \"#utility.yul\":987:1022   */\n      eq\n        /* \"#utility.yul\":977:1040   */\n      tag_124\n      jumpi\n        /* \"#utility.yul\":1036:1037   */\n      0x00\n        /* \"#utility.yul\":1033:1034   */\n      dup1\n        /* \"#utility.yul\":1026:1038   */\n      revert\n        /* \"#utility.yul\":977:1040   */\n    tag_124:\n        /* \"#utility.yul\":924:1046   */\n      pop\n      jump\t// out\n        /* \"#utility.yul\":1052:1191   */\n    tag_63:\n        /* \"#utility.yul\":1098:1103   */\n      0x00\n        /* \"#utility.yul\":1136:1142   */\n      dup2\n        /* \"#utility.yul\":1123:1143   */\n      calldataload\n        /* \"#utility.yul\":1114:1143   */\n      swap1\n      pop\n        /* \"#utility.yul\":1152:1185   */\n      tag_126\n        /* \"#utility.yul\":1179:1184   */\n      dup2\n        /* \"#utility.yul\":1152:1185   */\n      tag_62\n      jump\t// in\n    tag_126:\n        /* \"#utility.yul\":1052:1191   */\n      swap3\n      swap2\n      pop\n      pop\n      jump\t// out\n        /* \"#utility.yul\":1197:1671   */\n    tag_9:\n        /* \"#utility.yul\":1265:1271   */\n      0x00\n        /* \"#utility.yul\":1273:1279   */\n      dup1\n        /* \"#utility.yul\":1322:1324   */\n      0x40\n        /* \"#utility.yul\":1310:1319   */\n      dup4\n        /* \"#utility.yul\":1301:1308   */\n      dup6\n        /* \"#utility.yul\":1297:1320   */\n      sub\n        /* \"#utility.yul\":1293:1325   */\n      slt\n        /* \"#utility.yul\":1290:1409   */\n      iszero\n      tag_128\n      jumpi\n        /* \"#utility.yul\":1328:1407   */\n      tag_129\n      tag_55\n      jump\t// in\n    tag_129:\n        /* \"#utility.yul\":1290:1409   */\n    tag_128:\n        /* \"#utility.yul\":1448:1449   */\n      0x00\n        /* \"#utility.yul\":1473:1526   */\n      tag_130\n        /* \"#utility.yul\":1518:1525   */\n      dup6\n        /* \"#utility.yul\":1509:1515   */\n      dup3\n        /* \"#utility.yul\":1498:1507   */\n      dup7\n        /* \"#utility.yul\":1494:1516   */\n      add\n        /* \"#utility.yul\":1473:1526   */\n      tag_60\n      jump\t// in\n    tag_130:\n        /* \"#utility.yul\":1463:1526   */\n      swap3\n      pop\n        /* \"#utility.yul\":1419:1536   */\n      pop\n        /* \"#utility.yul\":1575:1577   */\n      0x20\n        /* \"#utility.yul\":1601:1654   */\n      tag_131\n        /* \"#utility.yul\":1646:1653   */\n      dup6\n        /* \"#utility.yul\":1637:1643   */\n      dup3\n        /* \"#utility.yul\":1626:1635   */\n      dup7\n        /* \"#utility.yul\":1622:1644   */\n      add\n        /* \"#utility.yul\":1601:1654   */\n      tag_63\n      jump\t// in\n    tag_131:\n        /* \"#utility.yul\":1591:1654   */\n      swap2\n      pop\n        /* \"#utility.yul\":1546:1664   */\n      pop\n        /* \"#utility.yul\":1197:1671   */\n      swap3\n      pop\n      swap3\n      swap1\n      pop\n      jump\t// out\n        /* \"#utility.yul\":1677:1795   */\n    tag_64:\n        /* \"#utility.yul\":1764:1788   */\n      tag_133\n        /* \"#utility.yul\":1782:1787   */\n      dup2\n        /* \"#utility.yul\":1764:1788   */\n      tag_58\n      jump\t// in\n    tag_133:\n        /* \"#utility.yul\":1759:1762   */\n      dup3\n        /* \"#utility.yul\":1752:1789   */\n      mstore\n        /* \"#utility.yul\":1677:1795   */\n      pop\n      pop\n      jump\t// out\n        /* \"#utility.yul\":1801:1900   */\n    tag_65:\n        /* \"#utility.yul\":1853:1859   */\n      0x00\n        /* \"#utility.yul\":1887:1892   */\n      dup2\n        /* \"#utility.yul\":1881:1893   */\n      mload\n        /* \"#utility.yul\":1871:1893   */\n      swap1\n      pop\n        /* \"#utility.yul\":1801:1900   */\n      swap2\n      swap1\n      pop\n      jump\t// out\n        /* \"#utility.yul\":1906:2075   */\n    tag_66:\n        /* \"#utility.yul\":1990:2001   */\n      0x00\n        /* \"#utility.yul\":2024:2030   */\n      dup3\n        /* \"#utility.yul\":2019:2022   */\n      dup3\n        /* \"#utility.yul\":2012:2031   */\n      mstore\n        /* \"#utility.yul\":2064:2068   */\n      0x20\n        /* \"#utility.yul\":2059:2062   */\n      dup3\n        /* \"#utility.yul\":2055:2069   */\n      add\n        /* \"#utility.yul\":2040:2069   */\n      swap1\n      pop\n        /* \"#utility.yul\":1906:2075   */\n      swap3\n      swap2\n      pop\n      pop\n      jump\t// out\n        /* \"#utility.yul\":2081:2327   */\n    tag_67:\n        /* \"#utility.yul\":2162:2163   */\n      0x00\n        /* \"#utility.yul\":2172:2285   */\n    tag_137:\n        /* \"#utility.yul\":2186:2192   */\n      dup4\n        /* \"#utility.yul\":2183:2184   */\n      dup2\n        /* \"#utility.yul\":2180:2193   */\n      lt\n        /* \"#utility.yul\":2172:2285   */\n      iszero\n      tag_139\n      jumpi\n        /* \"#utility.yul\":2271:2272   */\n      dup1\n        /* \"#utility.yul\":2266:2269   */\n      dup3\n        /* \"#utility.yul\":2262:2273   */\n      add\n        /* \"#utility.yul\":2256:2274   */\n      mload\n        /* \"#utility.yul\":2252:2253   */\n      dup2\n        /* \"#utility.yul\":2247:2250   */\n      dup5\n        /* \"#utility.yul\":2243:2254   */\n      add\n        /* \"#utility.yul\":2236:2275   */\n      mstore\n        /* \"#utility.yul\":2208:2210   */\n      0x20\n        /* \"#utility.yul\":2205:2206   */\n      dup2\n        /* \"#utility.yul\":2201:2211   */\n      add\n        /* \"#utility.yul\":2196:2211   */\n      swap1\n      pop\n        /* \"#utility.yul\":2172:2285   */\n      jump(tag_137)\n    tag_139:\n        /* \"#utility.yul\":2319:2320   */\n      0x00\n        /* \"#utility.yul\":2310:2316   */\n      dup5\n        /* \"#utility.yul\":2305:2308   */\n      dup5\n        /* \"#utility.yul\":2301:2317   */\n      add\n        /* \"#utility.yul\":2294:2321   */\n      mstore\n        /* \"#utility.yul\":2143:2327   */\n      pop\n        /* \"#utility.yul\":2081:2327   */\n      pop\n      pop\n      pop\n      jump\t// out\n        /* \"#utility.yul\":2333:2435   */\n    tag_68:\n        /* \"#utility.yul\":2374:2380   */\n      0x00\n        /* \"#utility.yul\":2425:2427   */\n      0x1f\n        /* \"#utility.yul\":2421:2428   */\n      not\n        /* \"#utility.yul\":2416:2418   */\n      0x1f\n        /* \"#utility.yul\":2409:2414   */\n      dup4\n        /* \"#utility.yul\":2405:2419   */\n      add\n        /* \"#utility.yul\":2401:2429   */\n      and\n        /* \"#utility.yul\":2391:2429   */\n      swap1\n      pop\n        /* \"#utility.yul\":2333:2435   */\n      swap2\n      swap1\n      pop\n      jump\t// out\n        /* \"#utility.yul\":2441:2818   */\n    tag_69:\n        /* \"#utility.yul\":2529:2532   */\n      0x00\n        /* \"#utility.yul\":2557:2596   */\n      tag_142\n        /* \"#utility.yul\":2590:2595   */\n      dup3\n        /* \"#utility.yul\":2557:2596   */\n      tag_65\n      jump\t// in\n    tag_142:\n        /* \"#utility.yul\":2612:2683   */\n      tag_143\n        /* \"#utility.yul\":2676:2682   */\n      dup2\n        /* \"#utility.yul\":2671:2674   */\n      dup6\n        /* \"#utility.yul\":2612:2683   */\n      tag_66\n      jump\t// in\n    tag_143:\n        /* \"#utility.yul\":2605:2683   */\n      swap4\n      pop\n        /* \"#utility.yul\":2692:2757   */\n      tag_144\n        /* \"#utility.yul\":2750:2756   */\n      dup2\n        /* \"#utility.yul\":2745:2748   */\n      dup6\n        /* \"#utility.yul\":2738:2742   */\n      0x20\n        /* \"#utility.yul\":2731:2736   */\n      dup7\n        /* \"#utility.yul\":2727:2743   */\n      add\n        /* \"#utility.yul\":2692:2757   */\n      tag_67\n      jump\t// in\n    tag_144:\n        /* \"#utility.yul\":2782:2811   */\n      tag_145\n        /* \"#utility.yul\":2804:2810   */\n      dup2\n        /* \"#utility.yul\":2782:2811   */\n      tag_68\n      jump\t// in\n    tag_145:\n        /* \"#utility.yul\":2777:2780   */\n      dup5\n        /* \"#utility.yul\":2773:2812   */\n      add\n        /* \"#utility.yul\":2766:2812   */\n      swap2\n      pop\n        /* \"#utility.yul\":2533:2818   */\n      pop\n        /* \"#utility.yul\":2441:2818   */\n      swap3\n      swap2\n      pop\n      pop\n      jump\t// out\n        /* \"#utility.yul\":2824:2942   */\n    tag_70:\n        /* \"#utility.yul\":2911:2935   */\n      tag_147\n        /* \"#utility.yul\":2929:2934   */\n      dup2\n        /* \"#utility.yul\":2911:2935   */\n      tag_61\n      jump\t// in\n    tag_147:\n        /* \"#utility.yul\":2906:2909   */\n      dup3\n        /* \"#utility.yul\":2899:2936   */\n      mstore\n        /* \"#utility.yul\":2824:2942   */\n      pop\n      pop\n      jump\t// out\n        /* \"#utility.yul\":2948:3592   */\n    tag_12:\n        /* \"#utility.yul\":3145:3149   */\n      0x00\n        /* \"#utility.yul\":3183:3186   */\n      0x80\n        /* \"#utility.yul\":3172:3181   */\n      dup3\n        /* \"#utility.yul\":3168:3187   */\n      add\n        /* \"#utility.yul\":3160:3187   */\n      swap1\n      pop\n        /* \"#utility.yul\":3197:3268   */\n      tag_149\n        /* \"#utility.yul\":3265:3266   */\n      0x00\n        /* \"#utility.yul\":3254:3263   */\n      dup4\n        /* \"#utility.yul\":3250:3267   */\n      add\n        /* \"#utility.yul\":3241:3247   */\n      dup8\n        /* \"#utility.yul\":3197:3268   */\n      tag_64\n      jump\t// in\n    tag_149:\n        /* \"#utility.yul\":3315:3324   */\n      dup2\n        /* \"#utility.yul\":3309:3313   */\n      dup2\n        /* \"#utility.yul\":3305:3325   */\n      sub\n        /* \"#utility.yul\":3300:3302   */\n      0x20\n        /* \"#utility.yul\":3289:3298   */\n      dup4\n        /* \"#utility.yul\":3285:3303   */\n      add\n        /* \"#utility.yul\":3278:3326   */\n      mstore\n        /* \"#utility.yul\":3343:3421   */\n      tag_150\n        /* \"#utility.yul\":3416:3420   */\n      dup2\n        /* \"#utility.yul\":3407:3413   */\n      dup7\n        /* \"#utility.yul\":3343:3421   */\n      tag_69\n      jump\t// in\n    tag_150:\n        /* \"#utility.yul\":3335:3421   */\n      swap1\n      pop\n        /* \"#utility.yul\":3431:3503   */\n      tag_151\n        /* \"#utility.yul\":3499:3501   */\n      0x40\n        /* \"#utility.yul\":3488:3497   */\n      dup4\n        /* \"#utility.yul\":3484:3502   */\n      add\n        /* \"#utility.yul\":3475:3481   */\n      dup6\n        /* \"#utility.yul\":3431:3503   */\n      tag_70\n      jump\t// in\n    tag_151:\n        /* \"#utility.yul\":3513:3585   */\n      tag_152\n        /* \"#utility.yul\":3581:3583   */\n      0x60\n        /* \"#utility.yul\":3570:3579   */\n      dup4\n        /* \"#utility.yul\":3566:3584   */\n      add\n        /* \"#utility.yul\":3557:3563   */\n      dup5\n        /* \"#utility.yul\":3513:3585   */\n      tag_70\n      jump\t// in\n    tag_152:\n        /* \"#utility.yul\":2948:3592   */\n      swap6\n      swap5\n      pop\n      pop\n      pop\n      pop\n      pop\n      jump\t// out\n        /* \"#utility.yul\":3598:3927   */\n    tag_15:\n        /* \"#utility.yul\":3657:3663   */\n      0x00\n        /* \"#utility.yul\":3706:3708   */\n      0x20\n        /* \"#utility.yul\":3694:3703   */\n      dup3\n        /* \"#utility.yul\":3685:3692   */\n      dup5\n        /* \"#utility.yul\":3681:3704   */\n      sub\n        /* \"#utility.yul\":3677:3709   */\n      slt\n        /* \"#utility.yul\":3674:3793   */\n      iszero\n      tag_154\n      jumpi\n        /* \"#utility.yul\":3712:3791   */\n      tag_155\n      tag_55\n      jump\t// in\n    tag_155:\n        /* \"#utility.yul\":3674:3793   */\n    tag_154:\n        /* \"#utility.yul\":3832:3833   */\n      0x00\n        /* \"#utility.yul\":3857:3910   */\n      tag_156\n        /* \"#utility.yul\":3902:3909   */\n      dup5\n        /* \"#utility.yul\":3893:3899   */\n      dup3\n        /* \"#utility.yul\":3882:3891   */\n      dup6\n        /* \"#utility.yul\":3878:3900   */\n      add\n        /* \"#utility.yul\":3857:3910   */\n      tag_60\n      jump\t// in\n    tag_156:\n        /* \"#utility.yul\":3847:3910   */\n      swap2\n      pop\n        /* \"#utility.yul\":3803:3920   */\n      pop\n        /* \"#utility.yul\":3598:3927   */\n      swap3\n      swap2\n      pop\n      pop\n      jump\t// out\n        /* \"#utility.yul\":3933:4068   */\n    tag_71:\n        /* \"#utility.yul\":4021:4027   */\n      0x00\n        /* \"#utility.yul\":4055:4060   */\n      dup2\n        /* \"#utility.yul\":4049:4061   */\n      mload\n        /* \"#utility.yul\":4039:4061   */\n      swap1\n      pop\n        /* \"#utility.yul\":3933:4068   */\n      swap2\n      swap1\n      pop\n      jump\t// out\n        /* \"#utility.yul\":4074:4279   */\n    tag_72:\n        /* \"#utility.yul\":4194:4205   */\n      0x00\n        /* \"#utility.yul\":4228:4234   */\n      dup3\n        /* \"#utility.yul\":4223:4226   */\n      dup3\n        /* \"#utility.yul\":4216:4235   */\n      mstore\n        /* \"#utility.yul\":4268:4272   */\n      0x20\n        /* \"#utility.yul\":4263:4266   */\n      dup3\n        /* \"#utility.yul\":4259:4273   */\n      add\n        /* \"#utility.yul\":4244:4273   */\n      swap1\n      pop\n        /* \"#utility.yul\":4074:4279   */\n      swap3\n      swap2\n      pop\n      pop\n      jump\t// out\n        /* \"#utility.yul\":4285:4438   */\n    tag_73:\n        /* \"#utility.yul\":4373:4377   */\n      0x00\n        /* \"#utility.yul\":4396:4399   */\n      dup2\n        /* \"#utility.yul\":4388:4399   */\n      swap1\n      pop\n        /* \"#utility.yul\":4426:4430   */\n      0x20\n        /* \"#utility.yul\":4421:4424   */\n      dup3\n        /* \"#utility.yul\":4417:4431   */\n      add\n        /* \"#utility.yul\":4409:4431   */\n      swap1\n      pop\n        /* \"#utility.yul\":4285:4438   */\n      swap2\n      swap1\n      pop\n      jump\t// out\n        /* \"#utility.yul\":4444:4552   */\n    tag_74:\n        /* \"#utility.yul\":4521:4545   */\n      tag_161\n        /* \"#utility.yul\":4539:4544   */\n      dup2\n        /* \"#utility.yul\":4521:4545   */\n      tag_58\n      jump\t// in\n    tag_161:\n        /* \"#utility.yul\":4516:4519   */\n      dup3\n        /* \"#utility.yul\":4509:4546   */\n      mstore\n        /* \"#utility.yul\":4444:4552   */\n      pop\n      pop\n      jump\t// out\n        /* \"#utility.yul\":4558:4717   */\n    tag_75:\n        /* \"#utility.yul\":4632:4643   */\n      0x00\n        /* \"#utility.yul\":4666:4672   */\n      dup3\n        /* \"#utility.yul\":4661:4664   */\n      dup3\n        /* \"#utility.yul\":4654:4673   */\n      mstore\n        /* \"#utility.yul\":4706:4710   */\n      0x20\n        /* \"#utility.yul\":4701:4704   */\n      dup3\n        /* \"#utility.yul\":4697:4711   */\n      add\n        /* \"#utility.yul\":4682:4711   */\n      swap1\n      pop\n        /* \"#utility.yul\":4558:4717   */\n      swap3\n      swap2\n      pop\n      pop\n      jump\t// out\n        /* \"#utility.yul\":4723:5080   */\n    tag_76:\n        /* \"#utility.yul\":4801:4804   */\n      0x00\n        /* \"#utility.yul\":4829:4868   */\n      tag_164\n        /* \"#utility.yul\":4862:4867   */\n      dup3\n        /* \"#utility.yul\":4829:4868   */\n      tag_65\n      jump\t// in\n    tag_164:\n        /* \"#utility.yul\":4884:4945   */\n      tag_165\n        /* \"#utility.yul\":4938:4944   */\n      dup2\n        /* \"#utility.yul\":4933:4936   */\n      dup6\n        /* \"#utility.yul\":4884:4945   */\n      tag_75\n      jump\t// in\n    tag_165:\n        /* \"#utility.yul\":4877:4945   */\n      swap4\n      pop\n        /* \"#utility.yul\":4954:5019   */\n      tag_166\n        /* \"#utility.yul\":5012:5018   */\n      dup2\n        /* \"#utility.yul\":5007:5010   */\n      dup6\n        /* \"#utility.yul\":5000:5004   */\n      0x20\n        /* \"#utility.yul\":4993:4998   */\n      dup7\n        /* \"#utility.yul\":4989:5005   */\n      add\n        /* \"#utility.yul\":4954:5019   */\n      tag_67\n      jump\t// in\n    tag_166:\n        /* \"#utility.yul\":5044:5073   */\n      tag_167\n        /* \"#utility.yul\":5066:5072   */\n      dup2\n        /* \"#utility.yul\":5044:5073   */\n      tag_68\n      jump\t// in\n    tag_167:\n        /* \"#utility.yul\":5039:5042   */\n      dup5\n        /* \"#utility.yul\":5035:5074   */\n      add\n        /* \"#utility.yul\":5028:5074   */\n      swap2\n      pop\n        /* \"#utility.yul\":4805:5080   */\n      pop\n        /* \"#utility.yul\":4723:5080   */\n      swap3\n      swap2\n      pop\n      pop\n      jump\t// out\n        /* \"#utility.yul\":5086:5194   */\n    tag_77:\n        /* \"#utility.yul\":5163:5187   */\n      tag_169\n        /* \"#utility.yul\":5181:5186   */\n      dup2\n        /* \"#utility.yul\":5163:5187   */\n      tag_61\n      jump\t// in\n    tag_169:\n        /* \"#utility.yul\":5158:5161   */\n      dup3\n        /* \"#utility.yul\":5151:5188   */\n      mstore\n        /* \"#utility.yul\":5086:5194   */\n      pop\n      pop\n      jump\t// out\n        /* \"#utility.yul\":5252:6199   */\n    tag_78:\n        /* \"#utility.yul\":5353:5356   */\n      0x00\n        /* \"#utility.yul\":5389:5393   */\n      0x80\n        /* \"#utility.yul\":5384:5387   */\n      dup4\n        /* \"#utility.yul\":5380:5394   */\n      add\n        /* \"#utility.yul\":5478:5482   */\n      0x00\n        /* \"#utility.yul\":5471:5476   */\n      dup4\n        /* \"#utility.yul\":5467:5483   */\n      add\n        /* \"#utility.yul\":5461:5484   */\n      mload\n        /* \"#utility.yul\":5497:5560   */\n      tag_171\n        /* \"#utility.yul\":5554:5558   */\n      0x00\n        /* \"#utility.yul\":5549:5552   */\n      dup7\n        /* \"#utility.yul\":5545:5559   */\n      add\n        /* \"#utility.yul\":5531:5543   */\n      dup3\n        /* \"#utility.yul\":5497:5560   */\n      tag_74\n      jump\t// in\n    tag_171:\n        /* \"#utility.yul\":5404:5570   */\n      pop\n        /* \"#utility.yul\":5655:5659   */\n      0x20\n        /* \"#utility.yul\":5648:5653   */\n      dup4\n        /* \"#utility.yul\":5644:5660   */\n      add\n        /* \"#utility.yul\":5638:5661   */\n      mload\n        /* \"#utility.yul\":5708:5711   */\n      dup5\n        /* \"#utility.yul\":5702:5706   */\n      dup3\n        /* \"#utility.yul\":5698:5712   */\n      sub\n        /* \"#utility.yul\":5691:5695   */\n      0x20\n        /* \"#utility.yul\":5686:5689   */\n      dup7\n        /* \"#utility.yul\":5682:5696   */\n      add\n        /* \"#utility.yul\":5675:5713   */\n      mstore\n        /* \"#utility.yul\":5734:5807   */\n      tag_172\n        /* \"#utility.yul\":5802:5806   */\n      dup3\n        /* \"#utility.yul\":5788:5800   */\n      dup3\n        /* \"#utility.yul\":5734:5807   */\n      tag_76\n      jump\t// in\n    tag_172:\n        /* \"#utility.yul\":5726:5807   */\n      swap2\n      pop\n        /* \"#utility.yul\":5580:5818   */\n      pop\n        /* \"#utility.yul\":5905:5909   */\n      0x40\n        /* \"#utility.yul\":5898:5903   */\n      dup4\n        /* \"#utility.yul\":5894:5910   */\n      add\n        /* \"#utility.yul\":5888:5911   */\n      mload\n        /* \"#utility.yul\":5924:5987   */\n      tag_173\n        /* \"#utility.yul\":5981:5985   */\n      0x40\n        /* \"#utility.yul\":5976:5979   */\n      dup7\n        /* \"#utility.yul\":5972:5986   */\n      add\n        /* \"#utility.yul\":5958:5970   */\n      dup3\n        /* \"#utility.yul\":5924:5987   */\n      tag_77\n      jump\t// in\n    tag_173:\n        /* \"#utility.yul\":5828:5997   */\n      pop\n        /* \"#utility.yul\":6080:6084   */\n      0x60\n        /* \"#utility.yul\":6073:6078   */\n      dup4\n        /* \"#utility.yul\":6069:6085   */\n      add\n        /* \"#utility.yul\":6063:6086   */\n      mload\n        /* \"#utility.yul\":6099:6162   */\n      tag_174\n        /* \"#utility.yul\":6156:6160   */\n      0x60\n        /* \"#utility.yul\":6151:6154   */\n      dup7\n        /* \"#utility.yul\":6147:6161   */\n      add\n        /* \"#utility.yul\":6133:6145   */\n      dup3\n        /* \"#utility.yul\":6099:6162   */\n      tag_77\n      jump\t// in\n    tag_174:\n        /* \"#utility.yul\":6007:6172   */\n      pop\n        /* \"#utility.yul\":6189:6193   */\n      dup1\n        /* \"#utility.yul\":6182:6193   */\n      swap2\n      pop\n        /* \"#utility.yul\":5358:6199   */\n      pop\n        /* \"#utility.yul\":5252:6199   */\n      swap3\n      swap2\n      pop\n      pop\n      jump\t// out\n        /* \"#utility.yul\":6205:6445   */\n    tag_79:\n        /* \"#utility.yul\":6316:6326   */\n      0x00\n        /* \"#utility.yul\":6351:6439   */\n      tag_176\n        /* \"#utility.yul\":6435:6438   */\n      dup4\n        /* \"#utility.yul\":6427:6433   */\n      dup4\n        /* \"#utility.yul\":6351:6439   */\n      tag_78\n      jump\t// in\n    tag_176:\n        /* \"#utility.yul\":6337:6439   */\n      swap1\n      pop\n        /* \"#utility.yul\":6205:6445   */\n      swap3\n      swap2\n      pop\n      pop\n      jump\t// out\n        /* \"#utility.yul\":6451:6585   */\n    tag_80:\n        /* \"#utility.yul\":6542:6546   */\n      0x00\n        /* \"#utility.yul\":6574:6578   */\n      0x20\n        /* \"#utility.yul\":6569:6572   */\n      dup3\n        /* \"#utility.yul\":6565:6579   */\n      add\n        /* \"#utility.yul\":6557:6579   */\n      swap1\n      pop\n        /* \"#utility.yul\":6451:6585   */\n      swap2\n      swap1\n      pop\n      jump\t// out\n        /* \"#utility.yul\":6647:7726   */\n    tag_81:\n        /* \"#utility.yul\":6808:6811   */\n      0x00\n        /* \"#utility.yul\":6837:6912   */\n      tag_179\n        /* \"#utility.yul\":6906:6911   */\n      dup3\n        /* \"#utility.yul\":6837:6912   */\n      tag_71\n      jump\t// in\n    tag_179:\n        /* \"#utility.yul\":6928:7035   */\n      tag_180\n        /* \"#utility.yul\":7028:7034   */\n      dup2\n        /* \"#utility.yul\":7023:7026   */\n      dup6\n        /* \"#utility.yul\":6928:7035   */\n      tag_72\n      jump\t// in\n    tag_180:\n        /* \"#utility.yul\":6921:7035   */\n      swap4\n      pop\n        /* \"#utility.yul\":7061:7064   */\n      dup4\n        /* \"#utility.yul\":7106:7110   */\n      0x20\n        /* \"#utility.yul\":7098:7104   */\n      dup3\n        /* \"#utility.yul\":7094:7111   */\n      mul\n        /* \"#utility.yul\":7089:7092   */\n      dup6\n        /* \"#utility.yul\":7085:7112   */\n      add\n        /* \"#utility.yul\":7136:7213   */\n      tag_181\n        /* \"#utility.yul\":7207:7212   */\n      dup6\n        /* \"#utility.yul\":7136:7213   */\n      tag_73\n      jump\t// in\n    tag_181:\n        /* \"#utility.yul\":7236:7243   */\n      dup1\n        /* \"#utility.yul\":7267:7268   */\n      0x00\n        /* \"#utility.yul\":7252:7681   */\n    tag_182:\n        /* \"#utility.yul\":7277:7283   */\n      dup6\n        /* \"#utility.yul\":7274:7275   */\n      dup2\n        /* \"#utility.yul\":7271:7284   */\n      lt\n        /* \"#utility.yul\":7252:7681   */\n      iszero\n      tag_184\n      jumpi\n        /* \"#utility.yul\":7348:7357   */\n      dup5\n        /* \"#utility.yul\":7342:7346   */\n      dup5\n        /* \"#utility.yul\":7338:7358   */\n      sub\n        /* \"#utility.yul\":7333:7336   */\n      dup10\n        /* \"#utility.yul\":7326:7359   */\n      mstore\n        /* \"#utility.yul\":7399:7405   */\n      dup2\n        /* \"#utility.yul\":7393:7406   */\n      mload\n        /* \"#utility.yul\":7427:7533   */\n      tag_185\n        /* \"#utility.yul\":7528:7532   */\n      dup6\n        /* \"#utility.yul\":7513:7526   */\n      dup3\n        /* \"#utility.yul\":7427:7533   */\n      tag_79\n      jump\t// in\n    tag_185:\n        /* \"#utility.yul\":7419:7533   */\n      swap5\n      pop\n        /* \"#utility.yul\":7556:7637   */\n      tag_186\n        /* \"#utility.yul\":7630:7636   */\n      dup4\n        /* \"#utility.yul\":7556:7637   */\n      tag_80\n      jump\t// in\n    tag_186:\n        /* \"#utility.yul\":7546:7637   */\n      swap3\n      pop\n        /* \"#utility.yul\":7666:7670   */\n      0x20\n        /* \"#utility.yul\":7661:7664   */\n      dup11\n        /* \"#utility.yul\":7657:7671   */\n      add\n        /* \"#utility.yul\":7650:7671   */\n      swap10\n      pop\n        /* \"#utility.yul\":7312:7681   */\n      pop\n        /* \"#utility.yul\":7299:7300   */\n      0x01\n        /* \"#utility.yul\":7296:7297   */\n      dup2\n        /* \"#utility.yul\":7292:7301   */\n      add\n        /* \"#utility.yul\":7287:7301   */\n      swap1\n      pop\n        /* \"#utility.yul\":7252:7681   */\n      jump(tag_182)\n    tag_184:\n        /* \"#utility.yul\":7256:7270   */\n      pop\n        /* \"#utility.yul\":7697:7701   */\n      dup3\n        /* \"#utility.yul\":7690:7701   */\n      swap8\n      pop\n        /* \"#utility.yul\":7717:7720   */\n      dup8\n        /* \"#utility.yul\":7710:7720   */\n      swap6\n      pop\n        /* \"#utility.yul\":6813:7726   */\n      pop\n      pop\n      pop\n      pop\n      pop\n        /* \"#utility.yul\":6647:7726   */\n      swap3\n      swap2\n      pop\n      pop\n      jump\t// out\n        /* \"#utility.yul\":7732:8189   */\n    tag_18:\n        /* \"#utility.yul\":7917:7921   */\n      0x00\n        /* \"#utility.yul\":7955:7957   */\n      0x20\n        /* \"#utility.yul\":7944:7953   */\n      dup3\n        /* \"#utility.yul\":7940:7958   */\n      add\n        /* \"#utility.yul\":7932:7958   */\n      swap1\n      pop\n        /* \"#utility.yul\":8004:8013   */\n      dup2\n        /* \"#utility.yul\":7998:8002   */\n      dup2\n        /* \"#utility.yul\":7994:8014   */\n      sub\n        /* \"#utility.yul\":7990:7991   */\n      0x00\n        /* \"#utility.yul\":7979:7988   */\n      dup4\n        /* \"#utility.yul\":7975:7992   */\n      add\n        /* \"#utility.yul\":7968:8015   */\n      mstore\n        /* \"#utility.yul\":8032:8182   */\n      tag_188\n        /* \"#utility.yul\":8177:8181   */\n      dup2\n        /* \"#utility.yul\":8168:8174   */\n      dup5\n        /* \"#utility.yul\":8032:8182   */\n      tag_81\n      jump\t// in\n    tag_188:\n        /* \"#utility.yul\":8024:8182   */\n      swap1\n      pop\n        /* \"#utility.yul\":7732:8189   */\n      swap3\n      swap2\n      pop\n      pop\n      jump\t// out\n        /* \"#utility.yul\":8195:8312   */\n    tag_82:\n        /* \"#utility.yul\":8304:8305   */\n      0x00\n        /* \"#utility.yul\":8301:8302   */\n      dup1\n        /* \"#utility.yul\":8294:8306   */\n      revert\n        /* \"#utility.yul\":8318:8435   */\n    tag_83:\n        /* \"#utility.yul\":8427:8428   */\n      0x00\n        /* \"#utility.yul\":8424:8425   */\n      dup1\n        /* \"#utility.yul\":8417:8429   */\n      revert\n        /* \"#utility.yul\":8441:8621   */\n    tag_84:\n        /* \"#utility.yul\":8489:8566   */\n      0x4e487b7100000000000000000000000000000000000000000000000000000000\n        /* \"#utility.yul\":8486:8487   */\n      0x00\n        /* \"#utility.yul\":8479:8567   */\n      mstore\n        /* \"#utility.yul\":8586:8590   */\n      0x41\n        /* \"#utility.yul\":8583:8584   */\n      0x04\n        /* \"#utility.yul\":8576:8591   */\n      mstore\n        /* \"#utility.yul\":8610:8614   */\n      0x24\n        /* \"#utility.yul\":8607:8608   */\n      0x00\n        /* \"#utility.yul\":8600:8615   */\n      revert\n        /* \"#utility.yul\":8627:8908   */\n    tag_85:\n        /* \"#utility.yul\":8710:8737   */\n      tag_193\n        /* \"#utility.yul\":8732:8736   */\n      dup3\n        /* \"#utility.yul\":8710:8737   */\n      tag_68\n      jump\t// in\n    tag_193:\n        /* \"#utility.yul\":8702:8708   */\n      dup2\n        /* \"#utility.yul\":8698:8738   */\n      add\n        /* \"#utility.yul\":8840:8846   */\n      dup2\n        /* \"#utility.yul\":8828:8838   */\n      dup2\n        /* \"#utility.yul\":8825:8847   */\n      lt\n        /* \"#utility.yul\":8804:8822   */\n      0xffffffffffffffff\n        /* \"#utility.yul\":8792:8802   */\n      dup3\n        /* \"#utility.yul\":8789:8823   */\n      gt\n        /* \"#utility.yul\":8786:8848   */\n      or\n        /* \"#utility.yul\":8783:8871   */\n      iszero\n      tag_194\n      jumpi\n        /* \"#utility.yul\":8851:8869   */\n      tag_195\n      tag_84\n      jump\t// in\n    tag_195:\n        /* \"#utility.yul\":8783:8871   */\n    tag_194:\n        /* \"#utility.yul\":8891:8901   */\n      dup1\n        /* \"#utility.yul\":8887:8889   */\n      0x40\n        /* \"#utility.yul\":8880:8902   */\n      mstore\n        /* \"#utility.yul\":8670:8908   */\n      pop\n        /* \"#utility.yul\":8627:8908   */\n      pop\n      pop\n      jump\t// out\n        /* \"#utility.yul\":8914:9043   */\n    tag_86:\n        /* \"#utility.yul\":8948:8954   */\n      0x00\n        /* \"#utility.yul\":8975:8995   */\n      tag_197\n      tag_54\n      jump\t// in\n    tag_197:\n        /* \"#utility.yul\":8965:8995   */\n      swap1\n      pop\n        /* \"#utility.yul\":9004:9037   */\n      tag_198\n        /* \"#utility.yul\":9032:9036   */\n      dup3\n        /* \"#utility.yul\":9024:9030   */\n      dup3\n        /* \"#utility.yul\":9004:9037   */\n      tag_85\n      jump\t// in\n    tag_198:\n        /* \"#utility.yul\":8914:9043   */\n      swap2\n      swap1\n      pop\n      jump\t// out\n        /* \"#utility.yul\":9049:9357   */\n    tag_87:\n        /* \"#utility.yul\":9111:9115   */\n      0x00\n        /* \"#utility.yul\":9201:9219   */\n      0xffffffffffffffff\n        /* \"#utility.yul\":9193:9199   */\n      dup3\n        /* \"#utility.yul\":9190:9220   */\n      gt\n        /* \"#utility.yul\":9187:9243   */\n      iszero\n      tag_200\n      jumpi\n        /* \"#utility.yul\":9223:9241   */\n      tag_201\n      tag_84\n      jump\t// in\n    tag_201:\n        /* \"#utility.yul\":9187:9243   */\n    tag_200:\n        /* \"#utility.yul\":9261:9290   */\n      tag_202\n        /* \"#utility.yul\":9283:9289   */\n      dup3\n        /* \"#utility.yul\":9261:9290   */\n      tag_68\n      jump\t// in\n    tag_202:\n        /* \"#utility.yul\":9253:9290   */\n      swap1\n      pop\n        /* \"#utility.yul\":9345:9349   */\n      0x20\n        /* \"#utility.yul\":9339:9343   */\n      dup2\n        /* \"#utility.yul\":9335:9350   */\n      add\n        /* \"#utility.yul\":9327:9350   */\n      swap1\n      pop\n        /* \"#utility.yul\":9049:9357   */\n      swap2\n      swap1\n      pop\n      jump\t// out\n        /* \"#utility.yul\":9363:9509   */\n    tag_88:\n        /* \"#utility.yul\":9460:9466   */\n      dup3\n        /* \"#utility.yul\":9455:9458   */\n      dup2\n        /* \"#utility.yul\":9450:9453   */\n      dup4\n        /* \"#utility.yul\":9437:9467   */\n      calldatacopy\n        /* \"#utility.yul\":9501:9502   */\n      0x00\n        /* \"#utility.yul\":9492:9498   */\n      dup4\n        /* \"#utility.yul\":9487:9490   */\n      dup4\n        /* \"#utility.yul\":9483:9499   */\n      add\n        /* \"#utility.yul\":9476:9503   */\n      mstore\n        /* \"#utility.yul\":9363:9509   */\n      pop\n      pop\n      pop\n      jump\t// out\n        /* \"#utility.yul\":9515:9940   */\n    tag_89:\n        /* \"#utility.yul\":9593:9598   */\n      0x00\n        /* \"#utility.yul\":9618:9684   */\n      tag_205\n        /* \"#utility.yul\":9634:9683   */\n      tag_206\n        /* \"#utility.yul\":9676:9682   */\n      dup5\n        /* \"#utility.yul\":9634:9683   */\n      tag_87\n      jump\t// in\n    tag_206:\n        /* \"#utility.yul\":9618:9684   */\n      tag_86\n      jump\t// in\n    tag_205:\n        /* \"#utility.yul\":9609:9684   */\n      swap1\n      pop\n        /* \"#utility.yul\":9707:9713   */\n      dup3\n        /* \"#utility.yul\":9700:9705   */\n      dup2\n        /* \"#utility.yul\":9693:9714   */\n      mstore\n        /* \"#utility.yul\":9745:9749   */\n      0x20\n        /* \"#utility.yul\":9738:9743   */\n      dup2\n        /* \"#utility.yul\":9734:9750   */\n      add\n        /* \"#utility.yul\":9783:9786   */\n      dup5\n        /* \"#utility.yul\":9774:9780   */\n      dup5\n        /* \"#utility.yul\":9769:9772   */\n      dup5\n        /* \"#utility.yul\":9765:9781   */\n      add\n        /* \"#utility.yul\":9762:9787   */\n      gt\n        /* \"#utility.yul\":9759:9871   */\n      iszero\n      tag_207\n      jumpi\n        /* \"#utility.yul\":9790:9869   */\n      tag_208\n      tag_83\n      jump\t// in\n    tag_208:\n        /* \"#utility.yul\":9759:9871   */\n    tag_207:\n        /* \"#utility.yul\":9880:9934   */\n      tag_209\n        /* \"#utility.yul\":9927:9933   */\n      dup5\n        /* \"#utility.yul\":9922:9925   */\n      dup3\n        /* \"#utility.yul\":9917:9920   */\n      dup6\n        /* \"#utility.yul\":9880:9934   */\n      tag_88\n      jump\t// in\n    tag_209:\n        /* \"#utility.yul\":9599:9940   */\n      pop\n        /* \"#utility.yul\":9515:9940   */\n      swap4\n      swap3\n      pop\n      pop\n      pop\n      jump\t// out\n        /* \"#utility.yul\":9960:10300   */\n    tag_90:\n        /* \"#utility.yul\":10016:10021   */\n      0x00\n        /* \"#utility.yul\":10065:10068   */\n      dup3\n        /* \"#utility.yul\":10058:10062   */\n      0x1f\n        /* \"#utility.yul\":10050:10056   */\n      dup4\n        /* \"#utility.yul\":10046:10063   */\n      add\n        /* \"#utility.yul\":10042:10069   */\n      slt\n        /* \"#utility.yul\":10032:10154   */\n      tag_211\n      jumpi\n        /* \"#utility.yul\":10073:10152   */\n      tag_212\n      tag_82\n      jump\t// in\n    tag_212:\n        /* \"#utility.yul\":10032:10154   */\n    tag_211:\n        /* \"#utility.yul\":10190:10196   */\n      dup2\n        /* \"#utility.yul\":10177:10197   */\n      calldataload\n        /* \"#utility.yul\":10215:10294   */\n      tag_213\n        /* \"#utility.yul\":10290:10293   */\n      dup5\n        /* \"#utility.yul\":10282:10288   */\n      dup3\n        /* \"#utility.yul\":10275:10279   */\n      0x20\n        /* \"#utility.yul\":10267:10273   */\n      dup7\n        /* \"#utility.yul\":10263:10280   */\n      add\n        /* \"#utility.yul\":10215:10294   */\n      tag_89\n      jump\t// in\n    tag_213:\n        /* \"#utility.yul\":10206:10294   */\n      swap2\n      pop\n        /* \"#utility.yul\":10022:10300   */\n      pop\n        /* \"#utility.yul\":9960:10300   */\n      swap3\n      swap2\n      pop\n      pop\n      jump\t// out\n        /* \"#utility.yul\":10306:10815   */\n    tag_21:\n        /* \"#utility.yul\":10375:10381   */\n      0x00\n        /* \"#utility.yul\":10424:10426   */\n      0x20\n        /* \"#utility.yul\":10412:10421   */\n      dup3\n        /* \"#utility.yul\":10403:10410   */\n      dup5\n        /* \"#utility.yul\":10399:10422   */\n      sub\n        /* \"#utility.yul\":10395:10427   */\n      slt\n        /* \"#utility.yul\":10392:10511   */\n      iszero\n      tag_215\n      jumpi\n        /* \"#utility.yul\":10430:10509   */\n      tag_216\n      tag_55\n      jump\t// in\n    tag_216:\n        /* \"#utility.yul\":10392:10511   */\n    tag_215:\n        /* \"#utility.yul\":10578:10579   */\n      0x00\n        /* \"#utility.yul\":10567:10576   */\n      dup3\n        /* \"#utility.yul\":10563:10580   */\n      add\n        /* \"#utility.yul\":10550:10581   */\n      calldataload\n        /* \"#utility.yul\":10608:10626   */\n      0xffffffffffffffff\n        /* \"#utility.yul\":10600:10606   */\n      dup2\n        /* \"#utility.yul\":10597:10627   */\n      gt\n        /* \"#utility.yul\":10594:10711   */\n      iszero\n      tag_217\n      jumpi\n        /* \"#utility.yul\":10630:10709   */\n      tag_218\n      tag_56\n      jump\t// in\n    tag_218:\n        /* \"#utility.yul\":10594:10711   */\n    tag_217:\n        /* \"#utility.yul\":10735:10798   */\n      tag_219\n        /* \"#utility.yul\":10790:10797   */\n      dup5\n        /* \"#utility.yul\":10781:10787   */\n      dup3\n        /* \"#utility.yul\":10770:10779   */\n      dup6\n        /* \"#utility.yul\":10766:10788   */\n      add\n        /* \"#utility.yul\":10735:10798   */\n      tag_90\n      jump\t// in\n    tag_219:\n        /* \"#utility.yul\":10725:10798   */\n      swap2\n      pop\n        /* \"#utility.yul\":10521:10808   */\n      pop\n        /* \"#utility.yul\":10306:10815   */\n      swap3\n      swap2\n      pop\n      pop\n      jump\t// out\n        /* \"#utility.yul\":10821:11043   */\n    tag_24:\n        /* \"#utility.yul\":10914:10918   */\n      0x00\n        /* \"#utility.yul\":10952:10954   */\n      0x20\n        /* \"#utility.yul\":10941:10950   */\n      dup3\n        /* \"#utility.yul\":10937:10955   */\n      add\n        /* \"#utility.yul\":10929:10955   */\n      swap1\n      pop\n        /* \"#utility.yul\":10965:11036   */\n      tag_221\n        /* \"#utility.yul\":11033:11034   */\n      0x00\n        /* \"#utility.yul\":11022:11031   */\n      dup4\n        /* \"#utility.yul\":11018:11035   */\n      add\n        /* \"#utility.yul\":11009:11015   */\n      dup5\n        /* \"#utility.yul\":10965:11036   */\n      tag_70\n      jump\t// in\n    tag_221:\n        /* \"#utility.yul\":10821:11043   */\n      swap3\n      swap2\n      pop\n      pop\n      jump\t// out\n        /* \"#utility.yul\":11049:11229   */\n    tag_91:\n        /* \"#utility.yul\":11097:11174   */\n      0x4e487b7100000000000000000000000000000000000000000000000000000000\n        /* \"#utility.yul\":11094:11095   */\n      0x00\n        /* \"#utility.yul\":11087:11175   */\n      mstore\n        /* \"#utility.yul\":11194:11198   */\n      0x22\n        /* \"#utility.yul\":11191:11192   */\n      0x04\n        /* \"#utility.yul\":11184:11199   */\n      mstore\n        /* \"#utility.yul\":11218:11222   */\n      0x24\n        /* \"#utility.yul\":11215:11216   */\n      0x00\n        /* \"#utility.yul\":11208:11223   */\n      revert\n        /* \"#utility.yul\":11235:11555   */\n    tag_31:\n        /* \"#utility.yul\":11279:11285   */\n      0x00\n        /* \"#utility.yul\":11316:11317   */\n      0x02\n        /* \"#utility.yul\":11310:11314   */\n      dup3\n        /* \"#utility.yul\":11306:11318   */\n      div\n        /* \"#utility.yul\":11296:11318   */\n      swap1\n      pop\n        /* \"#utility.yul\":11363:11364   */\n      0x01\n        /* \"#utility.yul\":11357:11361   */\n      dup3\n        /* \"#utility.yul\":11353:11365   */\n      and\n        /* \"#utility.yul\":11384:11402   */\n      dup1\n        /* \"#utility.yul\":11374:11455   */\n      tag_224\n      jumpi\n        /* \"#utility.yul\":11440:11444   */\n      0x7f\n        /* \"#utility.yul\":11432:11438   */\n      dup3\n        /* \"#utility.yul\":11428:11445   */\n      and\n        /* \"#utility.yul\":11418:11445   */\n      swap2\n      pop\n        /* \"#utility.yul\":11374:11455   */\n    tag_224:\n        /* \"#utility.yul\":11502:11504   */\n      0x20\n        /* \"#utility.yul\":11494:11500   */\n      dup3\n        /* \"#utility.yul\":11491:11505   */\n      lt\n        /* \"#utility.yul\":11471:11489   */\n      dup2\n        /* \"#utility.yul\":11468:11506   */\n      sub\n        /* \"#utility.yul\":11465:11549   */\n      tag_225\n      jumpi\n        /* \"#utility.yul\":11521:11539   */\n      tag_226\n      tag_91\n      jump\t// in\n    tag_226:\n        /* \"#utility.yul\":11465:11549   */\n    tag_225:\n        /* \"#utility.yul\":11286:11555   */\n      pop\n        /* \"#utility.yul\":11235:11555   */\n      swap2\n      swap1\n      pop\n      jump\t// out\n        /* \"#utility.yul\":11561:11730   */\n    tag_92:\n        /* \"#utility.yul\":11701:11722   */\n      0x596f757220747765657420746f6f206c6f6e6700000000000000000000000000\n        /* \"#utility.yul\":11697:11698   */\n      0x00\n        /* \"#utility.yul\":11689:11695   */\n      dup3\n        /* \"#utility.yul\":11685:11699   */\n      add\n        /* \"#utility.yul\":11678:11723   */\n      mstore\n        /* \"#utility.yul\":11561:11730   */\n      pop\n      jump\t// out\n        /* \"#utility.yul\":11736:12102   */\n    tag_93:\n        /* \"#utility.yul\":11878:11881   */\n      0x00\n        /* \"#utility.yul\":11899:11966   */\n      tag_229\n        /* \"#utility.yul\":11963:11965   */\n      0x13\n        /* \"#utility.yul\":11958:11961   */\n      dup4\n        /* \"#utility.yul\":11899:11966   */\n      tag_66\n      jump\t// in\n    tag_229:\n        /* \"#utility.yul\":11892:11966   */\n      swap2\n      pop\n        /* \"#utility.yul\":11975:12068   */\n      tag_230\n        /* \"#utility.yul\":12064:12067   */\n      dup3\n        /* \"#utility.yul\":11975:12068   */\n      tag_92\n      jump\t// in\n    tag_230:\n        /* \"#utility.yul\":12093:12095   */\n      0x20\n        /* \"#utility.yul\":12088:12091   */\n      dup3\n        /* \"#utility.yul\":12084:12096   */\n      add\n        /* \"#utility.yul\":12077:12096   */\n      swap1\n      pop\n        /* \"#utility.yul\":11736:12102   */\n      swap2\n      swap1\n      pop\n      jump\t// out\n        /* \"#utility.yul\":12108:12527   */\n    tag_50:\n        /* \"#utility.yul\":12274:12278   */\n      0x00\n        /* \"#utility.yul\":12312:12314   */\n      0x20\n        /* \"#utility.yul\":12301:12310   */\n      dup3\n        /* \"#utility.yul\":12297:12315   */\n      add\n        /* \"#utility.yul\":12289:12315   */\n      swap1\n      pop\n        /* \"#utility.yul\":12361:12370   */\n      dup2\n        /* \"#utility.yul\":12355:12359   */\n      dup2\n        /* \"#utility.yul\":12351:12371   */\n      sub\n        /* \"#utility.yul\":12347:12348   */\n      0x00\n        /* \"#utility.yul\":12336:12345   */\n      dup4\n        /* \"#utility.yul\":12332:12349   */\n      add\n        /* \"#utility.yul\":12325:12372   */\n      mstore\n        /* \"#utility.yul\":12389:12520   */\n      tag_232\n        /* \"#utility.yul\":12515:12519   */\n      dup2\n        /* \"#utility.yul\":12389:12520   */\n      tag_93\n      jump\t// in\n    tag_232:\n        /* \"#utility.yul\":12381:12520   */\n      swap1\n      pop\n        /* \"#utility.yul\":12108:12527   */\n      swap2\n      swap1\n      pop\n      jump\t// out\n        /* \"#utility.yul\":12533:12674   */\n    tag_94:\n        /* \"#utility.yul\":12582:12586   */\n      0x00\n        /* \"#utility.yul\":12605:12608   */\n      dup2\n        /* \"#utility.yul\":12597:12608   */\n      swap1\n      pop\n        /* \"#utility.yul\":12628:12631   */\n      dup2\n        /* \"#utility.yul\":12625:12626   */\n      0x00\n        /* \"#utility.yul\":12618:12632   */\n      mstore\n        /* \"#utility.yul\":12662:12666   */\n      0x20\n        /* \"#utility.yul\":12659:12660   */\n      0x00\n        /* \"#utility.yul\":12649:12667   */\n      keccak256\n        /* \"#utility.yul\":12641:12667   */\n      swap1\n      pop\n        /* \"#utility.yul\":12533:12674   */\n      swap2\n      swap1\n      pop\n      jump\t// out\n        /* \"#utility.yul\":12680:12773   */\n    tag_95:\n        /* \"#utility.yul\":12717:12723   */\n      0x00\n        /* \"#utility.yul\":12764:12766   */\n      0x20\n        /* \"#utility.yul\":12759:12761   */\n      0x1f\n        /* \"#utility.yul\":12752:12757   */\n      dup4\n        /* \"#utility.yul\":12748:12762   */\n      add\n        /* \"#utility.yul\":12744:12767   */\n      div\n        /* \"#utility.yul\":12734:12767   */\n      swap1\n      pop\n        /* \"#utility.yul\":12680:12773   */\n      swap2\n      swap1\n      pop\n      jump\t// out\n        /* \"#utility.yul\":12779:12886   */\n    tag_96:\n        /* \"#utility.yul\":12823:12831   */\n      0x00\n        /* \"#utility.yul\":12873:12878   */\n      dup3\n        /* \"#utility.yul\":12867:12871   */\n      dup3\n        /* \"#utility.yul\":12863:12879   */\n      shl\n        /* \"#utility.yul\":12842:12879   */\n      swap1\n      pop\n        /* \"#utility.yul\":12779:12886   */\n      swap3\n      swap2\n      pop\n      pop\n      jump\t// out\n        /* \"#utility.yul\":12892:13285   */\n    tag_97:\n        /* \"#utility.yul\":12961:12967   */\n      0x00\n        /* \"#utility.yul\":13011:13012   */\n      0x08\n        /* \"#utility.yul\":12999:13009   */\n      dup4\n        /* \"#utility.yul\":12995:13013   */\n      mul\n        /* \"#utility.yul\":13034:13131   */\n      tag_237\n        /* \"#utility.yul\":13064:13130   */\n      0xffffffffffffffffffffffffffffffffffffffffffffffffffffffffffffffff\n        /* \"#utility.yul\":13053:13062   */\n      dup3\n        /* \"#utility.yul\":13034:13131   */\n      tag_96\n      jump\t// in\n    tag_237:\n        /* \"#utility.yul\":13152:13191   */\n      tag_238\n        /* \"#utility.yul\":13182:13190   */\n      dup7\n        /* \"#utility.yul\":13171:13180   */\n      dup4\n        /* \"#utility.yul\":13152:13191   */\n      tag_96\n      jump\t// in\n    tag_238:\n        /* \"#utility.yul\":13140:13191   */\n      swap6\n      pop\n        /* \"#utility.yul\":13224:13228   */\n      dup1\n        /* \"#utility.yul\":13220:13229   */\n      not\n        /* \"#utility.yul\":13213:13218   */\n      dup5\n        /* \"#utility.yul\":13209:13230   */\n      and\n        /* \"#utility.yul\":13200:13230   */\n      swap4\n      pop\n        /* \"#utility.yul\":13273:13277   */\n      dup1\n        /* \"#utility.yul\":13263:13271   */\n      dup7\n        /* \"#utility.yul\":13259:13278   */\n      and\n        /* \"#utility.yul\":13252:13257   */\n      dup5\n        /* \"#utility.yul\":13249:13279   */\n      or\n        /* \"#utility.yul\":13239:13279   */\n      swap3\n      pop\n        /* \"#utility.yul\":12968:13285   */\n      pop\n      pop\n        /* \"#utility.yul\":12892:13285   */\n      swap4\n      swap3\n      pop\n      pop\n      pop\n      jump\t// out\n        /* \"#utility.yul\":13291:13351   */\n    tag_98:\n        /* \"#utility.yul\":13319:13322   */\n      0x00\n        /* \"#utility.yul\":13340:13345   */\n      dup2\n        /* \"#utility.yul\":13333:13345   */\n      swap1\n      pop\n        /* \"#utility.yul\":13291:13351   */\n      swap2\n      swap1\n      pop\n      jump\t// out\n        /* \"#utility.yul\":13357:13499   */\n    tag_99:\n        /* \"#utility.yul\":13407:13416   */\n      0x00\n        /* \"#utility.yul\":13440:13493   */\n      tag_241\n        /* \"#utility.yul\":13458:13492   */\n      tag_242\n        /* \"#utility.yul\":13467:13491   */\n      tag_243\n        /* \"#utility.yul\":13485:13490   */\n      dup5\n        /* \"#utility.yul\":13467:13491   */\n      tag_61\n      jump\t// in\n    tag_243:\n        /* \"#utility.yul\":13458:13492   */\n      tag_98\n      jump\t// in\n    tag_242:\n        /* \"#utility.yul\":13440:13493   */\n      tag_61\n      jump\t// in\n    tag_241:\n        /* \"#utility.yul\":13427:13493   */\n      swap1\n      pop\n        /* \"#utility.yul\":13357:13499   */\n      swap2\n      swap1\n      pop\n      jump\t// out\n        /* \"#utility.yul\":13505:13580   */\n    tag_100:\n        /* \"#utility.yul\":13548:13551   */\n      0x00\n        /* \"#utility.yul\":13569:13574   */\n      dup2\n        /* \"#utility.yul\":13562:13574   */\n      swap1\n      pop\n        /* \"#utility.yul\":13505:13580   */\n      swap2\n      swap1\n      pop\n      jump\t// out\n        /* \"#utility.yul\":13586:13855   */\n    tag_101:\n        /* \"#utility.yul\":13696:13735   */\n      tag_246\n        /* \"#utility.yul\":13727:13734   */\n      dup4\n        /* \"#utility.yul\":13696:13735   */\n      tag_99\n      jump\t// in\n    tag_246:\n        /* \"#utility.yul\":13757:13848   */\n      tag_247\n        /* \"#utility.yul\":13806:13847   */\n      tag_248\n        /* \"#utility.yul\":13830:13846   */\n      dup3\n        /* \"#utility.yul\":13806:13847   */\n      tag_100\n      jump\t// in\n    tag_248:\n        /* \"#utility.yul\":13798:13804   */\n      dup5\n        /* \"#utility.yul\":13791:13795   */\n      dup5\n        /* \"#utility.yul\":13785:13796   */\n      sload\n        /* \"#utility.yul\":13757:13848   */\n      tag_97\n      jump\t// in\n    tag_247:\n        /* \"#utility.yul\":13751:13755   */\n      dup3\n        /* \"#utility.yul\":13744:13849   */\n      sstore\n        /* \"#utility.yul\":13662:13855   */\n      pop\n        /* \"#utility.yul\":13586:13855   */\n      pop\n      pop\n      pop\n      jump\t// out\n        /* \"#utility.yul\":13861:13934   */\n    tag_102:\n        /* \"#utility.yul\":13906:13909   */\n      0x00\n        /* \"#utility.yul\":13861:13934   */\n      swap1\n      jump\t// out\n        /* \"#utility.yul\":13940:14129   */\n    tag_103:\n        /* \"#utility.yul\":14017:14049   */\n      tag_251\n      tag_102\n      jump\t// in\n    tag_251:\n        /* \"#utility.yul\":14058:14123   */\n      tag_252\n        /* \"#utility.yul\":14116:14122   */\n      dup2\n        /* \"#utility.yul\":14108:14114   */\n      dup5\n        /* \"#utility.yul\":14102:14106   */\n      dup5\n        /* \"#utility.yul\":14058:14123   */\n      tag_101\n      jump\t// in\n    tag_252:\n        /* \"#utility.yul\":13993:14129   */\n      pop\n        /* \"#utility.yul\":13940:14129   */\n      pop\n      pop\n      jump\t// out\n        /* \"#utility.yul\":14135:14321   */\n    tag_104:\n        /* \"#utility.yul\":14195:14315   */\n    tag_254:\n        /* \"#utility.yul\":14212:14215   */\n      dup2\n        /* \"#utility.yul\":14205:14210   */\n      dup2\n        /* \"#utility.yul\":14202:14216   */\n      lt\n        /* \"#utility.yul\":14195:14315   */\n      iszero\n      tag_256\n      jumpi\n        /* \"#utility.yul\":14266:14305   */\n      tag_257\n        /* \"#utility.yul\":14303:14304   */\n      0x00\n        /* \"#utility.yul\":14296:14301   */\n      dup3\n        /* \"#utility.yul\":14266:14305   */\n      tag_103\n      jump\t// in\n    tag_257:\n        /* \"#utility.yul\":14239:14240   */\n      0x01\n        /* \"#utility.yul\":14232:14237   */\n      dup2\n        /* \"#utility.yul\":14228:14241   */\n      add\n        /* \"#utility.yul\":14219:14241   */\n      swap1\n      pop\n        /* \"#utility.yul\":14195:14315   */\n      jump(tag_254)\n    tag_256:\n        /* \"#utility.yul\":14135:14321   */\n      pop\n      pop\n      jump\t// out\n        /* \"#utility.yul\":14327:14870   */\n    tag_105:\n        /* \"#utility.yul\":14428:14430   */\n      0x1f\n        /* \"#utility.yul\":14423:14426   */\n      dup3\n        /* \"#utility.yul\":14420:14431   */\n      gt\n        /* \"#utility.yul\":14417:14863   */\n      iszero\n      tag_259\n      jumpi\n        /* \"#utility.yul\":14462:14500   */\n      tag_260\n        /* \"#utility.yul\":14494:14499   */\n      dup2\n        /* \"#utility.yul\":14462:14500   */\n      tag_94\n      jump\t// in\n    tag_260:\n        /* \"#utility.yul\":14546:14575   */\n      tag_261\n        /* \"#utility.yul\":14564:14574   */\n      dup5\n        /* \"#utility.yul\":14546:14575   */\n      tag_95\n      jump\t// in\n    tag_261:\n        /* \"#utility.yul\":14536:14544   */\n      dup2\n        /* \"#utility.yul\":14532:14576   */\n      add\n        /* \"#utility.yul\":14729:14731   */\n      0x20\n        /* \"#utility.yul\":14717:14727   */\n      dup6\n        /* \"#utility.yul\":14714:14732   */\n      lt\n        /* \"#utility.yul\":14711:14760   */\n      iszero\n      tag_262\n      jumpi\n        /* \"#utility.yul\":14750:14758   */\n      dup2\n        /* \"#utility.yul\":14735:14758   */\n      swap1\n      pop\n        /* \"#utility.yul\":14711:14760   */\n    tag_262:\n        /* \"#utility.yul\":14773:14853   */\n      tag_263\n        /* \"#utility.yul\":14829:14851   */\n      tag_264\n        /* \"#utility.yul\":14847:14850   */\n      dup6\n        /* \"#utility.yul\":14829:14851   */\n      tag_95\n      jump\t// in\n    tag_264:\n        /* \"#utility.yul\":14819:14827   */\n      dup4\n        /* \"#utility.yul\":14815:14852   */\n      add\n        /* \"#utility.yul\":14802:14813   */\n      dup3\n        /* \"#utility.yul\":14773:14853   */\n      tag_104\n      jump\t// in\n    tag_263:\n        /* \"#utility.yul\":14432:14863   */\n      pop\n      pop\n        /* \"#utility.yul\":14417:14863   */\n    tag_259:\n        /* \"#utility.yul\":14327:14870   */\n      pop\n      pop\n      pop\n      jump\t// out\n        /* \"#utility.yul\":14876:14993   */\n    tag_106:\n        /* \"#utility.yul\":14930:14938   */\n      0x00\n        /* \"#utility.yul\":14980:14985   */\n      dup3\n        /* \"#utility.yul\":14974:14978   */\n      dup3\n        /* \"#utility.yul\":14970:14986   */\n      shr\n        /* \"#utility.yul\":14949:14986   */\n      swap1\n      pop\n        /* \"#utility.yul\":14876:14993   */\n      swap3\n      swap2\n      pop\n      pop\n      jump\t// out\n        /* \"#utility.yul\":14999:15168   */\n    tag_107:\n        /* \"#utility.yul\":15043:15049   */\n      0x00\n        /* \"#utility.yul\":15076:15127   */\n      tag_267\n        /* \"#utility.yul\":15124:15125   */\n      0x00\n        /* \"#utility.yul\":15120:15126   */\n      not\n        /* \"#utility.yul\":15112:15117   */\n      dup5\n        /* \"#utility.yul\":15109:15110   */\n      0x08\n        /* \"#utility.yul\":15105:15118   */\n      mul\n        /* \"#utility.yul\":15076:15127   */\n      tag_106\n      jump\t// in\n    tag_267:\n        /* \"#utility.yul\":15072:15128   */\n      not\n        /* \"#utility.yul\":15157:15161   */\n      dup1\n        /* \"#utility.yul\":15151:15155   */\n      dup4\n        /* \"#utility.yul\":15147:15162   */\n      and\n        /* \"#utility.yul\":15137:15162   */\n      swap2\n      pop\n        /* \"#utility.yul\":15050:15168   */\n      pop\n        /* \"#utility.yul\":14999:15168   */\n      swap3\n      swap2\n      pop\n      pop\n      jump\t// out\n        /* \"#utility.yul\":15173:15468   */\n    tag_108:\n        /* \"#utility.yul\":15249:15253   */\n      0x00\n        /* \"#utility.yul\":15395:15424   */\n      tag_269\n        /* \"#utility.yul\":15420:15423   */\n      dup4\n        /* \"#utility.yul\":15414:15418   */\n      dup4\n        /* \"#utility.yul\":15395:15424   */\n      tag_107\n      jump\t// in\n    tag_269:\n        /* \"#utility.yul\":15387:15424   */\n      swap2\n      pop\n        /* \"#utility.yul\":15457:15460   */\n      dup3\n        /* \"#utility.yul\":15454:15455   */\n      0x02\n        /* \"#utility.yul\":15450:15461   */\n      mul\n        /* \"#utility.yul\":15444:15448   */\n      dup3\n        /* \"#utility.yul\":15441:15462   */\n      or\n        /* \"#utility.yul\":15433:15462   */\n      swap1\n      pop\n        /* \"#utility.yul\":15173:15468   */\n      swap3\n      swap2\n      pop\n      pop\n      jump\t// out\n        /* \"#utility.yul\":15473:16868   */\n    tag_53:\n        /* \"#utility.yul\":15590:15627   */\n      tag_271\n        /* \"#utility.yul\":15623:15626   */\n      dup3\n        /* \"#utility.yul\":15590:15627   */\n      tag_65\n      jump\t// in\n    tag_271:\n        /* \"#utility.yul\":15692:15710   */\n      0xffffffffffffffff\n        /* \"#utility.yul\":15684:15690   */\n      dup2\n        /* \"#utility.yul\":15681:15711   */\n      gt\n        /* \"#utility.yul\":15678:15734   */\n      iszero\n      tag_272\n      jumpi\n        /* \"#utility.yul\":15714:15732   */\n      tag_273\n      tag_84\n      jump\t// in\n    tag_273:\n        /* \"#utility.yul\":15678:15734   */\n    tag_272:\n        /* \"#utility.yul\":15758:15796   */\n      tag_274\n        /* \"#utility.yul\":15790:15794   */\n      dup3\n        /* \"#utility.yul\":15784:15795   */\n      sload\n        /* \"#utility.yul\":15758:15796   */\n      tag_31\n      jump\t// in\n    tag_274:\n        /* \"#utility.yul\":15843:15910   */\n      tag_275\n        /* \"#utility.yul\":15903:15909   */\n      dup3\n        /* \"#utility.yul\":15895:15901   */\n      dup3\n        /* \"#utility.yul\":15889:15893   */\n      dup6\n        /* \"#utility.yul\":15843:15910   */\n      tag_105\n      jump\t// in\n    tag_275:\n        /* \"#utility.yul\":15937:15938   */\n      0x00\n        /* \"#utility.yul\":15961:15965   */\n      0x20\n        /* \"#utility.yul\":15948:15965   */\n      swap1\n      pop\n        /* \"#utility.yul\":15993:15995   */\n      0x1f\n        /* \"#utility.yul\":15985:15991   */\n      dup4\n        /* \"#utility.yul\":15982:15996   */\n      gt\n        /* \"#utility.yul\":16010:16011   */\n      0x01\n        /* \"#utility.yul\":16005:16623   */\n      dup2\n      eq\n      tag_277\n      jumpi\n        /* \"#utility.yul\":16667:16668   */\n      0x00\n        /* \"#utility.yul\":16684:16690   */\n      dup5\n        /* \"#utility.yul\":16681:16758   */\n      iszero\n      tag_278\n      jumpi\n        /* \"#utility.yul\":16733:16742   */\n      dup3\n        /* \"#utility.yul\":16728:16731   */\n      dup8\n        /* \"#utility.yul\":16724:16743   */\n      add\n        /* \"#utility.yul\":16718:16744   */\n      mload\n        /* \"#utility.yul\":16709:16744   */\n      swap1\n      pop\n        /* \"#utility.yul\":16681:16758   */\n    tag_278:\n        /* \"#utility.yul\":16784:16851   */\n      tag_279\n        /* \"#utility.yul\":16844:16850   */\n      dup6\n        /* \"#utility.yul\":16837:16842   */\n      dup3\n        /* \"#utility.yul\":16784:16851   */\n      tag_108\n      jump\t// in\n    tag_279:\n        /* \"#utility.yul\":16778:16782   */\n      dup7\n        /* \"#utility.yul\":16771:16852   */\n      sstore\n        /* \"#utility.yul\":16640:16862   */\n      pop\n        /* \"#utility.yul\":15975:16862   */\n      jump(tag_276)\n        /* \"#utility.yul\":16005:16623   */\n    tag_277:\n        /* \"#utility.yul\":16057:16061   */\n      0x1f\n        /* \"#utility.yul\":16053:16062   */\n      not\n        /* \"#utility.yul\":16045:16051   */\n      dup5\n        /* \"#utility.yul\":16041:16063   */\n      and\n        /* \"#utility.yul\":16091:16128   */\n      tag_280\n        /* \"#utility.yul\":16123:16127   */\n      dup7\n        /* \"#utility.yul\":16091:16128   */\n      tag_94\n      jump\t// in\n    tag_280:\n        /* \"#utility.yul\":16150:16151   */\n      0x00\n        /* \"#utility.yul\":16164:16372   */\n    tag_281:\n        /* \"#utility.yul\":16178:16185   */\n      dup3\n        /* \"#utility.yul\":16175:16176   */\n      dup2\n        /* \"#utility.yul\":16172:16186   */\n      lt\n        /* \"#utility.yul\":16164:16372   */\n      iszero\n      tag_283\n      jumpi\n        /* \"#utility.yul\":16257:16266   */\n      dup5\n        /* \"#utility.yul\":16252:16255   */\n      dup10\n        /* \"#utility.yul\":16248:16267   */\n      add\n        /* \"#utility.yul\":16242:16268   */\n      mload\n        /* \"#utility.yul\":16234:16240   */\n      dup3\n        /* \"#utility.yul\":16227:16269   */\n      sstore\n        /* \"#utility.yul\":16308:16309   */\n      0x01\n        /* \"#utility.yul\":16300:16306   */\n      dup3\n        /* \"#utility.yul\":16296:16310   */\n      add\n        /* \"#utility.yul\":16286:16310   */\n      swap2\n      pop\n        /* \"#utility.yul\":16355:16357   */\n      0x20\n        /* \"#utility.yul\":16344:16353   */\n      dup6\n        /* \"#utility.yul\":16340:16358   */\n      add\n        /* \"#utility.yul\":16327:16358   */\n      swap5\n      pop\n        /* \"#utility.yul\":16201:16205   */\n      0x20\n        /* \"#utility.yul\":16198:16199   */\n      dup2\n        /* \"#utility.yul\":16194:16206   */\n      add\n        /* \"#utility.yul\":16189:16206   */\n      swap1\n      pop\n        /* \"#utility.yul\":16164:16372   */\n      jump(tag_281)\n    tag_283:\n        /* \"#utility.yul\":16400:16406   */\n      dup7\n        /* \"#utility.yul\":16391:16398   */\n      dup4\n        /* \"#utility.yul\":16388:16407   */\n      lt\n        /* \"#utility.yul\":16385:16564   */\n      iszero\n      tag_284\n      jumpi\n        /* \"#utility.yul\":16458:16467   */\n      dup5\n        /* \"#utility.yul\":16453:16456   */\n      dup10\n        /* \"#utility.yul\":16449:16468   */\n      add\n        /* \"#utility.yul\":16443:16469   */\n      mload\n        /* \"#utility.yul\":16501:16549   */\n      tag_285\n        /* \"#utility.yul\":16543:16547   */\n      0x1f\n        /* \"#utility.yul\":16535:16541   */\n      dup10\n        /* \"#utility.yul\":16531:16548   */\n      and\n        /* \"#utility.yul\":16520:16529   */\n      dup3\n        /* \"#utility.yul\":16501:16549   */\n      tag_107\n      jump\t// in\n    tag_285:\n        /* \"#utility.yul\":16493:16499   */\n      dup4\n        /* \"#utility.yul\":16486:16550   */\n      sstore\n        /* \"#utility.yul\":16408:16564   */\n      pop\n        /* \"#utility.yul\":16385:16564   */\n    tag_284:\n        /* \"#utility.yul\":16610:16611   */\n      0x01\n        /* \"#utility.yul\":16606:16607   */\n      0x02\n        /* \"#utility.yul\":16598:16604   */\n      dup9\n        /* \"#utility.yul\":16594:16608   */\n      mul\n        /* \"#utility.yul\":16590:16612   */\n      add\n        /* \"#utility.yul\":16584:16588   */\n      dup9\n        /* \"#utility.yul\":16577:16613   */\n      sstore\n        /* \"#utility.yul\":16012:16623   */\n      pop\n      pop\n      pop\n        /* \"#utility.yul\":15975:16862   */\n    tag_276:\n      pop\n        /* \"#utility.yul\":15565:16868   */\n      pop\n      pop\n      pop\n        /* \"#utility.yul\":15473:16868   */\n      pop\n      pop\n      jump\t// out\n\n    auxdata: 0xa26469706673582212203cf45a4f54ca75e8217a7e61fe82d803ac7d9623ee5b9fcb0c5f870a3433670e64736f6c63430008160033\n}\n",
				"bytecode": {
					"linkReferences": {},
					"object": "608060405234801561000f575f80fd5b50610d6c8061001d5f395ff3fe608060405234801561000f575f80fd5b506004361061004a575f3560e01c806305a1b4a91461004e57806312e7ee1c146100815780636981b5f4146100b15780637c9cd2bc146100e1575b5f80fd5b6100686004803603810190610063919061057d565b6100fd565b6040516100789493929190610663565b60405180910390f35b61009b600480360381019061009691906106ad565b6101e7565b6040516100a89190610859565b60405180910390f35b6100cb60048036038101906100c691906109a5565b610377565b6040516100d891906109ec565b60405180910390f35b6100fb60048036038101906100f691906109a5565b610381565b005b5f602052815f5260405f208181548110610115575f80fd5b905f5260205f2090600402015f9150915050805f015f9054906101000a900473ffffffffffffffffffffffffffffffffffffffff169080600101805461015a90610a32565b80601f016020809104026020016040519081016040528092919081815260200182805461018690610a32565b80156101d15780601f106101a8576101008083540402835291602001916101d1565b820191905f5260205f20905b8154815290600101906020018083116101b457829003601f168201915b5050505050908060020154908060030154905084565b60605f808373ffffffffffffffffffffffffffffffffffffffff1673ffffffffffffffffffffffffffffffffffffffff1681526020019081526020015f20805480602002602001604051908101604052809291908181526020015f905b8282101561036c578382905f5260205f2090600402016040518060800160405290815f82015f9054906101000a900473ffffffffffffffffffffffffffffffffffffffff1673ffffffffffffffffffffffffffffffffffffffff1673ffffffffffffffffffffffffffffffffffffffff1681526020016001820180546102c990610a32565b80601f01602080910402602001604051908101604052809291908181526020018280546102f590610a32565b80156103405780601f1061031757610100808354040283529160200191610340565b820191905f5260205f20905b81548152906001019060200180831161032357829003601f168201915b505050505081526020016002820154815260200160038201548152505081526020019060010190610244565b505050509050919050565b5f81519050919050565b61011861038d82610377565b11156103ce576040517f08c379a00000000000000000000000000000000000000000000000000000000081526004016103c590610aac565b60405180910390fd5b5f60405180608001604052803373ffffffffffffffffffffffffffffffffffffffff1681526020018381526020014281526020015f81525090505f803373ffffffffffffffffffffffffffffffffffffffff1673ffffffffffffffffffffffffffffffffffffffff1681526020019081526020015f2081908060018154018082558091505060019003905f5260205f2090600402015f909190919091505f820151815f015f6101000a81548173ffffffffffffffffffffffffffffffffffffffff021916908373ffffffffffffffffffffffffffffffffffffffff16021790555060208201518160010190816104c49190610c67565b50604082015181600201556060820151816003015550505050565b5f604051905090565b5f80fd5b5f80fd5b5f73ffffffffffffffffffffffffffffffffffffffff82169050919050565b5f610519826104f0565b9050919050565b6105298161050f565b8114610533575f80fd5b50565b5f8135905061054481610520565b92915050565b5f819050919050565b61055c8161054a565b8114610566575f80fd5b50565b5f8135905061057781610553565b92915050565b5f8060408385031215610593576105926104e8565b5b5f6105a085828601610536565b92505060206105b185828601610569565b9150509250929050565b6105c48161050f565b82525050565b5f81519050919050565b5f82825260208201905092915050565b5f5b838110156106015780820151818401526020810190506105e6565b5f8484015250505050565b5f601f19601f8301169050919050565b5f610626826105ca565b61063081856105d4565b93506106408185602086016105e4565b6106498161060c565b840191505092915050565b61065d8161054a565b82525050565b5f6080820190506106765f8301876105bb565b8181036020830152610688818661061c565b90506106976040830185610654565b6106a46060830184610654565b95945050505050565b5f602082840312156106c2576106c16104e8565b5b5f6106cf84828501610536565b91505092915050565b5f81519050919050565b5f82825260208201905092915050565b5f819050602082019050919050565b61070a8161050f565b82525050565b5f82825260208201905092915050565b5f61072a826105ca565b6107348185610710565b93506107448185602086016105e4565b61074d8161060c565b840191505092915050565b6107618161054a565b82525050565b5f608083015f83015161077c5f860182610701565b50602083015184820360208601526107948282610720565b91505060408301516107a96040860182610758565b5060608301516107bc6060860182610758565b508091505092915050565b5f6107d28383610767565b905092915050565b5f602082019050919050565b5f6107f0826106d8565b6107fa81856106e2565b93508360208202850161080c856106f2565b805f5b85811015610847578484038952815161082885826107c7565b9450610833836107da565b925060208a0199505060018101905061080f565b50829750879550505050505092915050565b5f6020820190508181035f83015261087181846107e6565b905092915050565b5f80fd5b5f80fd5b7f4e487b71000000000000000000000000000000000000000000000000000000005f52604160045260245ffd5b6108b78261060c565b810181811067ffffffffffffffff821117156108d6576108d5610881565b5b80604052505050565b5f6108e86104df565b90506108f482826108ae565b919050565b5f67ffffffffffffffff82111561091357610912610881565b5b61091c8261060c565b9050602081019050919050565b828183375f83830152505050565b5f610949610944846108f9565b6108df565b9050828152602081018484840111156109655761096461087d565b5b610970848285610929565b509392505050565b5f82601f83011261098c5761098b610879565b5b813561099c848260208601610937565b91505092915050565b5f602082840312156109ba576109b96104e8565b5b5f82013567ffffffffffffffff8111156109d7576109d66104ec565b5b6109e384828501610978565b91505092915050565b5f6020820190506109ff5f830184610654565b92915050565b7f4e487b71000000000000000000000000000000000000000000000000000000005f52602260045260245ffd5b5f6002820490506001821680610a4957607f821691505b602082108103610a5c57610a5b610a05565b5b50919050565b7f596f757220747765657420746f6f206c6f6e67000000000000000000000000005f82015250565b5f610a966013836105d4565b9150610aa182610a62565b602082019050919050565b5f6020820190508181035f830152610ac381610a8a565b9050919050565b5f819050815f5260205f209050919050565b5f6020601f8301049050919050565b5f82821b905092915050565b5f60088302610b267fffffffffffffffffffffffffffffffffffffffffffffffffffffffffffffffff82610aeb565b610b308683610aeb565b95508019841693508086168417925050509392505050565b5f819050919050565b5f610b6b610b66610b618461054a565b610b48565b61054a565b9050919050565b5f819050919050565b610b8483610b51565b610b98610b9082610b72565b848454610af7565b825550505050565b5f90565b610bac610ba0565b610bb7818484610b7b565b505050565b5b81811015610bda57610bcf5f82610ba4565b600181019050610bbd565b5050565b601f821115610c1f57610bf081610aca565b610bf984610adc565b81016020851015610c08578190505b610c1c610c1485610adc565b830182610bbc565b50505b505050565b5f82821c905092915050565b5f610c3f5f1984600802610c24565b1980831691505092915050565b5f610c578383610c30565b9150826002028217905092915050565b610c70826105ca565b67ffffffffffffffff811115610c8957610c88610881565b5b610c938254610a32565b610c9e828285610bde565b5f60209050601f831160018114610ccf575f8415610cbd578287015190505b610cc78582610c4c565b865550610d2e565b601f198416610cdd86610aca565b5f5b82811015610d0457848901518255600182019150602085019450602081019050610cdf565b86831015610d215784890151610d1d601f891682610c30565b8355505b6001600288020188555050505b50505050505056fea26469706673582212203cf45a4f54ca75e8217a7e61fe82d803ac7d9623ee5b9fcb0c5f870a3433670e64736f6c63430008160033",
					"opcodes": "PUSH1 0x80 PUSH1 0x40 MSTORE CALLVALUE DUP1 ISZERO PUSH2 0xF JUMPI PUSH0 DUP1 REVERT JUMPDEST POP PUSH2 0xD6C DUP1 PUSH2 0x1D PUSH0 CODECOPY PUSH0 RETURN INVALID PUSH1 0x80 PUSH1 0x40 MSTORE CALLVALUE DUP1 ISZERO PUSH2 0xF JUMPI PUSH0 DUP1 REVERT JUMPDEST POP PUSH1 0x4 CALLDATASIZE LT PUSH2 0x4A JUMPI PUSH0 CALLDATALOAD PUSH1 0xE0 SHR DUP1 PUSH4 0x5A1B4A9 EQ PUSH2 0x4E JUMPI DUP1 PUSH4 0x12E7EE1C EQ PUSH2 0x81 JUMPI DUP1 PUSH4 0x6981B5F4 EQ PUSH2 0xB1 JUMPI DUP1 PUSH4 0x7C9CD2BC EQ PUSH2 0xE1 JUMPI JUMPDEST PUSH0 DUP1 REVERT JUMPDEST PUSH2 0x68 PUSH1 0x4 DUP1 CALLDATASIZE SUB DUP2 ADD SWAP1 PUSH2 0x63 SWAP2 SWAP1 PUSH2 0x57D JUMP JUMPDEST PUSH2 0xFD JUMP JUMPDEST PUSH1 0x40 MLOAD PUSH2 0x78 SWAP5 SWAP4 SWAP3 SWAP2 SWAP1 PUSH2 0x663 JUMP JUMPDEST PUSH1 0x40 MLOAD DUP1 SWAP2 SUB SWAP1 RETURN JUMPDEST PUSH2 0x9B PUSH1 0x4 DUP1 CALLDATASIZE SUB DUP2 ADD SWAP1 PUSH2 0x96 SWAP2 SWAP1 PUSH2 0x6AD JUMP JUMPDEST PUSH2 0x1E7 JUMP JUMPDEST PUSH1 0x40 MLOAD PUSH2 0xA8 SWAP2 SWAP1 PUSH2 0x859 JUMP JUMPDEST PUSH1 0x40 MLOAD DUP1 SWAP2 SUB SWAP1 RETURN JUMPDEST PUSH2 0xCB PUSH1 0x4 DUP1 CALLDATASIZE SUB DUP2 ADD SWAP1 PUSH2 0xC6 SWAP2 SWAP1 PUSH2 0x9A5 JUMP JUMPDEST PUSH2 0x377 JUMP JUMPDEST PUSH1 0x40 MLOAD PUSH2 0xD8 SWAP2 SWAP1 PUSH2 0x9EC JUMP JUMPDEST PUSH1 0x40 MLOAD DUP1 SWAP2 SUB SWAP1 RETURN JUMPDEST PUSH2 0xFB PUSH1 0x4 DUP1 CALLDATASIZE SUB DUP2 ADD SWAP1 PUSH2 0xF6 SWAP2 SWAP1 PUSH2 0x9A5 JUMP JUMPDEST PUSH2 0x381 JUMP JUMPDEST STOP JUMPDEST PUSH0 PUSH1 0x20 MSTORE DUP2 PUSH0 MSTORE PUSH1 0x40 PUSH0 KECCAK256 DUP2 DUP2 SLOAD DUP2 LT PUSH2 0x115 JUMPI PUSH0 DUP1 REVERT JUMPDEST SWAP1 PUSH0 MSTORE PUSH1 0x20 PUSH0 KECCAK256 SWAP1 PUSH1 0x4 MUL ADD PUSH0 SWAP2 POP SWAP2 POP POP DUP1 PUSH0 ADD PUSH0 SWAP1 SLOAD SWAP1 PUSH2 0x100 EXP SWAP1 DIV PUSH20 0xFFFFFFFFFFFFFFFFFFFFFFFFFFFFFFFFFFFFFFFF AND SWAP1 DUP1 PUSH1 0x1 ADD DUP1 SLOAD PUSH2 0x15A SWAP1 PUSH2 0xA32 JUMP JUMPDEST DUP1 PUSH1 0x1F ADD PUSH1 0x20 DUP1 SWAP2 DIV MUL PUSH1 0x20 ADD PUSH1 0x40 MLOAD SWAP1 DUP2 ADD PUSH1 0x40 MSTORE DUP1 SWAP3 SWAP2 SWAP1 DUP2 DUP2 MSTORE PUSH1 0x20 ADD DUP3 DUP1 SLOAD PUSH2 0x186 SWAP1 PUSH2 0xA32 JUMP JUMPDEST DUP1 ISZERO PUSH2 0x1D1 JUMPI DUP1 PUSH1 0x1F LT PUSH2 0x1A8 JUMPI PUSH2 0x100 DUP1 DUP4 SLOAD DIV MUL DUP4 MSTORE SWAP2 PUSH1 0x20 ADD SWAP2 PUSH2 0x1D1 JUMP JUMPDEST DUP3 ADD SWAP2 SWAP1 PUSH0 MSTORE PUSH1 0x20 PUSH0 KECCAK256 SWAP1 JUMPDEST DUP2 SLOAD DUP2 MSTORE SWAP1 PUSH1 0x1 ADD SWAP1 PUSH1 0x20 ADD DUP1 DUP4 GT PUSH2 0x1B4 JUMPI DUP3 SWAP1 SUB PUSH1 0x1F AND DUP3 ADD SWAP2 JUMPDEST POP POP POP POP POP SWAP1 DUP1 PUSH1 0x2 ADD SLOAD SWAP1 DUP1 PUSH1 0x3 ADD SLOAD SWAP1 POP DUP5 JUMP JUMPDEST PUSH1 0x60 PUSH0 DUP1 DUP4 PUSH20 0xFFFFFFFFFFFFFFFFFFFFFFFFFFFFFFFFFFFFFFFF AND PUSH20 0xFFFFFFFFFFFFFFFFFFFFFFFFFFFFFFFFFFFFFFFF AND DUP2 MSTORE PUSH1 0x20 ADD SWAP1 DUP2 MSTORE PUSH1 0x20 ADD PUSH0 KECCAK256 DUP1 SLOAD DUP1 PUSH1 0x20 MUL PUSH1 0x20 ADD PUSH1 0x40 MLOAD SWAP1 DUP2 ADD PUSH1 0x40 MSTORE DUP1 SWAP3 SWAP2 SWAP1 DUP2 DUP2 MSTORE PUSH1 0x20 ADD PUSH0 SWAP1 JUMPDEST DUP3 DUP3 LT ISZERO PUSH2 0x36C JUMPI DUP4 DUP3 SWAP1 PUSH0 MSTORE PUSH1 0x20 PUSH0 KECCAK256 SWAP1 PUSH1 0x4 MUL ADD PUSH1 0x40 MLOAD DUP1 PUSH1 0x80 ADD PUSH1 0x40 MSTORE SWAP1 DUP2 PUSH0 DUP3 ADD PUSH0 SWAP1 SLOAD SWAP1 PUSH2 0x100 EXP SWAP1 DIV PUSH20 0xFFFFFFFFFFFFFFFFFFFFFFFFFFFFFFFFFFFFFFFF AND PUSH20 0xFFFFFFFFFFFFFFFFFFFFFFFFFFFFFFFFFFFFFFFF AND PUSH20 0xFFFFFFFFFFFFFFFFFFFFFFFFFFFFFFFFFFFFFFFF AND DUP2 MSTORE PUSH1 0x20 ADD PUSH1 0x1 DUP3 ADD DUP1 SLOAD PUSH2 0x2C9 SWAP1 PUSH2 0xA32 JUMP JUMPDEST DUP1 PUSH1 0x1F ADD PUSH1 0x20 DUP1 SWAP2 DIV MUL PUSH1 0x20 ADD PUSH1 0x40 MLOAD SWAP1 DUP2 ADD PUSH1 0x40 MSTORE DUP1 SWAP3 SWAP2 SWAP1 DUP2 DUP2 MSTORE PUSH1 0x20 ADD DUP3 DUP1 SLOAD PUSH2 0x2F5 SWAP1 PUSH2 0xA32 JUMP JUMPDEST DUP1 ISZERO PUSH2 0x340 JUMPI DUP1 PUSH1 0x1F LT PUSH2 0x317 JUMPI PUSH2 0x100 DUP1 DUP4 SLOAD DIV MUL DUP4 MSTORE SWAP2 PUSH1 0x20 ADD SWAP2 PUSH2 0x340 JUMP JUMPDEST DUP3 ADD SWAP2 SWAP1 PUSH0 MSTORE PUSH1 0x20 PUSH0 KECCAK256 SWAP1 JUMPDEST DUP2 SLOAD DUP2 MSTORE SWAP1 PUSH1 0x1 ADD SWAP1 PUSH1 0x20 ADD DUP1 DUP4 GT PUSH2 0x323 JUMPI DUP3 SWAP1 SUB PUSH1 0x1F AND DUP3 ADD SWAP2 JUMPDEST POP POP POP POP POP DUP2 MSTORE PUSH1 0x20 ADD PUSH1 0x2 DUP3 ADD SLOAD DUP2 MSTORE PUSH1 0x20 ADD PUSH1 0x3 DUP3 ADD SLOAD DUP2 MSTORE POP POP DUP2 MSTORE PUSH1 0x20 ADD SWAP1 PUSH1 0x1 ADD SWAP1 PUSH2 0x244 JUMP JUMPDEST POP POP POP POP SWAP1 POP SWAP2 SWAP1 POP JUMP JUMPDEST PUSH0 DUP2 MLOAD SWAP1 POP SWAP2 SWAP1 POP JUMP JUMPDEST PUSH2 0x118 PUSH2 0x38D DUP3 PUSH2 0x377 JUMP JUMPDEST GT ISZERO PUSH2 0x3CE JUMPI PUSH1 0x40 MLOAD PUSH32 0x8C379A000000000000000000000000000000000000000000000000000000000 DUP2 MSTORE PUSH1 0x4 ADD PUSH2 0x3C5 SWAP1 PUSH2 0xAAC JUMP JUMPDEST PUSH1 0x40 MLOAD DUP1 SWAP2 SUB SWAP1 REVERT JUMPDEST PUSH0 PUSH1 0x40 MLOAD DUP1 PUSH1 0x80 ADD PUSH1 0x40 MSTORE DUP1 CALLER PUSH20 0xFFFFFFFFFFFFFFFFFFFFFFFFFFFFFFFFFFFFFFFF AND DUP2 MSTORE PUSH1 0x20 ADD DUP4 DUP2 MSTORE PUSH1 0x20 ADD TIMESTAMP DUP2 MSTORE PUSH1 0x20 ADD PUSH0 DUP2 MSTORE POP SWAP1 POP PUSH0 DUP1 CALLER PUSH20 0xFFFFFFFFFFFFFFFFFFFFFFFFFFFFFFFFFFFFFFFF AND PUSH20 0xFFFFFFFFFFFFFFFFFFFFFFFFFFFFFFFFFFFFFFFF AND DUP2 MSTORE PUSH1 0x20 ADD SWAP1 DUP2 MSTORE PUSH1 0x20 ADD PUSH0 KECCAK256 DUP2 SWAP1 DUP1 PUSH1 0x1 DUP2 SLOAD ADD DUP1 DUP3 SSTORE DUP1 SWAP2 POP POP PUSH1 0x1 SWAP1 SUB SWAP1 PUSH0 MSTORE PUSH1 0x20 PUSH0 KECCAK256 SWAP1 PUSH1 0x4 MUL ADD PUSH0 SWAP1 SWAP2 SWAP1 SWAP2 SWAP1 SWAP2 POP PUSH0 DUP3 ADD MLOAD DUP2 PUSH0 ADD PUSH0 PUSH2 0x100 EXP DUP2 SLOAD DUP2 PUSH20 0xFFFFFFFFFFFFFFFFFFFFFFFFFFFFFFFFFFFFFFFF MUL NOT AND SWAP1 DUP4 PUSH20 0xFFFFFFFFFFFFFFFFFFFFFFFFFFFFFFFFFFFFFFFF AND MUL OR SWAP1 SSTORE POP PUSH1 0x20 DUP3 ADD MLOAD DUP2 PUSH1 0x1 ADD SWAP1 DUP2 PUSH2 0x4C4 SWAP2 SWAP1 PUSH2 0xC67 JUMP JUMPDEST POP PUSH1 0x40 DUP3 ADD MLOAD DUP2 PUSH1 0x2 ADD SSTORE PUSH1 0x60 DUP3 ADD MLOAD DUP2 PUSH1 0x3 ADD SSTORE POP POP POP POP JUMP JUMPDEST PUSH0 PUSH1 0x40 MLOAD SWAP1 POP SWAP1 JUMP JUMPDEST PUSH0 DUP1 REVERT JUMPDEST PUSH0 DUP1 REVERT JUMPDEST PUSH0 PUSH20 0xFFFFFFFFFFFFFFFFFFFFFFFFFFFFFFFFFFFFFFFF DUP3 AND SWAP1 POP SWAP2 SWAP1 POP JUMP JUMPDEST PUSH0 PUSH2 0x519 DUP3 PUSH2 0x4F0 JUMP JUMPDEST SWAP1 POP SWAP2 SWAP1 POP JUMP JUMPDEST PUSH2 0x529 DUP2 PUSH2 0x50F JUMP JUMPDEST DUP2 EQ PUSH2 0x533 JUMPI PUSH0 DUP1 REVERT JUMPDEST POP JUMP JUMPDEST PUSH0 DUP2 CALLDATALOAD SWAP1 POP PUSH2 0x544 DUP2 PUSH2 0x520 JUMP JUMPDEST SWAP3 SWAP2 POP POP JUMP JUMPDEST PUSH0 DUP2 SWAP1 POP SWAP2 SWAP1 POP JUMP JUMPDEST PUSH2 0x55C DUP2 PUSH2 0x54A JUMP JUMPDEST DUP2 EQ PUSH2 0x566 JUMPI PUSH0 DUP1 REVERT JUMPDEST POP JUMP JUMPDEST PUSH0 DUP2 CALLDATALOAD SWAP1 POP PUSH2 0x577 DUP2 PUSH2 0x553 JUMP JUMPDEST SWAP3 SWAP2 POP POP JUMP JUMPDEST PUSH0 DUP1 PUSH1 0x40 DUP4 DUP6 SUB SLT ISZERO PUSH2 0x593 JUMPI PUSH2 0x592 PUSH2 0x4E8 JUMP JUMPDEST JUMPDEST PUSH0 PUSH2 0x5A0 DUP6 DUP3 DUP7 ADD PUSH2 0x536 JUMP JUMPDEST SWAP3 POP POP PUSH1 0x20 PUSH2 0x5B1 DUP6 DUP3 DUP7 ADD PUSH2 0x569 JUMP JUMPDEST SWAP2 POP POP SWAP3 POP SWAP3 SWAP1 POP JUMP JUMPDEST PUSH2 0x5C4 DUP2 PUSH2 0x50F JUMP JUMPDEST DUP3 MSTORE POP POP JUMP JUMPDEST PUSH0 DUP2 MLOAD SWAP1 POP SWAP2 SWAP1 POP JUMP JUMPDEST PUSH0 DUP3 DUP3 MSTORE PUSH1 0x20 DUP3 ADD SWAP1 POP SWAP3 SWAP2 POP POP JUMP JUMPDEST PUSH0 JUMPDEST DUP4 DUP2 LT ISZERO PUSH2 0x601 JUMPI DUP1 DUP3 ADD MLOAD DUP2 DUP5 ADD MSTORE PUSH1 0x20 DUP2 ADD SWAP1 POP PUSH2 0x5E6 JUMP JUMPDEST PUSH0 DUP5 DUP5 ADD MSTORE POP POP POP POP JUMP JUMPDEST PUSH0 PUSH1 0x1F NOT PUSH1 0x1F DUP4 ADD AND SWAP1 POP SWAP2 SWAP1 POP JUMP JUMPDEST PUSH0 PUSH2 0x626 DUP3 PUSH2 0x5CA JUMP JUMPDEST PUSH2 0x630 DUP2 DUP6 PUSH2 0x5D4 JUMP JUMPDEST SWAP4 POP PUSH2 0x640 DUP2 DUP6 PUSH1 0x20 DUP7 ADD PUSH2 0x5E4 JUMP JUMPDEST PUSH2 0x649 DUP2 PUSH2 0x60C JUMP JUMPDEST DUP5 ADD SWAP2 POP POP SWAP3 SWAP2 POP POP JUMP JUMPDEST PUSH2 0x65D DUP2 PUSH2 0x54A JUMP JUMPDEST DUP3 MSTORE POP POP JUMP JUMPDEST PUSH0 PUSH1 0x80 DUP3 ADD SWAP1 POP PUSH2 0x676 PUSH0 DUP4 ADD DUP8 PUSH2 0x5BB JUMP JUMPDEST DUP2 DUP2 SUB PUSH1 0x20 DUP4 ADD MSTORE PUSH2 0x688 DUP2 DUP7 PUSH2 0x61C JUMP JUMPDEST SWAP1 POP PUSH2 0x697 PUSH1 0x40 DUP4 ADD DUP6 PUSH2 0x654 JUMP JUMPDEST PUSH2 0x6A4 PUSH1 0x60 DUP4 ADD DUP5 PUSH2 0x654 JUMP JUMPDEST SWAP6 SWAP5 POP POP POP POP POP JUMP JUMPDEST PUSH0 PUSH1 0x20 DUP3 DUP5 SUB SLT ISZERO PUSH2 0x6C2 JUMPI PUSH2 0x6C1 PUSH2 0x4E8 JUMP JUMPDEST JUMPDEST PUSH0 PUSH2 0x6CF DUP5 DUP3 DUP6 ADD PUSH2 0x536 JUMP JUMPDEST SWAP2 POP POP SWAP3 SWAP2 POP POP JUMP JUMPDEST PUSH0 DUP2 MLOAD SWAP1 POP SWAP2 SWAP1 POP JUMP JUMPDEST PUSH0 DUP3 DUP3 MSTORE PUSH1 0x20 DUP3 ADD SWAP1 POP SWAP3 SWAP2 POP POP JUMP JUMPDEST PUSH0 DUP2 SWAP1 POP PUSH1 0x20 DUP3 ADD SWAP1 POP SWAP2 SWAP1 POP JUMP JUMPDEST PUSH2 0x70A DUP2 PUSH2 0x50F JUMP JUMPDEST DUP3 MSTORE POP POP JUMP JUMPDEST PUSH0 DUP3 DUP3 MSTORE PUSH1 0x20 DUP3 ADD SWAP1 POP SWAP3 SWAP2 POP POP JUMP JUMPDEST PUSH0 PUSH2 0x72A DUP3 PUSH2 0x5CA JUMP JUMPDEST PUSH2 0x734 DUP2 DUP6 PUSH2 0x710 JUMP JUMPDEST SWAP4 POP PUSH2 0x744 DUP2 DUP6 PUSH1 0x20 DUP7 ADD PUSH2 0x5E4 JUMP JUMPDEST PUSH2 0x74D DUP2 PUSH2 0x60C JUMP JUMPDEST DUP5 ADD SWAP2 POP POP SWAP3 SWAP2 POP POP JUMP JUMPDEST PUSH2 0x761 DUP2 PUSH2 0x54A JUMP JUMPDEST DUP3 MSTORE POP POP JUMP JUMPDEST PUSH0 PUSH1 0x80 DUP4 ADD PUSH0 DUP4 ADD MLOAD PUSH2 0x77C PUSH0 DUP7 ADD DUP3 PUSH2 0x701 JUMP JUMPDEST POP PUSH1 0x20 DUP4 ADD MLOAD DUP5 DUP3 SUB PUSH1 0x20 DUP7 ADD MSTORE PUSH2 0x794 DUP3 DUP3 PUSH2 0x720 JUMP JUMPDEST SWAP2 POP POP PUSH1 0x40 DUP4 ADD MLOAD PUSH2 0x7A9 PUSH1 0x40 DUP7 ADD DUP3 PUSH2 0x758 JUMP JUMPDEST POP PUSH1 0x60 DUP4 ADD MLOAD PUSH2 0x7BC PUSH1 0x60 DUP7 ADD DUP3 PUSH2 0x758 JUMP JUMPDEST POP DUP1 SWAP2 POP POP SWAP3 SWAP2 POP POP JUMP JUMPDEST PUSH0 PUSH2 0x7D2 DUP4 DUP4 PUSH2 0x767 JUMP JUMPDEST SWAP1 POP SWAP3 SWAP2 POP POP JUMP JUMPDEST PUSH0 PUSH1 0x20 DUP3 ADD SWAP1 POP SWAP2 SWAP1 POP JUMP JUMPDEST PUSH0 PUSH2 0x7F0 DUP3 PUSH2 0x6D8 JUMP JUMPDEST PUSH2 0x7FA DUP2 DUP6 PUSH2 0x6E2 JUMP JUMPDEST SWAP4 POP DUP4 PUSH1 0x20 DUP3 MUL DUP6 ADD PUSH2 0x80C DUP6 PUSH2 0x6F2 JUMP JUMPDEST DUP1 PUSH0 JUMPDEST DUP6 DUP2 LT ISZERO PUSH2 0x847 JUMPI DUP5 DUP5 SUB DUP10 MSTORE DUP2 MLOAD PUSH2 0x828 DUP6 DUP3 PUSH2 0x7C7 JUMP JUMPDEST SWAP5 POP PUSH2 0x833 DUP4 PUSH2 0x7DA JUMP JUMPDEST SWAP3 POP PUSH1 0x20 DUP11 ADD SWAP10 POP POP PUSH1 0x1 DUP2 ADD SWAP1 POP PUSH2 0x80F JUMP JUMPDEST POP DUP3 SWAP8 POP DUP8 SWAP6 POP POP POP POP POP POP SWAP3 SWAP2 POP POP JUMP JUMPDEST PUSH0 PUSH1 0x20 DUP3 ADD SWAP1 POP DUP2 DUP2 SUB PUSH0 DUP4 ADD MSTORE PUSH2 0x871 DUP2 DUP5 PUSH2 0x7E6 JUMP JUMPDEST SWAP1 POP SWAP3 SWAP2 POP POP JUMP JUMPDEST PUSH0 DUP1 REVERT JUMPDEST PUSH0 DUP1 REVERT JUMPDEST PUSH32 0x4E487B7100000000000000000000000000000000000000000000000000000000 PUSH0 MSTORE PUSH1 0x41 PUSH1 0x4 MSTORE PUSH1 0x24 PUSH0 REVERT JUMPDEST PUSH2 0x8B7 DUP3 PUSH2 0x60C JUMP JUMPDEST DUP2 ADD DUP2 DUP2 LT PUSH8 0xFFFFFFFFFFFFFFFF DUP3 GT OR ISZERO PUSH2 0x8D6 JUMPI PUSH2 0x8D5 PUSH2 0x881 JUMP JUMPDEST JUMPDEST DUP1 PUSH1 0x40 MSTORE POP POP POP JUMP JUMPDEST PUSH0 PUSH2 0x8E8 PUSH2 0x4DF JUMP JUMPDEST SWAP1 POP PUSH2 0x8F4 DUP3 DUP3 PUSH2 0x8AE JUMP JUMPDEST SWAP2 SWAP1 POP JUMP JUMPDEST PUSH0 PUSH8 0xFFFFFFFFFFFFFFFF DUP3 GT ISZERO PUSH2 0x913 JUMPI PUSH2 0x912 PUSH2 0x881 JUMP JUMPDEST JUMPDEST PUSH2 0x91C DUP3 PUSH2 0x60C JUMP JUMPDEST SWAP1 POP PUSH1 0x20 DUP2 ADD SWAP1 POP SWAP2 SWAP1 POP JUMP JUMPDEST DUP3 DUP2 DUP4 CALLDATACOPY PUSH0 DUP4 DUP4 ADD MSTORE POP POP POP JUMP JUMPDEST PUSH0 PUSH2 0x949 PUSH2 0x944 DUP5 PUSH2 0x8F9 JUMP JUMPDEST PUSH2 0x8DF JUMP JUMPDEST SWAP1 POP DUP3 DUP2 MSTORE PUSH1 0x20 DUP2 ADD DUP5 DUP5 DUP5 ADD GT ISZERO PUSH2 0x965 JUMPI PUSH2 0x964 PUSH2 0x87D JUMP JUMPDEST JUMPDEST PUSH2 0x970 DUP5 DUP3 DUP6 PUSH2 0x929 JUMP JUMPDEST POP SWAP4 SWAP3 POP POP POP JUMP JUMPDEST PUSH0 DUP3 PUSH1 0x1F DUP4 ADD SLT PUSH2 0x98C JUMPI PUSH2 0x98B PUSH2 0x879 JUMP JUMPDEST JUMPDEST DUP2 CALLDATALOAD PUSH2 0x99C DUP5 DUP3 PUSH1 0x20 DUP7 ADD PUSH2 0x937 JUMP JUMPDEST SWAP2 POP POP SWAP3 SWAP2 POP POP JUMP JUMPDEST PUSH0 PUSH1 0x20 DUP3 DUP5 SUB SLT ISZERO PUSH2 0x9BA JUMPI PUSH2 0x9B9 PUSH2 0x4E8 JUMP JUMPDEST JUMPDEST PUSH0 DUP3 ADD CALLDATALOAD PUSH8 0xFFFFFFFFFFFFFFFF DUP2 GT ISZERO PUSH2 0x9D7 JUMPI PUSH2 0x9D6 PUSH2 0x4EC JUMP JUMPDEST JUMPDEST PUSH2 0x9E3 DUP5 DUP3 DUP6 ADD PUSH2 0x978 JUMP JUMPDEST SWAP2 POP POP SWAP3 SWAP2 POP POP JUMP JUMPDEST PUSH0 PUSH1 0x20 DUP3 ADD SWAP1 POP PUSH2 0x9FF PUSH0 DUP4 ADD DUP5 PUSH2 0x654 JUMP JUMPDEST SWAP3 SWAP2 POP POP JUMP JUMPDEST PUSH32 0x4E487B7100000000000000000000000000000000000000000000000000000000 PUSH0 MSTORE PUSH1 0x22 PUSH1 0x4 MSTORE PUSH1 0x24 PUSH0 REVERT JUMPDEST PUSH0 PUSH1 0x2 DUP3 DIV SWAP1 POP PUSH1 0x1 DUP3 AND DUP1 PUSH2 0xA49 JUMPI PUSH1 0x7F DUP3 AND SWAP2 POP JUMPDEST PUSH1 0x20 DUP3 LT DUP2 SUB PUSH2 0xA5C JUMPI PUSH2 0xA5B PUSH2 0xA05 JUMP JUMPDEST JUMPDEST POP SWAP2 SWAP1 POP JUMP JUMPDEST PUSH32 0x596F757220747765657420746F6F206C6F6E6700000000000000000000000000 PUSH0 DUP3 ADD MSTORE POP JUMP JUMPDEST PUSH0 PUSH2 0xA96 PUSH1 0x13 DUP4 PUSH2 0x5D4 JUMP JUMPDEST SWAP2 POP PUSH2 0xAA1 DUP3 PUSH2 0xA62 JUMP JUMPDEST PUSH1 0x20 DUP3 ADD SWAP1 POP SWAP2 SWAP1 POP JUMP JUMPDEST PUSH0 PUSH1 0x20 DUP3 ADD SWAP1 POP DUP2 DUP2 SUB PUSH0 DUP4 ADD MSTORE PUSH2 0xAC3 DUP2 PUSH2 0xA8A JUMP JUMPDEST SWAP1 POP SWAP2 SWAP1 POP JUMP JUMPDEST PUSH0 DUP2 SWAP1 POP DUP2 PUSH0 MSTORE PUSH1 0x20 PUSH0 KECCAK256 SWAP1 POP SWAP2 SWAP1 POP JUMP JUMPDEST PUSH0 PUSH1 0x20 PUSH1 0x1F DUP4 ADD DIV SWAP1 POP SWAP2 SWAP1 POP JUMP JUMPDEST PUSH0 DUP3 DUP3 SHL SWAP1 POP SWAP3 SWAP2 POP POP JUMP JUMPDEST PUSH0 PUSH1 0x8 DUP4 MUL PUSH2 0xB26 PUSH32 0xFFFFFFFFFFFFFFFFFFFFFFFFFFFFFFFFFFFFFFFFFFFFFFFFFFFFFFFFFFFFFFFF DUP3 PUSH2 0xAEB JUMP JUMPDEST PUSH2 0xB30 DUP7 DUP4 PUSH2 0xAEB JUMP JUMPDEST SWAP6 POP DUP1 NOT DUP5 AND SWAP4 POP DUP1 DUP7 AND DUP5 OR SWAP3 POP POP POP SWAP4 SWAP3 POP POP POP JUMP JUMPDEST PUSH0 DUP2 SWAP1 POP SWAP2 SWAP1 POP JUMP JUMPDEST PUSH0 PUSH2 0xB6B PUSH2 0xB66 PUSH2 0xB61 DUP5 PUSH2 0x54A JUMP JUMPDEST PUSH2 0xB48 JUMP JUMPDEST PUSH2 0x54A JUMP JUMPDEST SWAP1 POP SWAP2 SWAP1 POP JUMP JUMPDEST PUSH0 DUP2 SWAP1 POP SWAP2 SWAP1 POP JUMP JUMPDEST PUSH2 0xB84 DUP4 PUSH2 0xB51 JUMP JUMPDEST PUSH2 0xB98 PUSH2 0xB90 DUP3 PUSH2 0xB72 JUMP JUMPDEST DUP5 DUP5 SLOAD PUSH2 0xAF7 JUMP JUMPDEST DUP3 SSTORE POP POP POP POP JUMP JUMPDEST PUSH0 SWAP1 JUMP JUMPDEST PUSH2 0xBAC PUSH2 0xBA0 JUMP JUMPDEST PUSH2 0xBB7 DUP2 DUP5 DUP5 PUSH2 0xB7B JUMP JUMPDEST POP POP POP JUMP JUMPDEST JUMPDEST DUP2 DUP2 LT ISZERO PUSH2 0xBDA JUMPI PUSH2 0xBCF PUSH0 DUP3 PUSH2 0xBA4 JUMP JUMPDEST PUSH1 0x1 DUP2 ADD SWAP1 POP PUSH2 0xBBD JUMP JUMPDEST POP POP JUMP JUMPDEST PUSH1 0x1F DUP3 GT ISZERO PUSH2 0xC1F JUMPI PUSH2 0xBF0 DUP2 PUSH2 0xACA JUMP JUMPDEST PUSH2 0xBF9 DUP5 PUSH2 0xADC JUMP JUMPDEST DUP2 ADD PUSH1 0x20 DUP6 LT ISZERO PUSH2 0xC08 JUMPI DUP2 SWAP1 POP JUMPDEST PUSH2 0xC1C PUSH2 0xC14 DUP6 PUSH2 0xADC JUMP JUMPDEST DUP4 ADD DUP3 PUSH2 0xBBC JUMP JUMPDEST POP POP JUMPDEST POP POP POP JUMP JUMPDEST PUSH0 DUP3 DUP3 SHR SWAP1 POP SWAP3 SWAP2 POP POP JUMP JUMPDEST PUSH0 PUSH2 0xC3F PUSH0 NOT DUP5 PUSH1 0x8 MUL PUSH2 0xC24 JUMP JUMPDEST NOT DUP1 DUP4 AND SWAP2 POP POP SWAP3 SWAP2 POP POP JUMP JUMPDEST PUSH0 PUSH2 0xC57 DUP4 DUP4 PUSH2 0xC30 JUMP JUMPDEST SWAP2 POP DUP3 PUSH1 0x2 MUL DUP3 OR SWAP1 POP SWAP3 SWAP2 POP POP JUMP JUMPDEST PUSH2 0xC70 DUP3 PUSH2 0x5CA JUMP JUMPDEST PUSH8 0xFFFFFFFFFFFFFFFF DUP2 GT ISZERO PUSH2 0xC89 JUMPI PUSH2 0xC88 PUSH2 0x881 JUMP JUMPDEST JUMPDEST PUSH2 0xC93 DUP3 SLOAD PUSH2 0xA32 JUMP JUMPDEST PUSH2 0xC9E DUP3 DUP3 DUP6 PUSH2 0xBDE JUMP JUMPDEST PUSH0 PUSH1 0x20 SWAP1 POP PUSH1 0x1F DUP4 GT PUSH1 0x1 DUP2 EQ PUSH2 0xCCF JUMPI PUSH0 DUP5 ISZERO PUSH2 0xCBD JUMPI DUP3 DUP8 ADD MLOAD SWAP1 POP JUMPDEST PUSH2 0xCC7 DUP6 DUP3 PUSH2 0xC4C JUMP JUMPDEST DUP7 SSTORE POP PUSH2 0xD2E JUMP JUMPDEST PUSH1 0x1F NOT DUP5 AND PUSH2 0xCDD DUP7 PUSH2 0xACA JUMP JUMPDEST PUSH0 JUMPDEST DUP3 DUP2 LT ISZERO PUSH2 0xD04 JUMPI DUP5 DUP10 ADD MLOAD DUP3 SSTORE PUSH1 0x1 DUP3 ADD SWAP2 POP PUSH1 0x20 DUP6 ADD SWAP5 POP PUSH1 0x20 DUP2 ADD SWAP1 POP PUSH2 0xCDF JUMP JUMPDEST DUP7 DUP4 LT ISZERO PUSH2 0xD21 JUMPI DUP5 DUP10 ADD MLOAD PUSH2 0xD1D PUSH1 0x1F DUP10 AND DUP3 PUSH2 0xC30 JUMP JUMPDEST DUP4 SSTORE POP JUMPDEST PUSH1 0x1 PUSH1 0x2 DUP9 MUL ADD DUP9 SSTORE POP POP POP JUMPDEST POP POP POP POP POP POP JUMP INVALID LOG2 PUSH5 0x6970667358 0x22 SLT KECCAK256 EXTCODECOPY DELEGATECALL GAS 0x4F SLOAD 0xCA PUSH22 0xE8217A7E61FE82D803AC7D9623EE5B9FCB0C5F870A34 CALLER PUSH8 0xE64736F6C634300 ADDMOD AND STOP CALLER "
				},
				"gasEstimates": {
					"creation": {
						"codeDepositCost": "687200",
						"executionCost": "719",
						"totalCost": "687919"
					},
					"external": {
						"createTweet(string)": "infinite",
						"getAllTweets(address)": "infinite",
						"getLength(string)": "infinite",
						"tweets(address,uint256)": "infinite"
					}
				},
				"methodIdentifiers": {
					"createTweet(string)": "7c9cd2bc",
					"getAllTweets(address)": "12e7ee1c",
					"getLength(string)": "6981b5f4",
					"tweets(address,uint256)": "05a1b4a9"
				}
			},
			"storageLayout": {
				"storage": [
					{
						"astId": 19,
						"contract": "contracts/Twiiter.sol:Twitter",
						"label": "tweets",
						"offset": 0,
						"slot": "0",
						"type": "t_mapping(t_address,t_array(t_struct(tweet)13_storage)dyn_storage)"
					}
				],
				"types": {
					"t_address": {
						"encoding": "inplace",
						"label": "address",
						"numberOfBytes": "20"
					},
					"t_array(t_struct(tweet)13_storage)dyn_storage": {
						"base": "t_struct(tweet)13_storage",
						"encoding": "dynamic_array",
						"label": "struct Twitter.tweet[]",
						"numberOfBytes": "32"
					},
					"t_mapping(t_address,t_array(t_struct(tweet)13_storage)dyn_storage)": {
						"encoding": "mapping",
						"key": "t_address",
						"label": "mapping(address => struct Twitter.tweet[])",
						"numberOfBytes": "32",
						"value": "t_array(t_struct(tweet)13_storage)dyn_storage"
					},
					"t_string_storage": {
						"encoding": "bytes",
						"label": "string",
						"numberOfBytes": "32"
					},
					"t_struct(tweet)13_storage": {
						"encoding": "inplace",
						"label": "struct Twitter.tweet",
						"members": [
							{
								"astId": 6,
								"contract": "contracts/Twiiter.sol:Twitter",
								"label": "author",
								"offset": 0,
								"slot": "0",
								"type": "t_address"
							},
							{
								"astId": 8,
								"contract": "contracts/Twiiter.sol:Twitter",
								"label": "content",
								"offset": 0,
								"slot": "1",
								"type": "t_string_storage"
							},
							{
								"astId": 10,
								"contract": "contracts/Twiiter.sol:Twitter",
								"label": "timestamp",
								"offset": 0,
								"slot": "2",
								"type": "t_uint256"
							},
							{
								"astId": 12,
								"contract": "contracts/Twiiter.sol:Twitter",
								"label": "likes",
								"offset": 0,
								"slot": "3",
								"type": "t_uint256"
							}
						],
						"numberOfBytes": "128"
					},
					"t_uint256": {
						"encoding": "inplace",
						"label": "uint256",
						"numberOfBytes": "32"
					}
				}
			},
			"userdoc": {
				"kind": "user",
				"methods": {},
				"version": 1
			}
		}
	}
}