{
	"contracts/PawnBorrow.sol": {
		"PawnContract": {
			"abi": [
				{
					"inputs": [],
					"stateMutability": "nonpayable",
					"type": "constructor"
				},
				{
					"anonymous": false,
					"inputs": [
						{
							"indexed": false,
							"internalType": "uint256",
							"name": "amount",
							"type": "uint256"
						}
					],
					"name": "LoanReceived",
					"type": "event"
				},
				{
					"anonymous": false,
					"inputs": [
						{
							"indexed": false,
							"internalType": "uint256",
							"name": "amount",
							"type": "uint256"
						}
					],
					"name": "LoanRepaid",
					"type": "event"
				},
				{
					"inputs": [],
					"name": "borrower",
					"outputs": [
						{
							"internalType": "address",
							"name": "",
							"type": "address"
						}
					],
					"stateMutability": "view",
					"type": "function"
				},
				{
					"inputs": [],
					"name": "checkStatus",
					"outputs": [
						{
							"internalType": "address",
							"name": "",
							"type": "address"
						},
						{
							"internalType": "uint256",
							"name": "",
							"type": "uint256"
						},
						{
							"internalType": "uint256",
							"name": "",
							"type": "uint256"
						},
						{
							"internalType": "bool",
							"name": "",
							"type": "bool"
						}
					],
					"stateMutability": "view",
					"type": "function"
				},
				{
					"inputs": [],
					"name": "collateralAmount",
					"outputs": [
						{
							"internalType": "uint256",
							"name": "",
							"type": "uint256"
						}
					],
					"stateMutability": "view",
					"type": "function"
				},
				{
					"inputs": [],
					"name": "loanAmount",
					"outputs": [
						{
							"internalType": "uint256",
							"name": "",
							"type": "uint256"
						}
					],
					"stateMutability": "view",
					"type": "function"
				},
				{
					"inputs": [],
					"name": "loanRepaid",
					"outputs": [
						{
							"internalType": "bool",
							"name": "",
							"type": "bool"
						}
					],
					"stateMutability": "view",
					"type": "function"
				},
				{
					"inputs": [],
					"name": "repayLoan",
					"outputs": [],
					"stateMutability": "payable",
					"type": "function"
				},
				{
					"stateMutability": "payable",
					"type": "receive"
				}
			],
			"devdoc": {
				"kind": "dev",
				"methods": {},
				"version": 1
			},
			"evm": {
				"assembly": "    /* \"contracts/PawnBorrow.sol\":58:1169  contract PawnContract {... */\n  mstore(0x40, 0x80)\n    /* \"contracts/PawnBorrow.sol\":281:423  constructor() {... */\n  callvalue\n  dup1\n  iszero\n  tag_1\n  jumpi\n  0x00\n  dup1\n  revert\ntag_1:\n  pop\n    /* \"contracts/PawnBorrow.sol\":316:326  msg.sender */\n  caller\n    /* \"contracts/PawnBorrow.sol\":305:313  borrower */\n  0x00\n  dup1\n    /* \"contracts/PawnBorrow.sol\":305:326  borrower = msg.sender */\n  0x0100\n  exp\n  dup2\n  sload\n  dup2\n  0xffffffffffffffffffffffffffffffffffffffff\n  mul\n  not\n  and\n  swap1\n  dup4\n  0xffffffffffffffffffffffffffffffffffffffff\n  and\n  mul\n  or\n  swap1\n  sstore\n  pop\n    /* \"contracts/PawnBorrow.sol\":355:362  4 ether */\n  0x3782dace9d900000\n    /* \"contracts/PawnBorrow.sol\":336:352  collateralAmount */\n  0x01\n    /* \"contracts/PawnBorrow.sol\":336:362  collateralAmount = 4 ether */\n  dup2\n  swap1\n  sstore\n  pop\n    /* \"contracts/PawnBorrow.sol\":385:388  200 */\n  0xc8\n    /* \"contracts/PawnBorrow.sol\":372:382  loanAmount */\n  0x02\n    /* \"contracts/PawnBorrow.sol\":372:388  loanAmount = 200 */\n  dup2\n  swap1\n  sstore\n  pop\n    /* \"contracts/PawnBorrow.sol\":411:416  false */\n  0x00\n    /* \"contracts/PawnBorrow.sol\":398:408  loanRepaid */\n  0x03\n  0x00\n    /* \"contracts/PawnBorrow.sol\":398:416  loanRepaid = false */\n  0x0100\n  exp\n  dup2\n  sload\n  dup2\n  0xff\n  mul\n  not\n  and\n  swap1\n  dup4\n  iszero\n  iszero\n  mul\n  or\n  swap1\n  sstore\n  pop\n    /* \"contracts/PawnBorrow.sol\":58:1169  contract PawnContract {... */\n  dataSize(sub_0)\n  dup1\n  dataOffset(sub_0)\n  0x00\n  codecopy\n  0x00\n  return\nstop\n\nsub_0: assembly {\n        /* \"contracts/PawnBorrow.sol\":58:1169  contract PawnContract {... */\n      mstore(0x40, 0x80)\n      jumpi(tag_1, lt(calldatasize, 0x04))\n      shr(0xe0, calldataload(0x00))\n      dup1\n      0x3b7104f2\n      eq\n      tag_3\n      jumpi\n      dup1\n      0x7df1f1b9\n      eq\n      tag_4\n      jumpi\n      dup1\n      0x92d09ceb\n      eq\n      tag_5\n      jumpi\n      dup1\n      0x9d585f7f\n      eq\n      tag_6\n      jumpi\n      dup1\n      0xbff1d2e3\n      eq\n      tag_7\n      jumpi\n      dup1\n      0xf966ade7\n      eq\n      tag_8\n      jumpi\n      jump(tag_2)\n    tag_1:\n      jumpi(tag_2, calldatasize)\n        /* \"contracts/PawnBorrow.sol\":715:738  LoanReceived(msg.value) */\n      0xb8f6415486af1418f9963a58250d573c41bc7b087e7f76fdeaff13c83525e407\n        /* \"contracts/PawnBorrow.sol\":728:737  msg.value */\n      callvalue\n        /* \"contracts/PawnBorrow.sol\":715:738  LoanReceived(msg.value) */\n      mload(0x40)\n      tag_11\n      swap2\n      swap1\n      tag_12\n      jump\t// in\n    tag_11:\n      mload(0x40)\n      dup1\n      swap2\n      sub\n      swap1\n      log1\n        /* \"contracts/PawnBorrow.sol\":58:1169  contract PawnContract {... */\n      stop\n    tag_2:\n      0x00\n      dup1\n      revert\n        /* \"contracts/PawnBorrow.sol\":1018:1167  function checkStatus() external view returns (address, uint, uint, bool) {... */\n    tag_3:\n      callvalue\n      dup1\n      iszero\n      tag_13\n      jumpi\n      0x00\n      dup1\n      revert\n    tag_13:\n      pop\n      tag_14\n      tag_15\n      jump\t// in\n    tag_14:\n      mload(0x40)\n      tag_16\n      swap5\n      swap4\n      swap3\n      swap2\n      swap1\n      tag_17\n      jump\t// in\n    tag_16:\n      mload(0x40)\n      dup1\n      swap2\n      sub\n      swap1\n      return\n        /* \"contracts/PawnBorrow.sol\":86:109  address public borrower */\n    tag_4:\n      callvalue\n      dup1\n      iszero\n      tag_18\n      jumpi\n      0x00\n      dup1\n      revert\n    tag_18:\n      pop\n      tag_19\n      tag_20\n      jump\t// in\n    tag_19:\n      mload(0x40)\n      tag_21\n      swap2\n      swap1\n      tag_22\n      jump\t// in\n    tag_21:\n      mload(0x40)\n      dup1\n      swap2\n      sub\n      swap1\n      return\n        /* \"contracts/PawnBorrow.sol\":115:143  uint public collateralAmount */\n    tag_5:\n      callvalue\n      dup1\n      iszero\n      tag_23\n      jumpi\n      0x00\n      dup1\n      revert\n    tag_23:\n      pop\n      tag_24\n      tag_25\n      jump\t// in\n    tag_24:\n      mload(0x40)\n      tag_26\n      swap2\n      swap1\n      tag_12\n      jump\t// in\n    tag_26:\n      mload(0x40)\n      dup1\n      swap2\n      sub\n      swap1\n      return\n        /* \"contracts/PawnBorrow.sol\":150:172  uint public loanAmount */\n    tag_6:\n      callvalue\n      dup1\n      iszero\n      tag_27\n      jumpi\n      0x00\n      dup1\n      revert\n    tag_27:\n      pop\n      tag_28\n      tag_29\n      jump\t// in\n    tag_28:\n      mload(0x40)\n      tag_30\n      swap2\n      swap1\n      tag_12\n      jump\t// in\n    tag_30:\n      mload(0x40)\n      dup1\n      swap2\n      sub\n      swap1\n      return\n        /* \"contracts/PawnBorrow.sol\":179:201  bool public loanRepaid */\n    tag_7:\n      callvalue\n      dup1\n      iszero\n      tag_31\n      jumpi\n      0x00\n      dup1\n      revert\n    tag_31:\n      pop\n      tag_32\n      tag_33\n      jump\t// in\n    tag_32:\n      mload(0x40)\n      tag_34\n      swap2\n      swap1\n      tag_35\n      jump\t// in\n    tag_34:\n      mload(0x40)\n      dup1\n      swap2\n      sub\n      swap1\n      return\n        /* \"contracts/PawnBorrow.sol\":751:1012  function repayLoan() external payable onlyBorrower loanNotRepaid {... */\n    tag_8:\n      tag_36\n      tag_37\n      jump\t// in\n    tag_36:\n      stop\n        /* \"contracts/PawnBorrow.sol\":1018:1167  function checkStatus() external view returns (address, uint, uint, bool) {... */\n    tag_15:\n        /* \"contracts/PawnBorrow.sol\":1064:1071  address */\n      0x00\n        /* \"contracts/PawnBorrow.sol\":1073:1077  uint */\n      dup1\n        /* \"contracts/PawnBorrow.sol\":1079:1083  uint */\n      0x00\n        /* \"contracts/PawnBorrow.sol\":1085:1089  bool */\n      dup1\n        /* \"contracts/PawnBorrow.sol\":1109:1117  borrower */\n      0x00\n      dup1\n      sload\n      swap1\n      0x0100\n      exp\n      swap1\n      div\n      0xffffffffffffffffffffffffffffffffffffffff\n      and\n        /* \"contracts/PawnBorrow.sol\":1119:1135  collateralAmount */\n      sload(0x01)\n        /* \"contracts/PawnBorrow.sol\":1137:1147  loanAmount */\n      sload(0x02)\n        /* \"contracts/PawnBorrow.sol\":1149:1159  loanRepaid */\n      0x03\n      0x00\n      swap1\n      sload\n      swap1\n      0x0100\n      exp\n      swap1\n      div\n      0xff\n      and\n        /* \"contracts/PawnBorrow.sol\":1101:1160  return (borrower, collateralAmount, loanAmount, loanRepaid) */\n      swap4\n      pop\n      swap4\n      pop\n      swap4\n      pop\n      swap4\n      pop\n        /* \"contracts/PawnBorrow.sol\":1018:1167  function checkStatus() external view returns (address, uint, uint, bool) {... */\n      swap1\n      swap2\n      swap3\n      swap4\n      jump\t// out\n        /* \"contracts/PawnBorrow.sol\":86:109  address public borrower */\n    tag_20:\n      0x00\n      dup1\n      sload\n      swap1\n      0x0100\n      exp\n      swap1\n      div\n      0xffffffffffffffffffffffffffffffffffffffff\n      and\n      dup2\n      jump\t// out\n        /* \"contracts/PawnBorrow.sol\":115:143  uint public collateralAmount */\n    tag_25:\n      sload(0x01)\n      dup2\n      jump\t// out\n        /* \"contracts/PawnBorrow.sol\":150:172  uint public loanAmount */\n    tag_29:\n      sload(0x02)\n      dup2\n      jump\t// out\n        /* \"contracts/PawnBorrow.sol\":179:201  bool public loanRepaid */\n    tag_33:\n      0x03\n      0x00\n      swap1\n      sload\n      swap1\n      0x0100\n      exp\n      swap1\n      div\n      0xff\n      and\n      dup2\n      jump\t// out\n        /* \"contracts/PawnBorrow.sol\":751:1012  function repayLoan() external payable onlyBorrower loanNotRepaid {... */\n    tag_37:\n        /* \"contracts/PawnBorrow.sol\":485:493  borrower */\n      0x00\n      dup1\n      sload\n      swap1\n      0x0100\n      exp\n      swap1\n      div\n      0xffffffffffffffffffffffffffffffffffffffff\n      and\n        /* \"contracts/PawnBorrow.sol\":471:493  msg.sender == borrower */\n      0xffffffffffffffffffffffffffffffffffffffff\n      and\n        /* \"contracts/PawnBorrow.sol\":471:481  msg.sender */\n      caller\n        /* \"contracts/PawnBorrow.sol\":471:493  msg.sender == borrower */\n      0xffffffffffffffffffffffffffffffffffffffff\n      and\n      eq\n        /* \"contracts/PawnBorrow.sol\":463:538  require(msg.sender == borrower, \"Only the borrower can call this function\") */\n      tag_40\n      jumpi\n      mload(0x40)\n      0x08c379a000000000000000000000000000000000000000000000000000000000\n      dup2\n      mstore\n      0x04\n      add\n      tag_41\n      swap1\n      tag_42\n      jump\t// in\n    tag_41:\n      mload(0x40)\n      dup1\n      swap2\n      sub\n      swap1\n      revert\n    tag_40:\n        /* \"contracts/PawnBorrow.sol\":606:616  loanRepaid */\n      0x03\n      0x00\n      swap1\n      sload\n      swap1\n      0x0100\n      exp\n      swap1\n      div\n      0xff\n      and\n        /* \"contracts/PawnBorrow.sol\":605:616  !loanRepaid */\n      iszero\n        /* \"contracts/PawnBorrow.sol\":597:649  require(!loanRepaid, \"Loan has already been repaid\") */\n      tag_44\n      jumpi\n      mload(0x40)\n      0x08c379a000000000000000000000000000000000000000000000000000000000\n      dup2\n      mstore\n      0x04\n      add\n      tag_45\n      swap1\n      tag_46\n      jump\t// in\n    tag_45:\n      mload(0x40)\n      dup1\n      swap2\n      sub\n      swap1\n      revert\n    tag_44:\n        /* \"contracts/PawnBorrow.sol\":847:857  loanAmount */\n      sload(0x02)\n        /* \"contracts/PawnBorrow.sol\":834:843  msg.value */\n      callvalue\n        /* \"contracts/PawnBorrow.sol\":834:857  msg.value == loanAmount */\n      eq\n        /* \"contracts/PawnBorrow.sol\":826:888  require(msg.value == loanAmount, \"Incorrect repayment amount\") */\n      tag_48\n      jumpi\n      mload(0x40)\n      0x08c379a000000000000000000000000000000000000000000000000000000000\n      dup2\n      mstore\n      0x04\n      add\n      tag_49\n      swap1\n      tag_50\n      jump\t// in\n    tag_49:\n      mload(0x40)\n      dup1\n      swap2\n      sub\n      swap1\n      revert\n    tag_48:\n        /* \"contracts/PawnBorrow.sol\":911:915  true */\n      0x01\n        /* \"contracts/PawnBorrow.sol\":898:908  loanRepaid */\n      0x03\n      0x00\n        /* \"contracts/PawnBorrow.sol\":898:915  loanRepaid = true */\n      0x0100\n      exp\n      dup2\n      sload\n      dup2\n      0xff\n      mul\n      not\n      and\n      swap1\n      dup4\n      iszero\n      iszero\n      mul\n      or\n      swap1\n      sstore\n      pop\n        /* \"contracts/PawnBorrow.sol\":933:941  borrower */\n      0x00\n      dup1\n      sload\n      swap1\n      0x0100\n      exp\n      swap1\n      div\n      0xffffffffffffffffffffffffffffffffffffffff\n      and\n        /* \"contracts/PawnBorrow.sol\":925:951  payable(borrower).transfer */\n      0xffffffffffffffffffffffffffffffffffffffff\n      and\n        /* \"contracts/PawnBorrow.sol\":925:969  payable(borrower).transfer(collateralAmount) */\n      0x08fc\n        /* \"contracts/PawnBorrow.sol\":952:968  collateralAmount */\n      sload(0x01)\n        /* \"contracts/PawnBorrow.sol\":925:969  payable(borrower).transfer(collateralAmount) */\n      swap1\n      dup2\n      iszero\n      mul\n      swap1\n      mload(0x40)\n      0x00\n      mload(0x40)\n      dup1\n      dup4\n      sub\n      dup2\n      dup6\n      dup9\n      dup9\n      call\n      swap4\n      pop\n      pop\n      pop\n      pop\n      iszero\n      dup1\n      iszero\n      tag_52\n      jumpi\n      returndatasize\n      0x00\n      dup1\n      returndatacopy\n      revert(0x00, returndatasize)\n    tag_52:\n      pop\n        /* \"contracts/PawnBorrow.sol\":984:1005  LoanRepaid(msg.value) */\n      0x9a7851747cd7ffb3fe0a32caf3da48b31f27cebe131267051640f8b72fc47186\n        /* \"contracts/PawnBorrow.sol\":995:1004  msg.value */\n      callvalue\n        /* \"contracts/PawnBorrow.sol\":984:1005  LoanRepaid(msg.value) */\n      mload(0x40)\n      tag_53\n      swap2\n      swap1\n      tag_12\n      jump\t// in\n    tag_53:\n      mload(0x40)\n      dup1\n      swap2\n      sub\n      swap1\n      log1\n        /* \"contracts/PawnBorrow.sol\":751:1012  function repayLoan() external payable onlyBorrower loanNotRepaid {... */\n      jump\t// out\n        /* \"#utility.yul\":7:84   */\n    tag_54:\n        /* \"#utility.yul\":44:51   */\n      0x00\n        /* \"#utility.yul\":73:78   */\n      dup2\n        /* \"#utility.yul\":62:78   */\n      swap1\n      pop\n        /* \"#utility.yul\":7:84   */\n      swap2\n      swap1\n      pop\n      jump\t// out\n        /* \"#utility.yul\":90:208   */\n    tag_55:\n        /* \"#utility.yul\":177:201   */\n      tag_71\n        /* \"#utility.yul\":195:200   */\n      dup2\n        /* \"#utility.yul\":177:201   */\n      tag_54\n      jump\t// in\n    tag_71:\n        /* \"#utility.yul\":172:175   */\n      dup3\n        /* \"#utility.yul\":165:202   */\n      mstore\n        /* \"#utility.yul\":90:208   */\n      pop\n      pop\n      jump\t// out\n        /* \"#utility.yul\":214:436   */\n    tag_12:\n        /* \"#utility.yul\":307:311   */\n      0x00\n        /* \"#utility.yul\":345:347   */\n      0x20\n        /* \"#utility.yul\":334:343   */\n      dup3\n        /* \"#utility.yul\":330:348   */\n      add\n        /* \"#utility.yul\":322:348   */\n      swap1\n      pop\n        /* \"#utility.yul\":358:429   */\n      tag_73\n        /* \"#utility.yul\":426:427   */\n      0x00\n        /* \"#utility.yul\":415:424   */\n      dup4\n        /* \"#utility.yul\":411:428   */\n      add\n        /* \"#utility.yul\":402:408   */\n      dup5\n        /* \"#utility.yul\":358:429   */\n      tag_55\n      jump\t// in\n    tag_73:\n        /* \"#utility.yul\":214:436   */\n      swap3\n      swap2\n      pop\n      pop\n      jump\t// out\n        /* \"#utility.yul\":442:568   */\n    tag_56:\n        /* \"#utility.yul\":479:486   */\n      0x00\n        /* \"#utility.yul\":519:561   */\n      0xffffffffffffffffffffffffffffffffffffffff\n        /* \"#utility.yul\":512:517   */\n      dup3\n        /* \"#utility.yul\":508:562   */\n      and\n        /* \"#utility.yul\":497:562   */\n      swap1\n      pop\n        /* \"#utility.yul\":442:568   */\n      swap2\n      swap1\n      pop\n      jump\t// out\n        /* \"#utility.yul\":574:670   */\n    tag_57:\n        /* \"#utility.yul\":611:618   */\n      0x00\n        /* \"#utility.yul\":640:664   */\n      tag_76\n        /* \"#utility.yul\":658:663   */\n      dup3\n        /* \"#utility.yul\":640:664   */\n      tag_56\n      jump\t// in\n    tag_76:\n        /* \"#utility.yul\":629:664   */\n      swap1\n      pop\n        /* \"#utility.yul\":574:670   */\n      swap2\n      swap1\n      pop\n      jump\t// out\n        /* \"#utility.yul\":676:794   */\n    tag_58:\n        /* \"#utility.yul\":763:787   */\n      tag_78\n        /* \"#utility.yul\":781:786   */\n      dup2\n        /* \"#utility.yul\":763:787   */\n      tag_57\n      jump\t// in\n    tag_78:\n        /* \"#utility.yul\":758:761   */\n      dup3\n        /* \"#utility.yul\":751:788   */\n      mstore\n        /* \"#utility.yul\":676:794   */\n      pop\n      pop\n      jump\t// out\n        /* \"#utility.yul\":800:890   */\n    tag_59:\n        /* \"#utility.yul\":834:841   */\n      0x00\n        /* \"#utility.yul\":877:882   */\n      dup2\n        /* \"#utility.yul\":870:883   */\n      iszero\n        /* \"#utility.yul\":863:884   */\n      iszero\n        /* \"#utility.yul\":852:884   */\n      swap1\n      pop\n        /* \"#utility.yul\":800:890   */\n      swap2\n      swap1\n      pop\n      jump\t// out\n        /* \"#utility.yul\":896:1005   */\n    tag_60:\n        /* \"#utility.yul\":977:998   */\n      tag_81\n        /* \"#utility.yul\":992:997   */\n      dup2\n        /* \"#utility.yul\":977:998   */\n      tag_59\n      jump\t// in\n    tag_81:\n        /* \"#utility.yul\":972:975   */\n      dup3\n        /* \"#utility.yul\":965:999   */\n      mstore\n        /* \"#utility.yul\":896:1005   */\n      pop\n      pop\n      jump\t// out\n        /* \"#utility.yul\":1011:1552   */\n    tag_17:\n        /* \"#utility.yul\":1182:1186   */\n      0x00\n        /* \"#utility.yul\":1220:1223   */\n      0x80\n        /* \"#utility.yul\":1209:1218   */\n      dup3\n        /* \"#utility.yul\":1205:1224   */\n      add\n        /* \"#utility.yul\":1197:1224   */\n      swap1\n      pop\n        /* \"#utility.yul\":1234:1305   */\n      tag_83\n        /* \"#utility.yul\":1302:1303   */\n      0x00\n        /* \"#utility.yul\":1291:1300   */\n      dup4\n        /* \"#utility.yul\":1287:1304   */\n      add\n        /* \"#utility.yul\":1278:1284   */\n      dup8\n        /* \"#utility.yul\":1234:1305   */\n      tag_58\n      jump\t// in\n    tag_83:\n        /* \"#utility.yul\":1315:1387   */\n      tag_84\n        /* \"#utility.yul\":1383:1385   */\n      0x20\n        /* \"#utility.yul\":1372:1381   */\n      dup4\n        /* \"#utility.yul\":1368:1386   */\n      add\n        /* \"#utility.yul\":1359:1365   */\n      dup7\n        /* \"#utility.yul\":1315:1387   */\n      tag_55\n      jump\t// in\n    tag_84:\n        /* \"#utility.yul\":1397:1469   */\n      tag_85\n        /* \"#utility.yul\":1465:1467   */\n      0x40\n        /* \"#utility.yul\":1454:1463   */\n      dup4\n        /* \"#utility.yul\":1450:1468   */\n      add\n        /* \"#utility.yul\":1441:1447   */\n      dup6\n        /* \"#utility.yul\":1397:1469   */\n      tag_55\n      jump\t// in\n    tag_85:\n        /* \"#utility.yul\":1479:1545   */\n      tag_86\n        /* \"#utility.yul\":1541:1543   */\n      0x60\n        /* \"#utility.yul\":1530:1539   */\n      dup4\n        /* \"#utility.yul\":1526:1544   */\n      add\n        /* \"#utility.yul\":1517:1523   */\n      dup5\n        /* \"#utility.yul\":1479:1545   */\n      tag_60\n      jump\t// in\n    tag_86:\n        /* \"#utility.yul\":1011:1552   */\n      swap6\n      swap5\n      pop\n      pop\n      pop\n      pop\n      pop\n      jump\t// out\n        /* \"#utility.yul\":1558:1780   */\n    tag_22:\n        /* \"#utility.yul\":1651:1655   */\n      0x00\n        /* \"#utility.yul\":1689:1691   */\n      0x20\n        /* \"#utility.yul\":1678:1687   */\n      dup3\n        /* \"#utility.yul\":1674:1692   */\n      add\n        /* \"#utility.yul\":1666:1692   */\n      swap1\n      pop\n        /* \"#utility.yul\":1702:1773   */\n      tag_88\n        /* \"#utility.yul\":1770:1771   */\n      0x00\n        /* \"#utility.yul\":1759:1768   */\n      dup4\n        /* \"#utility.yul\":1755:1772   */\n      add\n        /* \"#utility.yul\":1746:1752   */\n      dup5\n        /* \"#utility.yul\":1702:1773   */\n      tag_58\n      jump\t// in\n    tag_88:\n        /* \"#utility.yul\":1558:1780   */\n      swap3\n      swap2\n      pop\n      pop\n      jump\t// out\n        /* \"#utility.yul\":1786:1996   */\n    tag_35:\n        /* \"#utility.yul\":1873:1877   */\n      0x00\n        /* \"#utility.yul\":1911:1913   */\n      0x20\n        /* \"#utility.yul\":1900:1909   */\n      dup3\n        /* \"#utility.yul\":1896:1914   */\n      add\n        /* \"#utility.yul\":1888:1914   */\n      swap1\n      pop\n        /* \"#utility.yul\":1924:1989   */\n      tag_90\n        /* \"#utility.yul\":1986:1987   */\n      0x00\n        /* \"#utility.yul\":1975:1984   */\n      dup4\n        /* \"#utility.yul\":1971:1988   */\n      add\n        /* \"#utility.yul\":1962:1968   */\n      dup5\n        /* \"#utility.yul\":1924:1989   */\n      tag_60\n      jump\t// in\n    tag_90:\n        /* \"#utility.yul\":1786:1996   */\n      swap3\n      swap2\n      pop\n      pop\n      jump\t// out\n        /* \"#utility.yul\":2002:2171   */\n    tag_61:\n        /* \"#utility.yul\":2086:2097   */\n      0x00\n        /* \"#utility.yul\":2120:2126   */\n      dup3\n        /* \"#utility.yul\":2115:2118   */\n      dup3\n        /* \"#utility.yul\":2108:2127   */\n      mstore\n        /* \"#utility.yul\":2160:2164   */\n      0x20\n        /* \"#utility.yul\":2155:2158   */\n      dup3\n        /* \"#utility.yul\":2151:2165   */\n      add\n        /* \"#utility.yul\":2136:2165   */\n      swap1\n      pop\n        /* \"#utility.yul\":2002:2171   */\n      swap3\n      swap2\n      pop\n      pop\n      jump\t// out\n        /* \"#utility.yul\":2177:2404   */\n    tag_62:\n        /* \"#utility.yul\":2317:2351   */\n      0x4f6e6c792074686520626f72726f7765722063616e2063616c6c207468697320\n        /* \"#utility.yul\":2313:2314   */\n      0x00\n        /* \"#utility.yul\":2305:2311   */\n      dup3\n        /* \"#utility.yul\":2301:2315   */\n      add\n        /* \"#utility.yul\":2294:2352   */\n      mstore\n        /* \"#utility.yul\":2386:2396   */\n      0x66756e6374696f6e000000000000000000000000000000000000000000000000\n        /* \"#utility.yul\":2381:2383   */\n      0x20\n        /* \"#utility.yul\":2373:2379   */\n      dup3\n        /* \"#utility.yul\":2369:2384   */\n      add\n        /* \"#utility.yul\":2362:2397   */\n      mstore\n        /* \"#utility.yul\":2177:2404   */\n      pop\n      jump\t// out\n        /* \"#utility.yul\":2410:2776   */\n    tag_63:\n        /* \"#utility.yul\":2552:2555   */\n      0x00\n        /* \"#utility.yul\":2573:2640   */\n      tag_94\n        /* \"#utility.yul\":2637:2639   */\n      0x28\n        /* \"#utility.yul\":2632:2635   */\n      dup4\n        /* \"#utility.yul\":2573:2640   */\n      tag_61\n      jump\t// in\n    tag_94:\n        /* \"#utility.yul\":2566:2640   */\n      swap2\n      pop\n        /* \"#utility.yul\":2649:2742   */\n      tag_95\n        /* \"#utility.yul\":2738:2741   */\n      dup3\n        /* \"#utility.yul\":2649:2742   */\n      tag_62\n      jump\t// in\n    tag_95:\n        /* \"#utility.yul\":2767:2769   */\n      0x40\n        /* \"#utility.yul\":2762:2765   */\n      dup3\n        /* \"#utility.yul\":2758:2770   */\n      add\n        /* \"#utility.yul\":2751:2770   */\n      swap1\n      pop\n        /* \"#utility.yul\":2410:2776   */\n      swap2\n      swap1\n      pop\n      jump\t// out\n        /* \"#utility.yul\":2782:3201   */\n    tag_42:\n        /* \"#utility.yul\":2948:2952   */\n      0x00\n        /* \"#utility.yul\":2986:2988   */\n      0x20\n        /* \"#utility.yul\":2975:2984   */\n      dup3\n        /* \"#utility.yul\":2971:2989   */\n      add\n        /* \"#utility.yul\":2963:2989   */\n      swap1\n      pop\n        /* \"#utility.yul\":3035:3044   */\n      dup2\n        /* \"#utility.yul\":3029:3033   */\n      dup2\n        /* \"#utility.yul\":3025:3045   */\n      sub\n        /* \"#utility.yul\":3021:3022   */\n      0x00\n        /* \"#utility.yul\":3010:3019   */\n      dup4\n        /* \"#utility.yul\":3006:3023   */\n      add\n        /* \"#utility.yul\":2999:3046   */\n      mstore\n        /* \"#utility.yul\":3063:3194   */\n      tag_97\n        /* \"#utility.yul\":3189:3193   */\n      dup2\n        /* \"#utility.yul\":3063:3194   */\n      tag_63\n      jump\t// in\n    tag_97:\n        /* \"#utility.yul\":3055:3194   */\n      swap1\n      pop\n        /* \"#utility.yul\":2782:3201   */\n      swap2\n      swap1\n      pop\n      jump\t// out\n        /* \"#utility.yul\":3207:3385   */\n    tag_64:\n        /* \"#utility.yul\":3347:3377   */\n      0x4c6f616e2068617320616c7265616479206265656e2072657061696400000000\n        /* \"#utility.yul\":3343:3344   */\n      0x00\n        /* \"#utility.yul\":3335:3341   */\n      dup3\n        /* \"#utility.yul\":3331:3345   */\n      add\n        /* \"#utility.yul\":3324:3378   */\n      mstore\n        /* \"#utility.yul\":3207:3385   */\n      pop\n      jump\t// out\n        /* \"#utility.yul\":3391:3757   */\n    tag_65:\n        /* \"#utility.yul\":3533:3536   */\n      0x00\n        /* \"#utility.yul\":3554:3621   */\n      tag_100\n        /* \"#utility.yul\":3618:3620   */\n      0x1c\n        /* \"#utility.yul\":3613:3616   */\n      dup4\n        /* \"#utility.yul\":3554:3621   */\n      tag_61\n      jump\t// in\n    tag_100:\n        /* \"#utility.yul\":3547:3621   */\n      swap2\n      pop\n        /* \"#utility.yul\":3630:3723   */\n      tag_101\n        /* \"#utility.yul\":3719:3722   */\n      dup3\n        /* \"#utility.yul\":3630:3723   */\n      tag_64\n      jump\t// in\n    tag_101:\n        /* \"#utility.yul\":3748:3750   */\n      0x20\n        /* \"#utility.yul\":3743:3746   */\n      dup3\n        /* \"#utility.yul\":3739:3751   */\n      add\n        /* \"#utility.yul\":3732:3751   */\n      swap1\n      pop\n        /* \"#utility.yul\":3391:3757   */\n      swap2\n      swap1\n      pop\n      jump\t// out\n        /* \"#utility.yul\":3763:4182   */\n    tag_46:\n        /* \"#utility.yul\":3929:3933   */\n      0x00\n        /* \"#utility.yul\":3967:3969   */\n      0x20\n        /* \"#utility.yul\":3956:3965   */\n      dup3\n        /* \"#utility.yul\":3952:3970   */\n      add\n        /* \"#utility.yul\":3944:3970   */\n      swap1\n      pop\n        /* \"#utility.yul\":4016:4025   */\n      dup2\n        /* \"#utility.yul\":4010:4014   */\n      dup2\n        /* \"#utility.yul\":4006:4026   */\n      sub\n        /* \"#utility.yul\":4002:4003   */\n      0x00\n        /* \"#utility.yul\":3991:4000   */\n      dup4\n        /* \"#utility.yul\":3987:4004   */\n      add\n        /* \"#utility.yul\":3980:4027   */\n      mstore\n        /* \"#utility.yul\":4044:4175   */\n      tag_103\n        /* \"#utility.yul\":4170:4174   */\n      dup2\n        /* \"#utility.yul\":4044:4175   */\n      tag_65\n      jump\t// in\n    tag_103:\n        /* \"#utility.yul\":4036:4175   */\n      swap1\n      pop\n        /* \"#utility.yul\":3763:4182   */\n      swap2\n      swap1\n      pop\n      jump\t// out\n        /* \"#utility.yul\":4188:4364   */\n    tag_66:\n        /* \"#utility.yul\":4328:4356   */\n      0x496e636f72726563742072657061796d656e7420616d6f756e74000000000000\n        /* \"#utility.yul\":4324:4325   */\n      0x00\n        /* \"#utility.yul\":4316:4322   */\n      dup3\n        /* \"#utility.yul\":4312:4326   */\n      add\n        /* \"#utility.yul\":4305:4357   */\n      mstore\n        /* \"#utility.yul\":4188:4364   */\n      pop\n      jump\t// out\n        /* \"#utility.yul\":4370:4736   */\n    tag_67:\n        /* \"#utility.yul\":4512:4515   */\n      0x00\n        /* \"#utility.yul\":4533:4600   */\n      tag_106\n        /* \"#utility.yul\":4597:4599   */\n      0x1a\n        /* \"#utility.yul\":4592:4595   */\n      dup4\n        /* \"#utility.yul\":4533:4600   */\n      tag_61\n      jump\t// in\n    tag_106:\n        /* \"#utility.yul\":4526:4600   */\n      swap2\n      pop\n        /* \"#utility.yul\":4609:4702   */\n      tag_107\n        /* \"#utility.yul\":4698:4701   */\n      dup3\n        /* \"#utility.yul\":4609:4702   */\n      tag_66\n      jump\t// in\n    tag_107:\n        /* \"#utility.yul\":4727:4729   */\n      0x20\n        /* \"#utility.yul\":4722:4725   */\n      dup3\n        /* \"#utility.yul\":4718:4730   */\n      add\n        /* \"#utility.yul\":4711:4730   */\n      swap1\n      pop\n        /* \"#utility.yul\":4370:4736   */\n      swap2\n      swap1\n      pop\n      jump\t// out\n        /* \"#utility.yul\":4742:5161   */\n    tag_50:\n        /* \"#utility.yul\":4908:4912   */\n      0x00\n        /* \"#utility.yul\":4946:4948   */\n      0x20\n        /* \"#utility.yul\":4935:4944   */\n      dup3\n        /* \"#utility.yul\":4931:4949   */\n      add\n        /* \"#utility.yul\":4923:4949   */\n      swap1\n      pop\n        /* \"#utility.yul\":4995:5004   */\n      dup2\n        /* \"#utility.yul\":4989:4993   */\n      dup2\n        /* \"#utility.yul\":4985:5005   */\n      sub\n        /* \"#utility.yul\":4981:4982   */\n      0x00\n        /* \"#utility.yul\":4970:4979   */\n      dup4\n        /* \"#utility.yul\":4966:4983   */\n      add\n        /* \"#utility.yul\":4959:5006   */\n      mstore\n        /* \"#utility.yul\":5023:5154   */\n      tag_109\n        /* \"#utility.yul\":5149:5153   */\n      dup2\n        /* \"#utility.yul\":5023:5154   */\n      tag_67\n      jump\t// in\n    tag_109:\n        /* \"#utility.yul\":5015:5154   */\n      swap1\n      pop\n        /* \"#utility.yul\":4742:5161   */\n      swap2\n      swap1\n      pop\n      jump\t// out\n\n    auxdata: 0xa26469706673582212208e59bd31816cb92706c53c26095e0c73088a08501a4bef53d63ce5aaba52c84c64736f6c63430008160033\n}\n",
				"bytecode": {
					"linkReferences": {},
					"object": "608060405234801561000f575f80fd5b50335f806101000a81548173ffffffffffffffffffffffffffffffffffffffff021916908373ffffffffffffffffffffffffffffffffffffffff160217905550673782dace9d90000060018190555060c86002819055505f60035f6101000a81548160ff02191690831515021790555061067c8061008c5f395ff3fe608060405260043610610058575f3560e01c80633b7104f21461009a5780637df1f1b9146100c757806392d09ceb146100f15780639d585f7f1461011b578063bff1d2e314610145578063f966ade71461016f57610096565b36610096577fb8f6415486af1418f9963a58250d573c41bc7b087e7f76fdeaff13c83525e4073460405161008c91906103f1565b60405180910390a1005b5f80fd5b3480156100a5575f80fd5b506100ae610179565b6040516100be9493929190610463565b60405180910390f35b3480156100d2575f80fd5b506100db6101c0565b6040516100e891906104a6565b60405180910390f35b3480156100fc575f80fd5b506101056101e3565b60405161011291906103f1565b60405180910390f35b348015610126575f80fd5b5061012f6101e9565b60405161013c91906103f1565b60405180910390f35b348015610150575f80fd5b506101596101ef565b60405161016691906104bf565b60405180910390f35b610177610201565b005b5f805f805f8054906101000a900473ffffffffffffffffffffffffffffffffffffffff1660015460025460035f9054906101000a900460ff16935093509350935090919293565b5f8054906101000a900473ffffffffffffffffffffffffffffffffffffffff1681565b60015481565b60025481565b60035f9054906101000a900460ff1681565b5f8054906101000a900473ffffffffffffffffffffffffffffffffffffffff1673ffffffffffffffffffffffffffffffffffffffff163373ffffffffffffffffffffffffffffffffffffffff161461028e576040517f08c379a000000000000000000000000000000000000000000000000000000000815260040161028590610558565b60405180910390fd5b60035f9054906101000a900460ff16156102dd576040517f08c379a00000000000000000000000000000000000000000000000000000000081526004016102d4906105c0565b60405180910390fd5b6002543414610321576040517f08c379a000000000000000000000000000000000000000000000000000000000815260040161031890610628565b60405180910390fd5b600160035f6101000a81548160ff0219169083151502179055505f8054906101000a900473ffffffffffffffffffffffffffffffffffffffff1673ffffffffffffffffffffffffffffffffffffffff166108fc60015490811502906040515f60405180830381858888f1935050505015801561039f573d5f803e3d5ffd5b507f9a7851747cd7ffb3fe0a32caf3da48b31f27cebe131267051640f8b72fc47186346040516103cf91906103f1565b60405180910390a1565b5f819050919050565b6103eb816103d9565b82525050565b5f6020820190506104045f8301846103e2565b92915050565b5f73ffffffffffffffffffffffffffffffffffffffff82169050919050565b5f6104338261040a565b9050919050565b61044381610429565b82525050565b5f8115159050919050565b61045d81610449565b82525050565b5f6080820190506104765f83018761043a565b61048360208301866103e2565b61049060408301856103e2565b61049d6060830184610454565b95945050505050565b5f6020820190506104b95f83018461043a565b92915050565b5f6020820190506104d25f830184610454565b92915050565b5f82825260208201905092915050565b7f4f6e6c792074686520626f72726f7765722063616e2063616c6c2074686973205f8201527f66756e6374696f6e000000000000000000000000000000000000000000000000602082015250565b5f6105426028836104d8565b915061054d826104e8565b604082019050919050565b5f6020820190508181035f83015261056f81610536565b9050919050565b7f4c6f616e2068617320616c7265616479206265656e20726570616964000000005f82015250565b5f6105aa601c836104d8565b91506105b582610576565b602082019050919050565b5f6020820190508181035f8301526105d78161059e565b9050919050565b7f496e636f72726563742072657061796d656e7420616d6f756e740000000000005f82015250565b5f610612601a836104d8565b915061061d826105de565b602082019050919050565b5f6020820190508181035f83015261063f81610606565b905091905056fea26469706673582212208e59bd31816cb92706c53c26095e0c73088a08501a4bef53d63ce5aaba52c84c64736f6c63430008160033",
					"opcodes": "PUSH1 0x80 PUSH1 0x40 MSTORE CALLVALUE DUP1 ISZERO PUSH2 0xF JUMPI PUSH0 DUP1 REVERT JUMPDEST POP CALLER PUSH0 DUP1 PUSH2 0x100 EXP DUP2 SLOAD DUP2 PUSH20 0xFFFFFFFFFFFFFFFFFFFFFFFFFFFFFFFFFFFFFFFF MUL NOT AND SWAP1 DUP4 PUSH20 0xFFFFFFFFFFFFFFFFFFFFFFFFFFFFFFFFFFFFFFFF AND MUL OR SWAP1 SSTORE POP PUSH8 0x3782DACE9D900000 PUSH1 0x1 DUP2 SWAP1 SSTORE POP PUSH1 0xC8 PUSH1 0x2 DUP2 SWAP1 SSTORE POP PUSH0 PUSH1 0x3 PUSH0 PUSH2 0x100 EXP DUP2 SLOAD DUP2 PUSH1 0xFF MUL NOT AND SWAP1 DUP4 ISZERO ISZERO MUL OR SWAP1 SSTORE POP PUSH2 0x67C DUP1 PUSH2 0x8C PUSH0 CODECOPY PUSH0 RETURN INVALID PUSH1 0x80 PUSH1 0x40 MSTORE PUSH1 0x4 CALLDATASIZE LT PUSH2 0x58 JUMPI PUSH0 CALLDATALOAD PUSH1 0xE0 SHR DUP1 PUSH4 0x3B7104F2 EQ PUSH2 0x9A JUMPI DUP1 PUSH4 0x7DF1F1B9 EQ PUSH2 0xC7 JUMPI DUP1 PUSH4 0x92D09CEB EQ PUSH2 0xF1 JUMPI DUP1 PUSH4 0x9D585F7F EQ PUSH2 0x11B JUMPI DUP1 PUSH4 0xBFF1D2E3 EQ PUSH2 0x145 JUMPI DUP1 PUSH4 0xF966ADE7 EQ PUSH2 0x16F JUMPI PUSH2 0x96 JUMP JUMPDEST CALLDATASIZE PUSH2 0x96 JUMPI PUSH32 0xB8F6415486AF1418F9963A58250D573C41BC7B087E7F76FDEAFF13C83525E407 CALLVALUE PUSH1 0x40 MLOAD PUSH2 0x8C SWAP2 SWAP1 PUSH2 0x3F1 JUMP JUMPDEST PUSH1 0x40 MLOAD DUP1 SWAP2 SUB SWAP1 LOG1 STOP JUMPDEST PUSH0 DUP1 REVERT JUMPDEST CALLVALUE DUP1 ISZERO PUSH2 0xA5 JUMPI PUSH0 DUP1 REVERT JUMPDEST POP PUSH2 0xAE PUSH2 0x179 JUMP JUMPDEST PUSH1 0x40 MLOAD PUSH2 0xBE SWAP5 SWAP4 SWAP3 SWAP2 SWAP1 PUSH2 0x463 JUMP JUMPDEST PUSH1 0x40 MLOAD DUP1 SWAP2 SUB SWAP1 RETURN JUMPDEST CALLVALUE DUP1 ISZERO PUSH2 0xD2 JUMPI PUSH0 DUP1 REVERT JUMPDEST POP PUSH2 0xDB PUSH2 0x1C0 JUMP JUMPDEST PUSH1 0x40 MLOAD PUSH2 0xE8 SWAP2 SWAP1 PUSH2 0x4A6 JUMP JUMPDEST PUSH1 0x40 MLOAD DUP1 SWAP2 SUB SWAP1 RETURN JUMPDEST CALLVALUE DUP1 ISZERO PUSH2 0xFC JUMPI PUSH0 DUP1 REVERT JUMPDEST POP PUSH2 0x105 PUSH2 0x1E3 JUMP JUMPDEST PUSH1 0x40 MLOAD PUSH2 0x112 SWAP2 SWAP1 PUSH2 0x3F1 JUMP JUMPDEST PUSH1 0x40 MLOAD DUP1 SWAP2 SUB SWAP1 RETURN JUMPDEST CALLVALUE DUP1 ISZERO PUSH2 0x126 JUMPI PUSH0 DUP1 REVERT JUMPDEST POP PUSH2 0x12F PUSH2 0x1E9 JUMP JUMPDEST PUSH1 0x40 MLOAD PUSH2 0x13C SWAP2 SWAP1 PUSH2 0x3F1 JUMP JUMPDEST PUSH1 0x40 MLOAD DUP1 SWAP2 SUB SWAP1 RETURN JUMPDEST CALLVALUE DUP1 ISZERO PUSH2 0x150 JUMPI PUSH0 DUP1 REVERT JUMPDEST POP PUSH2 0x159 PUSH2 0x1EF JUMP JUMPDEST PUSH1 0x40 MLOAD PUSH2 0x166 SWAP2 SWAP1 PUSH2 0x4BF JUMP JUMPDEST PUSH1 0x40 MLOAD DUP1 SWAP2 SUB SWAP1 RETURN JUMPDEST PUSH2 0x177 PUSH2 0x201 JUMP JUMPDEST STOP JUMPDEST PUSH0 DUP1 PUSH0 DUP1 PUSH0 DUP1 SLOAD SWAP1 PUSH2 0x100 EXP SWAP1 DIV PUSH20 0xFFFFFFFFFFFFFFFFFFFFFFFFFFFFFFFFFFFFFFFF AND PUSH1 0x1 SLOAD PUSH1 0x2 SLOAD PUSH1 0x3 PUSH0 SWAP1 SLOAD SWAP1 PUSH2 0x100 EXP SWAP1 DIV PUSH1 0xFF AND SWAP4 POP SWAP4 POP SWAP4 POP SWAP4 POP SWAP1 SWAP2 SWAP3 SWAP4 JUMP JUMPDEST PUSH0 DUP1 SLOAD SWAP1 PUSH2 0x100 EXP SWAP1 DIV PUSH20 0xFFFFFFFFFFFFFFFFFFFFFFFFFFFFFFFFFFFFFFFF AND DUP2 JUMP JUMPDEST PUSH1 0x1 SLOAD DUP2 JUMP JUMPDEST PUSH1 0x2 SLOAD DUP2 JUMP JUMPDEST PUSH1 0x3 PUSH0 SWAP1 SLOAD SWAP1 PUSH2 0x100 EXP SWAP1 DIV PUSH1 0xFF AND DUP2 JUMP JUMPDEST PUSH0 DUP1 SLOAD SWAP1 PUSH2 0x100 EXP SWAP1 DIV PUSH20 0xFFFFFFFFFFFFFFFFFFFFFFFFFFFFFFFFFFFFFFFF AND PUSH20 0xFFFFFFFFFFFFFFFFFFFFFFFFFFFFFFFFFFFFFFFF AND CALLER PUSH20 0xFFFFFFFFFFFFFFFFFFFFFFFFFFFFFFFFFFFFFFFF AND EQ PUSH2 0x28E JUMPI PUSH1 0x40 MLOAD PUSH32 0x8C379A000000000000000000000000000000000000000000000000000000000 DUP2 MSTORE PUSH1 0x4 ADD PUSH2 0x285 SWAP1 PUSH2 0x558 JUMP JUMPDEST PUSH1 0x40 MLOAD DUP1 SWAP2 SUB SWAP1 REVERT JUMPDEST PUSH1 0x3 PUSH0 SWAP1 SLOAD SWAP1 PUSH2 0x100 EXP SWAP1 DIV PUSH1 0xFF AND ISZERO PUSH2 0x2DD JUMPI PUSH1 0x40 MLOAD PUSH32 0x8C379A000000000000000000000000000000000000000000000000000000000 DUP2 MSTORE PUSH1 0x4 ADD PUSH2 0x2D4 SWAP1 PUSH2 0x5C0 JUMP JUMPDEST PUSH1 0x40 MLOAD DUP1 SWAP2 SUB SWAP1 REVERT JUMPDEST PUSH1 0x2 SLOAD CALLVALUE EQ PUSH2 0x321 JUMPI PUSH1 0x40 MLOAD PUSH32 0x8C379A000000000000000000000000000000000000000000000000000000000 DUP2 MSTORE PUSH1 0x4 ADD PUSH2 0x318 SWAP1 PUSH2 0x628 JUMP JUMPDEST PUSH1 0x40 MLOAD DUP1 SWAP2 SUB SWAP1 REVERT JUMPDEST PUSH1 0x1 PUSH1 0x3 PUSH0 PUSH2 0x100 EXP DUP2 SLOAD DUP2 PUSH1 0xFF MUL NOT AND SWAP1 DUP4 ISZERO ISZERO MUL OR SWAP1 SSTORE POP PUSH0 DUP1 SLOAD SWAP1 PUSH2 0x100 EXP SWAP1 DIV PUSH20 0xFFFFFFFFFFFFFFFFFFFFFFFFFFFFFFFFFFFFFFFF AND PUSH20 0xFFFFFFFFFFFFFFFFFFFFFFFFFFFFFFFFFFFFFFFF AND PUSH2 0x8FC PUSH1 0x1 SLOAD SWAP1 DUP2 ISZERO MUL SWAP1 PUSH1 0x40 MLOAD PUSH0 PUSH1 0x40 MLOAD DUP1 DUP4 SUB DUP2 DUP6 DUP9 DUP9 CALL SWAP4 POP POP POP POP ISZERO DUP1 ISZERO PUSH2 0x39F JUMPI RETURNDATASIZE PUSH0 DUP1 RETURNDATACOPY RETURNDATASIZE PUSH0 REVERT JUMPDEST POP PUSH32 0x9A7851747CD7FFB3FE0A32CAF3DA48B31F27CEBE131267051640F8B72FC47186 CALLVALUE PUSH1 0x40 MLOAD PUSH2 0x3CF SWAP2 SWAP1 PUSH2 0x3F1 JUMP JUMPDEST PUSH1 0x40 MLOAD DUP1 SWAP2 SUB SWAP1 LOG1 JUMP JUMPDEST PUSH0 DUP2 SWAP1 POP SWAP2 SWAP1 POP JUMP JUMPDEST PUSH2 0x3EB DUP2 PUSH2 0x3D9 JUMP JUMPDEST DUP3 MSTORE POP POP JUMP JUMPDEST PUSH0 PUSH1 0x20 DUP3 ADD SWAP1 POP PUSH2 0x404 PUSH0 DUP4 ADD DUP5 PUSH2 0x3E2 JUMP JUMPDEST SWAP3 SWAP2 POP POP JUMP JUMPDEST PUSH0 PUSH20 0xFFFFFFFFFFFFFFFFFFFFFFFFFFFFFFFFFFFFFFFF DUP3 AND SWAP1 POP SWAP2 SWAP1 POP JUMP JUMPDEST PUSH0 PUSH2 0x433 DUP3 PUSH2 0x40A JUMP JUMPDEST SWAP1 POP SWAP2 SWAP1 POP JUMP JUMPDEST PUSH2 0x443 DUP2 PUSH2 0x429 JUMP JUMPDEST DUP3 MSTORE POP POP JUMP JUMPDEST PUSH0 DUP2 ISZERO ISZERO SWAP1 POP SWAP2 SWAP1 POP JUMP JUMPDEST PUSH2 0x45D DUP2 PUSH2 0x449 JUMP JUMPDEST DUP3 MSTORE POP POP JUMP JUMPDEST PUSH0 PUSH1 0x80 DUP3 ADD SWAP1 POP PUSH2 0x476 PUSH0 DUP4 ADD DUP8 PUSH2 0x43A JUMP JUMPDEST PUSH2 0x483 PUSH1 0x20 DUP4 ADD DUP7 PUSH2 0x3E2 JUMP JUMPDEST PUSH2 0x490 PUSH1 0x40 DUP4 ADD DUP6 PUSH2 0x3E2 JUMP JUMPDEST PUSH2 0x49D PUSH1 0x60 DUP4 ADD DUP5 PUSH2 0x454 JUMP JUMPDEST SWAP6 SWAP5 POP POP POP POP POP JUMP JUMPDEST PUSH0 PUSH1 0x20 DUP3 ADD SWAP1 POP PUSH2 0x4B9 PUSH0 DUP4 ADD DUP5 PUSH2 0x43A JUMP JUMPDEST SWAP3 SWAP2 POP POP JUMP JUMPDEST PUSH0 PUSH1 0x20 DUP3 ADD SWAP1 POP PUSH2 0x4D2 PUSH0 DUP4 ADD DUP5 PUSH2 0x454 JUMP JUMPDEST SWAP3 SWAP2 POP POP JUMP JUMPDEST PUSH0 DUP3 DUP3 MSTORE PUSH1 0x20 DUP3 ADD SWAP1 POP SWAP3 SWAP2 POP POP JUMP JUMPDEST PUSH32 0x4F6E6C792074686520626F72726F7765722063616E2063616C6C207468697320 PUSH0 DUP3 ADD MSTORE PUSH32 0x66756E6374696F6E000000000000000000000000000000000000000000000000 PUSH1 0x20 DUP3 ADD MSTORE POP JUMP JUMPDEST PUSH0 PUSH2 0x542 PUSH1 0x28 DUP4 PUSH2 0x4D8 JUMP JUMPDEST SWAP2 POP PUSH2 0x54D DUP3 PUSH2 0x4E8 JUMP JUMPDEST PUSH1 0x40 DUP3 ADD SWAP1 POP SWAP2 SWAP1 POP JUMP JUMPDEST PUSH0 PUSH1 0x20 DUP3 ADD SWAP1 POP DUP2 DUP2 SUB PUSH0 DUP4 ADD MSTORE PUSH2 0x56F DUP2 PUSH2 0x536 JUMP JUMPDEST SWAP1 POP SWAP2 SWAP1 POP JUMP JUMPDEST PUSH32 0x4C6F616E2068617320616C7265616479206265656E2072657061696400000000 PUSH0 DUP3 ADD MSTORE POP JUMP JUMPDEST PUSH0 PUSH2 0x5AA PUSH1 0x1C DUP4 PUSH2 0x4D8 JUMP JUMPDEST SWAP2 POP PUSH2 0x5B5 DUP3 PUSH2 0x576 JUMP JUMPDEST PUSH1 0x20 DUP3 ADD SWAP1 POP SWAP2 SWAP1 POP JUMP JUMPDEST PUSH0 PUSH1 0x20 DUP3 ADD SWAP1 POP DUP2 DUP2 SUB PUSH0 DUP4 ADD MSTORE PUSH2 0x5D7 DUP2 PUSH2 0x59E JUMP JUMPDEST SWAP1 POP SWAP2 SWAP1 POP JUMP JUMPDEST PUSH32 0x496E636F72726563742072657061796D656E7420616D6F756E74000000000000 PUSH0 DUP3 ADD MSTORE POP JUMP JUMPDEST PUSH0 PUSH2 0x612 PUSH1 0x1A DUP4 PUSH2 0x4D8 JUMP JUMPDEST SWAP2 POP PUSH2 0x61D DUP3 PUSH2 0x5DE JUMP JUMPDEST PUSH1 0x20 DUP3 ADD SWAP1 POP SWAP2 SWAP1 POP JUMP JUMPDEST PUSH0 PUSH1 0x20 DUP3 ADD SWAP1 POP DUP2 DUP2 SUB PUSH0 DUP4 ADD MSTORE PUSH2 0x63F DUP2 PUSH2 0x606 JUMP JUMPDEST SWAP1 POP SWAP2 SWAP1 POP JUMP INVALID LOG2 PUSH5 0x6970667358 0x22 SLT KECCAK256 DUP15 MSIZE 0xBD BALANCE DUP2 PUSH13 0xB92706C53C26095E0C73088A08 POP BYTE 0x4B 0xEF MSTORE8 0xD6 EXTCODECOPY 0xE5 0xAA 0xBA MSTORE 0xC8 0x4C PUSH5 0x736F6C6343 STOP ADDMOD AND STOP CALLER "
				},
				"gasEstimates": {
					"creation": {
						"codeDepositCost": "332000",
						"executionCost": "93124",
						"totalCost": "425124"
					},
					"external": {
						"borrower()": "2505",
						"checkStatus()": "infinite",
						"collateralAmount()": "2447",
						"loanAmount()": "2469",
						"loanRepaid()": "2532",
						"repayLoan()": "infinite"
					}
				},
				"methodIdentifiers": {
					"borrower()": "7df1f1b9",
					"checkStatus()": "3b7104f2",
					"collateralAmount()": "92d09ceb",
					"loanAmount()": "9d585f7f",
					"loanRepaid()": "bff1d2e3",
					"repayLoan()": "f966ade7"
				}
			},
			"storageLayout": {
				"storage": [
					{
						"astId": 3,
						"contract": "contracts/PawnBorrow.sol:PawnContract",
						"label": "borrower",
						"offset": 0,
						"slot": "0",
						"type": "t_address"
					},
					{
						"astId": 5,
						"contract": "contracts/PawnBorrow.sol:PawnContract",
						"label": "collateralAmount",
						"offset": 0,
						"slot": "1",
						"type": "t_uint256"
					},
					{
						"astId": 7,
						"contract": "contracts/PawnBorrow.sol:PawnContract",
						"label": "loanAmount",
						"offset": 0,
						"slot": "2",
						"type": "t_uint256"
					},
					{
						"astId": 9,
						"contract": "contracts/PawnBorrow.sol:PawnContract",
						"label": "loanRepaid",
						"offset": 0,
						"slot": "3",
						"type": "t_bool"
					}
				],
				"types": {
					"t_address": {
						"encoding": "inplace",
						"label": "address",
						"numberOfBytes": "20"
					},
					"t_bool": {
						"encoding": "inplace",
						"label": "bool",
						"numberOfBytes": "1"
					},
					"t_uint256": {
						"encoding": "inplace",
						"label": "uint256",
						"numberOfBytes": "32"
					}
				}
			},
			"userdoc": {
				"kind": "user",
				"methods": {},
				"version": 1
			}
		}
	}
}